{
  "_format": "hh-sol-artifact-1",
  "contractName": "DappBnb",
  "sourceName": "src/contracts/DappBnb.sol",
  "abi": [
    {
      "inputs": [
        {
          "internalType": "uint256",
          "name": "_taxPercent",
          "type": "uint256"
        },
        {
          "internalType": "uint256",
          "name": "_securityFee",
          "type": "uint256"
        }
      ],
      "stateMutability": "nonpayable",
      "type": "constructor"
    },
    {
      "anonymous": false,
      "inputs": [
        {
          "indexed": true,
          "internalType": "address",
          "name": "previousOwner",
          "type": "address"
        },
        {
          "indexed": true,
          "internalType": "address",
          "name": "newOwner",
          "type": "address"
        }
      ],
      "name": "OwnershipTransferred",
      "type": "event"
    },
    {
      "anonymous": false,
      "inputs": [
        {
          "indexed": false,
          "internalType": "uint256",
          "name": "newFee",
          "type": "uint256"
        }
      ],
      "name": "SecurityFeeUpdated",
      "type": "event"
    },
    {
      "inputs": [
        {
          "internalType": "uint256",
          "name": "appartmentId",
          "type": "uint256"
        },
        {
          "internalType": "string",
          "name": "reviewText",
          "type": "string"
        }
      ],
      "name": "addReview",
      "outputs": [],
      "stateMutability": "nonpayable",
      "type": "function"
    },
    {
      "inputs": [
        {
          "internalType": "uint256",
          "name": "id",
          "type": "uint256"
        },
        {
          "internalType": "uint256[]",
          "name": "dates",
          "type": "uint256[]"
        }
      ],
      "name": "bookApartment",
      "outputs": [],
      "stateMutability": "payable",
      "type": "function"
    },
    {
      "inputs": [
        {
          "internalType": "uint256",
          "name": "id",
          "type": "uint256"
        },
        {
          "internalType": "uint256",
          "name": "bookingId",
          "type": "uint256"
        }
      ],
      "name": "checkInApartment",
      "outputs": [],
      "stateMutability": "nonpayable",
      "type": "function"
    },
    {
      "inputs": [
        {
          "internalType": "uint256",
          "name": "id",
          "type": "uint256"
        },
        {
          "internalType": "uint256",
          "name": "bookingId",
          "type": "uint256"
        }
      ],
      "name": "claimFunds",
      "outputs": [],
      "stateMutability": "nonpayable",
      "type": "function"
    },
    {
      "inputs": [
        {
          "internalType": "string",
          "name": "name",
          "type": "string"
        },
        {
          "internalType": "string",
          "name": "description",
          "type": "string"
        },
        {
          "internalType": "string",
          "name": "images",
          "type": "string"
        },
        {
          "internalType": "uint256",
          "name": "rooms",
          "type": "uint256"
        },
        {
          "internalType": "uint256",
          "name": "price",
          "type": "uint256"
        }
      ],
      "name": "createAppartment",
      "outputs": [],
      "stateMutability": "nonpayable",
      "type": "function"
    },
    {
      "inputs": [
        {
          "internalType": "uint256",
          "name": "id",
          "type": "uint256"
        }
      ],
      "name": "deleteAppartment",
      "outputs": [],
      "stateMutability": "nonpayable",
      "type": "function"
    },
    {
      "inputs": [
        {
          "internalType": "uint256",
          "name": "id",
          "type": "uint256"
        }
      ],
      "name": "getApartment",
      "outputs": [
        {
          "components": [
            {
              "internalType": "uint256",
              "name": "id",
              "type": "uint256"
            },
            {
              "internalType": "string",
              "name": "name",
              "type": "string"
            },
            {
              "internalType": "string",
              "name": "description",
              "type": "string"
            },
            {
              "internalType": "string",
              "name": "images",
              "type": "string"
            },
            {
              "internalType": "uint256",
              "name": "rooms",
              "type": "uint256"
            },
            {
              "internalType": "uint256",
              "name": "price",
              "type": "uint256"
            },
            {
              "internalType": "address",
              "name": "owner",
              "type": "address"
            },
            {
              "internalType": "bool",
              "name": "booked",
              "type": "bool"
            },
            {
              "internalType": "bool",
              "name": "deleted",
              "type": "bool"
            },
            {
              "internalType": "bool",
              "name": "availablity",
              "type": "bool"
            },
            {
              "internalType": "uint256",
              "name": "timestamp",
              "type": "uint256"
            }
          ],
          "internalType": "struct DappBnb.ApartmentStruct",
          "name": "",
          "type": "tuple"
        }
      ],
      "stateMutability": "view",
      "type": "function"
    },
    {
      "inputs": [],
      "name": "getApartments",
      "outputs": [
        {
          "components": [
            {
              "internalType": "uint256",
              "name": "id",
              "type": "uint256"
            },
            {
              "internalType": "string",
              "name": "name",
              "type": "string"
            },
            {
              "internalType": "string",
              "name": "description",
              "type": "string"
            },
            {
              "internalType": "string",
              "name": "images",
              "type": "string"
            },
            {
              "internalType": "uint256",
              "name": "rooms",
              "type": "uint256"
            },
            {
              "internalType": "uint256",
              "name": "price",
              "type": "uint256"
            },
            {
              "internalType": "address",
              "name": "owner",
              "type": "address"
            },
            {
              "internalType": "bool",
              "name": "booked",
              "type": "bool"
            },
            {
              "internalType": "bool",
              "name": "deleted",
              "type": "bool"
            },
            {
              "internalType": "bool",
              "name": "availablity",
              "type": "bool"
            },
            {
              "internalType": "uint256",
              "name": "timestamp",
              "type": "uint256"
            }
          ],
          "internalType": "struct DappBnb.ApartmentStruct[]",
          "name": "Apartments",
          "type": "tuple[]"
        }
      ],
      "stateMutability": "view",
      "type": "function"
    },
    {
      "inputs": [
        {
          "internalType": "uint256",
          "name": "id",
          "type": "uint256"
        },
        {
          "internalType": "uint256",
          "name": "bookingId",
          "type": "uint256"
        }
      ],
      "name": "getBooking",
      "outputs": [
        {
          "components": [
            {
              "internalType": "uint256",
              "name": "id",
              "type": "uint256"
            },
            {
              "internalType": "address",
              "name": "tenant",
              "type": "address"
            },
            {
              "internalType": "uint256",
              "name": "date",
              "type": "uint256"
            },
            {
              "internalType": "uint256",
              "name": "price",
              "type": "uint256"
            },
            {
              "internalType": "bool",
              "name": "checked",
              "type": "bool"
            },
            {
              "internalType": "bool",
              "name": "cancelled",
              "type": "bool"
            }
          ],
          "internalType": "struct DappBnb.BookingStruct",
          "name": "",
          "type": "tuple"
        }
      ],
      "stateMutability": "view",
      "type": "function"
    },
    {
      "inputs": [
        {
          "internalType": "uint256",
          "name": "id",
          "type": "uint256"
        }
      ],
      "name": "getBookings",
      "outputs": [
        {
          "components": [
            {
              "internalType": "uint256",
              "name": "id",
              "type": "uint256"
            },
            {
              "internalType": "address",
              "name": "tenant",
              "type": "address"
            },
            {
              "internalType": "uint256",
              "name": "date",
              "type": "uint256"
            },
            {
              "internalType": "uint256",
              "name": "price",
              "type": "uint256"
            },
            {
              "internalType": "bool",
              "name": "checked",
              "type": "bool"
            },
            {
              "internalType": "bool",
              "name": "cancelled",
              "type": "bool"
            }
          ],
          "internalType": "struct DappBnb.BookingStruct[]",
          "name": "",
          "type": "tuple[]"
        }
      ],
      "stateMutability": "view",
      "type": "function"
    },
    {
      "inputs": [
        {
          "internalType": "uint256",
          "name": "appartmentId",
          "type": "uint256"
        }
      ],
      "name": "getReviews",
      "outputs": [
        {
          "components": [
            {
              "internalType": "uint256",
              "name": "id",
              "type": "uint256"
            },
            {
              "internalType": "uint256",
              "name": "appartmentId",
              "type": "uint256"
            },
            {
              "internalType": "string",
              "name": "reviewText",
              "type": "string"
            },
            {
              "internalType": "uint256",
              "name": "timestamp",
              "type": "uint256"
            },
            {
              "internalType": "address",
              "name": "owner",
              "type": "address"
            }
          ],
          "internalType": "struct DappBnb.ReviewStruct[]",
          "name": "",
          "type": "tuple[]"
        }
      ],
      "stateMutability": "view",
      "type": "function"
    },
    {
      "inputs": [
        {
          "internalType": "uint256",
          "name": "id",
          "type": "uint256"
        }
      ],
      "name": "getUnavailableDates",
      "outputs": [
        {
          "internalType": "uint256[]",
          "name": "",
          "type": "uint256[]"
        }
      ],
      "stateMutability": "view",
      "type": "function"
    },
    {
      "inputs": [
        {
          "internalType": "uint256",
          "name": "id",
          "type": "uint256"
        },
        {
          "internalType": "uint256",
          "name": "bookingId",
          "type": "uint256"
        }
      ],
      "name": "hasBookedDateReached",
      "outputs": [
        {
          "internalType": "bool",
          "name": "",
          "type": "bool"
        }
      ],
      "stateMutability": "view",
      "type": "function"
    },
    {
      "inputs": [],
      "name": "owner",
      "outputs": [
        {
          "internalType": "address",
          "name": "",
          "type": "address"
        }
      ],
      "stateMutability": "view",
      "type": "function"
    },
    {
      "inputs": [
        {
          "internalType": "uint256",
          "name": "id",
          "type": "uint256"
        },
        {
          "internalType": "uint256",
          "name": "bookingId",
          "type": "uint256"
        },
        {
          "internalType": "uint256",
          "name": "date",
          "type": "uint256"
        }
      ],
      "name": "refundBooking",
      "outputs": [],
      "stateMutability": "nonpayable",
      "type": "function"
    },
    {
      "inputs": [],
      "name": "renounceOwnership",
      "outputs": [],
      "stateMutability": "nonpayable",
      "type": "function"
    },
    {
      "inputs": [],
      "name": "securityFee",
      "outputs": [
        {
          "internalType": "uint256",
          "name": "",
          "type": "uint256"
        }
      ],
      "stateMutability": "view",
      "type": "function"
    },
    {
      "inputs": [],
      "name": "taxPercent",
      "outputs": [
        {
          "internalType": "uint256",
          "name": "",
          "type": "uint256"
        }
      ],
      "stateMutability": "view",
      "type": "function"
    },
    {
      "inputs": [
        {
          "internalType": "uint256",
          "name": "appartmentId",
          "type": "uint256"
        }
      ],
      "name": "tenantBooked",
      "outputs": [
        {
          "internalType": "bool",
          "name": "",
          "type": "bool"
        }
      ],
      "stateMutability": "view",
      "type": "function"
    },
    {
      "inputs": [
        {
          "internalType": "address",
          "name": "newOwner",
          "type": "address"
        }
      ],
      "name": "transferOwnership",
      "outputs": [],
      "stateMutability": "nonpayable",
      "type": "function"
    },
    {
      "inputs": [
        {
          "internalType": "uint256",
          "name": "id",
          "type": "uint256"
        },
        {
          "internalType": "string",
          "name": "name",
          "type": "string"
        },
        {
          "internalType": "string",
          "name": "description",
          "type": "string"
        },
        {
          "internalType": "string",
          "name": "images",
          "type": "string"
        },
        {
          "internalType": "uint256",
          "name": "rooms",
          "type": "uint256"
        },
        {
          "internalType": "uint256",
          "name": "price",
          "type": "uint256"
        }
      ],
      "name": "updateAppartment",
      "outputs": [],
      "stateMutability": "nonpayable",
      "type": "function"
    },
    {
      "inputs": [
        {
          "internalType": "uint256",
          "name": "newFee",
          "type": "uint256"
        }
      ],
      "name": "updateSecurityFee",
      "outputs": [],
      "stateMutability": "nonpayable",
      "type": "function"
    },
    {
      "inputs": [
        {
          "internalType": "uint256",
          "name": "newTaxPercent",
          "type": "uint256"
        }
      ],
      "name": "updateTaxPercent",
      "outputs": [],
      "stateMutability": "nonpayable",
      "type": "function"
    }
  ],
  "bytecode": "0x60806040523480156200001157600080fd5b5060405162002f4138038062002f418339810160408190526200003491620000a2565b6200003f3362000052565b60018055600491909155600355620000c7565b600080546001600160a01b038381166001600160a01b0319831681178455604051919092169283917f8be0079c531659141344cd1fd0a4f28419497f9722a3daafe3b4186f6b6457e09190a35050565b60008060408385031215620000b657600080fd5b505080516020909101519092909150565b612e6a80620000d76000396000f3fe6080604052600436106101405760003560e01c8063b1c98099116100b6578063df6e02221161006f578063df6e0222146103c8578063e16ca8d1146103db578063eb461445146103fb578063f2fde38b1461041b578063f40109951461043b578063f6ab7e3d1461046857600080fd5b8063b1c98099146102f6578063c4452e0614610318578063d5ea1cb814610345578063d68e130214610365578063db2f80b71461037b578063dec30d39146103a857600080fd5b80637541f41c116101085780637541f41c146101f257806378419f61146102165780638da5cb5b146102365780639d4a22551461025e5780639f31a2be1461028b578063ade652db146102d657600080fd5b8063010b58ee14610145578063455b3070146101675780635bb0c5d61461019d57806361591149146101bd578063715018a6146101dd575b600080fd5b34801561015157600080fd5b50610165610160366004612661565b610488565b005b34801561017357600080fd5b50610187610182366004612661565b6105ee565b60405161019491906126c7565b60405180910390f35b3480156101a957600080fd5b506101656101b836600461278c565b610688565b3480156101c957600080fd5b506101656101d83660046127d3565b61087c565b3480156101e957600080fd5b506101656108cc565b3480156101fe57600080fd5b5061020860045481565b604051908152602001610194565b34801561022257600080fd5b50610165610231366004612661565b6108e0565b34801561024257600080fd5b506000546040516001600160a01b039091168152602001610194565b34801561026a57600080fd5b5061027e6102793660046127d3565b610a98565b6040516101949190612839565b34801561029757600080fd5b506102c66102a63660046127d3565b336000908152600b60209081526040808320938352929052205460ff1690565b6040519015158152602001610194565b3480156102e257600080fd5b506101656102f13660046128d7565b610bd3565b34801561030257600080fd5b5061030b610eaa565b6040516101949190612a38565b34801561032457600080fd5b506103386103333660046127d3565b611208565b6040516101949190612a9a565b34801561035157600080fd5b50610165610360366004612ab4565b61145a565b34801561037157600080fd5b5061020860035481565b34801561038757600080fd5b5061039b6103963660046127d3565b611a18565b6040516101949190612b58565b3480156103b457600080fd5b506101656103c33660046127d3565b611a7a565b6101656103d6366004612b9c565b611b69565b3480156103e757600080fd5b506101656103f6366004612c4e565b611e23565b34801561040757600080fd5b506101656104163660046127d3565b6121d6565b34801561042757600080fd5b50610165610436366004612c7a565b6121e3565b34801561044757600080fd5b5061045b6104563660046127d3565b61225c565b6040516101949190612ca3565b34801561047457600080fd5b506102c6610483366004612661565b61230d565b6000828152600560205260409020600601546001600160a01b031633146104ec5760405162461bcd60e51b8152602060048201526013602482015272556e617574686f72697a656420656e7469747960681b60448201526064015b60405180910390fd5b600082815260066020526040902080548290811061050c5761050c612ce5565b600091825260209091206004600590920201015460ff16156105405760405162461bcd60e51b81526004016104e390612cfb565b600082815260066020526040812080548390811061056057610560612ce5565b906000526020600020906005020160030154905060006064600454836105869190612d58565b6105909190612d77565b6000858152600560205260409020600601549091506105c1906001600160a01b03166105bc8385612d99565b612352565b6105dc6105d66000546001600160a01b031690565b82612352565b6105e833600354612352565b50505050565b6105f661251c565b600083815260066020526040902080548390811061061657610616612ce5565b60009182526020918290206040805160c08101825260059093029091018054835260018101546001600160a01b0316938301939093526002830154908201526003820154606082015260049091015460ff8082161515608084015261010090910416151560a082015290505b92915050565b60008281526008602052604090205460ff166106e65760405162461bcd60e51b815260206004820152601860248201527f4170706172746d656e74206e6f7420617661696c61626c65000000000000000060448201526064016104e3565b336000908152600b6020908152604080832085845290915290205460ff166107505760405162461bcd60e51b815260206004820152601860248201527f426f6f6b206669727374206265666f726520726576696577000000000000000060448201526064016104e3565b60008151116107a15760405162461bcd60e51b815260206004820152601b60248201527f52657669657720746578742063616e6e6f7420626520656d707479000000000060448201526064016104e3565b6107dc6040518060a001604052806000815260200160008152602001606081526020016000815260200160006001600160a01b031681525090565b60008381526007602081815260408084208054808752868401898152928701888152426060890152336080890152948452600180820183559186529483902086516005909602019485559051908401559051805184939261084492600285019291019061255f565b5060608201516003820155608090910151600490910180546001600160a01b0319166001600160a01b03909216919091179055505050565b6108846123b2565b6000811161089157600080fd5b60038190556040518181527f3790aeee57809af98fad1b89b9266c7934e03ed46702b541f2fef6f1e89d68279060200160405180910390a150565b6108d46123b2565b6108de600061240c565b565b600082815260066020526040902080548290811061090057610900612ce5565b60009182526020909120600590910201600101546001600160a01b031633146109625760405162461bcd60e51b8152602060048201526014602482015273556e617574686f72697a65642074656e616e742160601b60448201526064016104e3565b600082815260066020526040902080548290811061098257610982612ce5565b600091825260209091206004600590920201015460ff16156109b65760405162461bcd60e51b81526004016104e390612cfb565b6000828152600660205260409020805460019190839081106109da576109da612ce5565b60009182526020808320600592909202909101600401805460ff191693151593909317909255838152600690915260408120805483908110610a1e57610a1e612ce5565b90600052602060002090600502016003015490506000606460045483610a449190612d58565b610a4e9190612d77565b336000908152600b602090815260408083208884528252808320805460ff1916600117905560059091529020600601549091506105c1906001600160a01b03166105bc8385612d99565b606060076000838152602001908152602001600020805480602002602001604051908101604052809291908181526020016000905b82821015610bc857838290600052602060002090600502016040518060a00160405290816000820154815260200160018201548152602001600282018054610b1490612db0565b80601f0160208091040260200160405190810160405280929190818152602001828054610b4090612db0565b8015610b8d5780601f10610b6257610100808354040283529160200191610b8d565b820191906000526020600020905b815481529060010190602001808311610b7057829003601f168201915b505050918352505060038201546020808301919091526004909201546001600160a01b03166040909101529082526001929092019101610acd565b505050509050919050565b6000855111610c1b5760405162461bcd60e51b81526020600482015260146024820152734e616d652063616e6e6f7420626520656d70747960601b60448201526064016104e3565b6000845111610c6c5760405162461bcd60e51b815260206004820152601b60248201527f4465736372697074696f6e2063616e6e6f7420626520656d707479000000000060448201526064016104e3565b6000835111610cb65760405162461bcd60e51b8152602060048201526016602482015275496d616765732063616e6e6f7420626520656d70747960501b60448201526064016104e3565b60008211610cfd5760405162461bcd60e51b8152602060048201526014602482015273526f6f6d732063616e6e6f74206265207a65726f60601b60448201526064016104e3565b60008111610d445760405162461bcd60e51b815260206004820152601460248201527350726963652063616e6e6f74206265207a65726f60601b60448201526064016104e3565b610d52600280546001019055565b610d5a6125e3565b60028054808352602080840189815260408086018a9052606086018990526080860188905260a086018790523360c08701526001610120870181905242610140880152600094855260088452818520805460ff191682179055945484526005835290922084518155915180518594610dd79390850192019061255f565b5060408201518051610df391600284019160209091019061255f565b5060608201518051610e0f91600384019160209091019061255f565b506080820151600482015560a0820151600582015560c082015160068201805460e08501516101008601516101208701511515600160b01b0260ff60b01b19911515600160a81b029190911661ffff60a81b19921515600160a01b026001600160a81b03199094166001600160a01b039096169590951792909217169290921791909117905561014090910151600790910155505050505050565b6060600060015b6002548111610efa57600081815260056020526040902060060154600160a81b900460ff16610ee85781610ee481612deb565b9250505b80610ef281612deb565b915050610eb1565b508067ffffffffffffffff811115610f1457610f146126d5565b604051908082528060200260200182016040528015610f4d57816020015b610f3a6125e3565b815260200190600190039081610f325790505b509150600060015b600254811161120257600081815260056020526040902060060154600160a81b900460ff166111f057600560008281526020019081526020016000206040518061016001604052908160008201548152602001600182018054610fb790612db0565b80601f0160208091040260200160405190810160405280929190818152602001828054610fe390612db0565b80156110305780601f1061100557610100808354040283529160200191611030565b820191906000526020600020905b81548152906001019060200180831161101357829003601f168201915b5050505050815260200160028201805461104990612db0565b80601f016020809104026020016040519081016040528092919081815260200182805461107590612db0565b80156110c25780601f10611097576101008083540402835291602001916110c2565b820191906000526020600020905b8154815290600101906020018083116110a557829003601f168201915b505050505081526020016003820180546110db90612db0565b80601f016020809104026020016040519081016040528092919081815260200182805461110790612db0565b80156111545780601f1061112957610100808354040283529160200191611154565b820191906000526020600020905b81548152906001019060200180831161113757829003601f168201915b5050509183525050600482015460208201526005820154604082015260068201546001600160a01b038116606083015260ff600160a01b8204811615156080840152600160a81b82048116151560a0840152600160b01b90910416151560c082015260079091015460e09091015284518590849081106111d6576111d6612ce5565b602002602001018190525081806111ec90612deb565b9250505b806111fa81612deb565b915050610f55565b50505090565b6112106125e3565b60056000838152602001908152602001600020604051806101600160405290816000820154815260200160018201805461124990612db0565b80601f016020809104026020016040519081016040528092919081815260200182805461127590612db0565b80156112c25780601f10611297576101008083540402835291602001916112c2565b820191906000526020600020905b8154815290600101906020018083116112a557829003601f168201915b505050505081526020016002820180546112db90612db0565b80601f016020809104026020016040519081016040528092919081815260200182805461130790612db0565b80156113545780601f1061132957610100808354040283529160200191611354565b820191906000526020600020905b81548152906001019060200180831161133757829003601f168201915b5050505050815260200160038201805461136d90612db0565b80601f016020809104026020016040519081016040528092919081815260200182805461139990612db0565b80156113e65780601f106113bb576101008083540402835291602001916113e6565b820191906000526020600020905b8154815290600101906020018083116113c957829003601f168201915b5050509183525050600482015460208201526005820154604082015260068201546001600160a01b038116606083015260ff600160a01b8204811615156080840152600160a81b82048116151560a0840152600160b01b90910416151560c082015260079091015460e09091015292915050565b60008681526008602052604090205460ff1615156001146114b45760405162461bcd60e51b8152602060048201526014602482015273105c1c185c9d1b595b9d081b9bdd08199bdd5b9960621b60448201526064016104e3565b6000868152600560205260409020600601546001600160a01b031633146115285760405162461bcd60e51b815260206004820152602260248201527f556e617574686f72697a656420706572736f6e6e656c2c206f776e6572206f6e6044820152616c7960f01b60648201526084016104e3565b60008551116115705760405162461bcd60e51b81526020600482015260146024820152734e616d652063616e6e6f7420626520656d70747960601b60448201526064016104e3565b60008451116115c15760405162461bcd60e51b815260206004820152601b60248201527f4465736372697074696f6e2063616e6e6f7420626520656d707479000000000060448201526064016104e3565b600083511161160b5760405162461bcd60e51b8152602060048201526016602482015275496d616765732063616e6e6f7420626520656d70747960501b60448201526064016104e3565b600082116116525760405162461bcd60e51b8152602060048201526014602482015273526f6f6d732063616e6e6f74206265207a65726f60601b60448201526064016104e3565b600081116116995760405162461bcd60e51b815260206004820152601460248201527350726963652063616e6e6f74206265207a65726f60601b60448201526064016104e3565b60006005600088815260200190815260200160002060405180610160016040529081600082015481526020016001820180546116d490612db0565b80601f016020809104026020016040519081016040528092919081815260200182805461170090612db0565b801561174d5780601f106117225761010080835404028352916020019161174d565b820191906000526020600020905b81548152906001019060200180831161173057829003601f168201915b5050505050815260200160028201805461176690612db0565b80601f016020809104026020016040519081016040528092919081815260200182805461179290612db0565b80156117df5780601f106117b4576101008083540402835291602001916117df565b820191906000526020600020905b8154815290600101906020018083116117c257829003601f168201915b505050505081526020016003820180546117f890612db0565b80601f016020809104026020016040519081016040528092919081815260200182805461182490612db0565b80156118715780601f1061184657610100808354040283529160200191611871565b820191906000526020600020905b81548152906001019060200180831161185457829003601f168201915b5050509183525050600482015460208083019190915260058084015460408085019190915260068501546001600160a01b03811660608087019190915260ff600160a01b830481161515608080890191909152600160a81b84048216151560a0808a0191909152600160b01b909404909116151560c088015260079097015460e0909601959095528684018d81528783018d90529487018b905294860189905293850187905260008c8152908252929092208351815590518051939450849391926119449260018501929091019061255f565b506040820151805161196091600284019160209091019061255f565b506060820151805161197c91600384019160209091019061255f565b506080820151600482015560a0820151600582015560c082015160068201805460e08501516101008601516101208701511515600160b01b0260ff60b01b19911515600160a81b029190911661ffff60a81b19921515600160a01b026001600160a81b03199094166001600160a01b03909616959095179290921716929092179190911790556101409091015160079091015550505050505050565b600081815260096020908152604091829020805483518184028101840190945280845260609392830182828015611a6e57602002820191906000526020600020905b815481526020019060010190808311611a5a575b50505050509050919050565b60008181526008602052604090205460ff161515600114611ad45760405162461bcd60e51b8152602060048201526014602482015273105c1c185c9d1b595b9d081b9bdd08199bdd5b9960621b60448201526064016104e3565b6000818152600560205260409020600601546001600160a01b03163314611b335760405162461bcd60e51b8152602060048201526013602482015272556e617574686f72697a656420656e7469747960681b60448201526064016104e3565b6000908152600860209081526040808320805460ff1916905560059091529020600601805460ff60a81b1916600160a81b179055565b60008281526008602052604090205460ff16611bbe5760405162461bcd60e51b815260206004820152601460248201527341706172746d656e74206e6f7420666f756e642160601b60448201526064016104e3565b600354815160008481526005602081905260409091200154611be09190612d58565b611bea9190612e06565b341015611c2e5760405162461bcd60e51b8152602060048201526012602482015271496e73756666696369656e742066756e642160701b60448201526064016104e3565b611c38828261245c565b611c845760405162461bcd60e51b815260206004820152601e60248201527f426f6f6b6564206461746520666f756e6420616d6f6e6720646174657321000060448201526064016104e3565b60005b8151811015611e1e57611c9861251c565b600084815260066020908152604090912054825233908201528251839083908110611cc557611cc5612ce5565b60209081029190910181015160408084019182526000878152600580855282822081015460608701908152898352600686528383208054600181810183559185528785208951919094029093019283558787015183820180546001600160a01b039092166001600160a01b03199092169190911790559451600283015551600382015560808601516004909101805460a088015115156101000261ff00199315159390931661ffff1990911617919091179055878152600a9093528220855191929091869086908110611d9a57611d9a612ce5565b6020026020010151815260200190815260200160002060006101000a81548160ff02191690831515021790555060096000858152602001908152602001600020838381518110611dec57611dec612ce5565b602090810291909101810151825460018101845560009384529190922001555080611e1681612deb565b915050611c87565b505050565b60026001541415611e765760405162461bcd60e51b815260206004820152601f60248201527f5265656e7472616e637947756172643a207265656e7472616e742063616c6c0060448201526064016104e3565b60026001556000838152600660205260409020805483908110611e9b57611e9b612ce5565b600091825260209091206004600590920201015460ff1615611ecf5760405162461bcd60e51b81526004016104e390612cfb565b6000546001600160a01b03163314611ffd576000838152600660205260409020805483908110611f0157611f01612ce5565b60009182526020909120600590910201600101546001600160a01b03163314611f635760405162461bcd60e51b8152602060048201526014602482015273556e617574686f72697a65642074656e616e742160601b60448201526064016104e3565b611f6b612501565b6000848152600660205260409020805484908110611f8b57611f8b612ce5565b90600052602060002090600502016002015411611ffd5760405162461bcd60e51b815260206004820152602a60248201527f43616e206e6f206c6f6e67657220726566756e642c20626f6f6b696e672064616044820152691d19481cdd185c9d195960b21b60648201526084016104e3565b60008381526006602052604090208054600191908490811061202157612021612ce5565b6000918252602080832060046005909302019190910180549315156101000261ff001990941693909317909255848152600a825260408082208483528352808220805460ff1916905585825260099092529081205461208290600190612d99565b600085815260096020526040812080549293509091839081106120a7576120a7612ce5565b90600052602060002001549050806009600087815260200190815260200160002085815481106120d9576120d9612ce5565b90600052602060002001819055506009600086815260200190815260200160002080548061210957612109612e1e565b60019003818190600052602060002001600090559055600060066000878152602001908152602001600020858154811061214557612145612ce5565b90600052602060002090600502016003015490506000606460045460035461216d9190612d58565b6121779190612d77565b6000888152600560205260409020600601546003549192506121aa916001600160a01b03909116906105bc908490612d99565b6121bf6105d66000546001600160a01b031690565b6121c93383612352565b5050600180555050505050565b6121de6123b2565b600455565b6121eb6123b2565b6001600160a01b0381166122505760405162461bcd60e51b815260206004820152602660248201527f4f776e61626c653a206e6577206f776e657220697320746865207a65726f206160448201526564647265737360d01b60648201526084016104e3565b6122598161240c565b50565b606060066000838152602001908152602001600020805480602002602001604051908101604052809291908181526020016000905b82821015610bc85760008481526020908190206040805160c08101825260058602909201805483526001808201546001600160a01b031684860152600282015492840192909252600381015460608401526004015460ff8082161515608085015261010090910416151560a08301529083529092019101612291565b6000612317612501565b600084815260066020526040902080548490811061233757612337612ce5565b90600052602060002090600502016002015410905092915050565b6000826001600160a01b03168260405160006040518083038185875af1925050503d806000811461239f576040519150601f19603f3d011682016040523d82523d6000602084013e6123a4565b606091505b5050905080611e1e57600080fd5b6000546001600160a01b031633146108de5760405162461bcd60e51b815260206004820181905260248201527f4f776e61626c653a2063616c6c6572206973206e6f7420746865206f776e657260448201526064016104e3565b600080546001600160a01b038381166001600160a01b0319831681178455604051919092169283917f8be0079c531659141344cd1fd0a4f28419497f9722a3daafe3b4186f6b6457e09190a35050565b60006001815b83518110156124f95760005b6000868152600960205260409020548110156124e65760008681526009602052604090208054829081106124a4576124a4612ce5565b90600052602060002001548583815181106124c1576124c1612ce5565b602002602001015114156124d457600092505b806124de81612deb565b91505061246e565b50806124f181612deb565b915050612462565b509392505050565b600080612510426103e8612d58565b610682906103e8612e06565b6040518060c001604052806000815260200160006001600160a01b0316815260200160008152602001600081526020016000151581526020016000151581525090565b82805461256b90612db0565b90600052602060002090601f01602090048101928261258d57600085556125d3565b82601f106125a657805160ff19168380011785556125d3565b828001600101855582156125d3579182015b828111156125d35782518255916020019190600101906125b8565b506125df92915061264c565b5090565b60405180610160016040528060008152602001606081526020016060815260200160608152602001600081526020016000815260200160006001600160a01b03168152602001600015158152602001600015158152602001600015158152602001600081525090565b5b808211156125df576000815560010161264d565b6000806040838503121561267457600080fd5b50508035926020909101359150565b805182526020808201516001600160a01b031690830152604080820151908301526060808201519083015260808082015115159083015260a0908101511515910152565b60c081016106828284612683565b634e487b7160e01b600052604160045260246000fd5b604051601f8201601f1916810167ffffffffffffffff81118282101715612714576127146126d5565b604052919050565b600082601f83011261272d57600080fd5b813567ffffffffffffffff811115612747576127476126d5565b61275a601f8201601f19166020016126eb565b81815284602083860101111561276f57600080fd5b816020850160208301376000918101602001919091529392505050565b6000806040838503121561279f57600080fd5b82359150602083013567ffffffffffffffff8111156127bd57600080fd5b6127c98582860161271c565b9150509250929050565b6000602082840312156127e557600080fd5b5035919050565b6000815180845260005b81811015612812576020818501810151868301820152016127f6565b81811115612824576000602083870101525b50601f01601f19169290920160200192915050565b60006020808301818452808551808352604092508286019150828160051b87010184880160005b838110156128c957603f19898403018552815160a0815185528882015189860152878201518189870152612896828701826127ec565b606084810151908801526080938401516001600160a01b0316939096019290925250509386019390860190600101612860565b509098975050505050505050565b600080600080600060a086880312156128ef57600080fd5b853567ffffffffffffffff8082111561290757600080fd5b61291389838a0161271c565b9650602088013591508082111561292957600080fd5b61293589838a0161271c565b9550604088013591508082111561294b57600080fd5b506129588882890161271c565b9598949750949560608101359550608001359392505050565b6000610160825184526020830151816020860152612991828601826127ec565b915050604083015184820360408601526129ab82826127ec565b915050606083015184820360608601526129c582826127ec565b9150506080830151608085015260a083015160a085015260c08301516129f660c08601826001600160a01b03169052565b5060e0830151612a0a60e086018215159052565b5061010083810151151590850152610120808401511515908501526101409283015192909301919091525090565b6000602080830181845280855180835260408601915060408160051b870101925083870160005b82811015612a8d57603f19888603018452612a7b858351612971565b94509285019290850190600101612a5f565b5092979650505050505050565b602081526000612aad6020830184612971565b9392505050565b60008060008060008060c08789031215612acd57600080fd5b86359550602087013567ffffffffffffffff80821115612aec57600080fd5b612af88a838b0161271c565b96506040890135915080821115612b0e57600080fd5b612b1a8a838b0161271c565b95506060890135915080821115612b3057600080fd5b50612b3d89828a0161271c565b9350506080870135915060a087013590509295509295509295565b6020808252825182820181905260009190848201906040850190845b81811015612b9057835183529284019291840191600101612b74565b50909695505050505050565b60008060408385031215612baf57600080fd5b8235915060208084013567ffffffffffffffff80821115612bcf57600080fd5b818601915086601f830112612be357600080fd5b813581811115612bf557612bf56126d5565b8060051b9150612c068483016126eb565b8181529183018401918481019089841115612c2057600080fd5b938501935b83851015612c3e57843582529385019390850190612c25565b8096505050505050509250929050565b600080600060608486031215612c6357600080fd5b505081359360208301359350604090920135919050565b600060208284031215612c8c57600080fd5b81356001600160a01b0381168114612aad57600080fd5b6020808252825182820181905260009190848201906040850190845b81811015612b9057612cd2838551612683565b9284019260c09290920191600101612cbf565b634e487b7160e01b600052603260045260246000fd5b60208082526027908201527f41706172746d656e7420616c726561647920636865636b6564206f6e207468696040820152667320646174652160c81b606082015260800190565b634e487b7160e01b600052601160045260246000fd5b6000816000190483118215151615612d7257612d72612d42565b500290565b600082612d9457634e487b7160e01b600052601260045260246000fd5b500490565b600082821015612dab57612dab612d42565b500390565b600181811c90821680612dc457607f821691505b60208210811415612de557634e487b7160e01b600052602260045260246000fd5b50919050565b6000600019821415612dff57612dff612d42565b5060010190565b60008219821115612e1957612e19612d42565b500190565b634e487b7160e01b600052603160045260246000fdfea26469706673582212200de3860c4c6cc194b5786e5a3d301f69b435a54b28a73ac2f30f6ecd16de1c0d64736f6c634300080b0033",
  "linkReferences": {},
  "deployedLinkReferences": {}
}