{
  "_format": "hh-sol-artifact-1",
  "contractName": "DappBnb",
  "sourceName": "src/contracts/DappBnb.sol",
  "abi": [
    {
      "inputs": [
        {
          "internalType": "uint256",
          "name": "",
          "type": "uint256"
        }
      ],
      "name": "apartments",
      "outputs": [
        {
          "internalType": "uint256",
          "name": "id",
          "type": "uint256"
        },
        {
          "internalType": "string",
          "name": "name",
          "type": "string"
        },
        {
          "internalType": "string",
          "name": "description",
          "type": "string"
        },
        {
          "internalType": "string",
          "name": "images",
          "type": "string"
        },
        {
          "internalType": "uint256",
          "name": "rooms",
          "type": "uint256"
        },
        {
          "internalType": "uint256",
          "name": "price",
          "type": "uint256"
        },
        {
          "internalType": "address",
          "name": "owner",
          "type": "address"
        },
        {
          "internalType": "bool",
          "name": "booked",
          "type": "bool"
        },
        {
          "internalType": "bool",
          "name": "deleted",
          "type": "bool"
        },
        {
          "internalType": "uint256",
          "name": "timestamp",
          "type": "uint256"
        }
      ],
      "stateMutability": "view",
      "type": "function"
    },
    {
      "inputs": [
        {
          "internalType": "string",
          "name": "name",
          "type": "string"
        },
        {
          "internalType": "string",
          "name": "description",
          "type": "string"
        },
        {
          "internalType": "string",
          "name": "images",
          "type": "string"
        },
        {
          "internalType": "uint256",
          "name": "rooms",
          "type": "uint256"
        },
        {
          "internalType": "uint256",
          "name": "price",
          "type": "uint256"
        }
      ],
      "name": "createAppartment",
      "outputs": [],
      "stateMutability": "nonpayable",
      "type": "function"
    },
    {
      "inputs": [
        {
          "internalType": "uint256",
          "name": "id",
          "type": "uint256"
        }
      ],
      "name": "deleteAppartment",
      "outputs": [],
      "stateMutability": "nonpayable",
      "type": "function"
    },
    {
      "inputs": [],
      "name": "getApartments",
      "outputs": [
        {
          "components": [
            {
              "internalType": "uint256",
              "name": "id",
              "type": "uint256"
            },
            {
              "internalType": "string",
              "name": "name",
              "type": "string"
            },
            {
              "internalType": "string",
              "name": "description",
              "type": "string"
            },
            {
              "internalType": "string",
              "name": "images",
              "type": "string"
            },
            {
              "internalType": "uint256",
              "name": "rooms",
              "type": "uint256"
            },
            {
              "internalType": "uint256",
              "name": "price",
              "type": "uint256"
            },
            {
              "internalType": "address",
              "name": "owner",
              "type": "address"
            },
            {
              "internalType": "bool",
              "name": "booked",
              "type": "bool"
            },
            {
              "internalType": "bool",
              "name": "deleted",
              "type": "bool"
            },
            {
              "internalType": "uint256",
              "name": "timestamp",
              "type": "uint256"
            }
          ],
          "internalType": "struct DappBnb.ApartmentStruct[]",
          "name": "",
          "type": "tuple[]"
        }
      ],
      "stateMutability": "view",
      "type": "function"
    },
    {
      "inputs": [],
      "name": "totalAppartments",
      "outputs": [
        {
          "internalType": "uint256",
          "name": "",
          "type": "uint256"
        }
      ],
      "stateMutability": "view",
      "type": "function"
    },
    {
      "inputs": [
        {
          "internalType": "uint256",
          "name": "id",
          "type": "uint256"
        },
        {
          "internalType": "string",
          "name": "name",
          "type": "string"
        },
        {
          "internalType": "string",
          "name": "description",
          "type": "string"
        },
        {
          "internalType": "string",
          "name": "images",
          "type": "string"
        },
        {
          "internalType": "uint256",
          "name": "rooms",
          "type": "uint256"
        },
        {
          "internalType": "uint256",
          "name": "price",
          "type": "uint256"
        }
      ],
      "name": "updateAppartment",
      "outputs": [],
      "stateMutability": "nonpayable",
      "type": "function"
    }
  ],
  "bytecode": "0x608060405234801561001057600080fd5b506114bd806100206000396000f3fe608060405234801561001057600080fd5b50600436106100625760003560e01c8063abb8be1714610067578063ade652db14610099578063b1c98099146100ae578063d5ea1cb8146100c3578063dec30d39146100d6578063e629ca51146100e9575b600080fd5b61007a610075366004610fff565b610100565b6040516100909a99989796959493929190611065565b60405180910390f35b6100ac6100a736600461118c565b61030d565b005b6100b661066b565b6040516100909190611226565b6100ac6100d1366004611327565b6108e5565b6100ac6100e4366004610fff565b610e7b565b6100f260005481565b604051908152602001610090565b6001818154811061011057600080fd5b60009182526020909120600890910201805460018201805491935090610135906113cb565b80601f0160208091040260200160405190810160405280929190818152602001828054610161906113cb565b80156101ae5780601f10610183576101008083540402835291602001916101ae565b820191906000526020600020905b81548152906001019060200180831161019157829003601f168201915b5050505050908060020180546101c3906113cb565b80601f01602080910402602001604051908101604052809291908181526020018280546101ef906113cb565b801561023c5780601f106102115761010080835404028352916020019161023c565b820191906000526020600020905b81548152906001019060200180831161021f57829003601f168201915b505050505090806003018054610251906113cb565b80601f016020809104026020016040519081016040528092919081815260200182805461027d906113cb565b80156102ca5780601f1061029f576101008083540402835291602001916102ca565b820191906000526020600020905b8154815290600101906020018083116102ad57829003601f168201915b505050600484015460058501546006860154600790960154949591949093506001600160a01b038216925060ff600160a01b8304811692600160a81b900416908a565b600085511161035a5760405162461bcd60e51b81526020600482015260146024820152734e616d652063616e6e6f7420626520656d70747960601b60448201526064015b60405180910390fd5b60008451116103ab5760405162461bcd60e51b815260206004820152601b60248201527f4465736372697074696f6e2063616e6e6f7420626520656d70747900000000006044820152606401610351565b60008351116103f55760405162461bcd60e51b8152602060048201526016602482015275496d616765732063616e6e6f7420626520656d70747960501b6044820152606401610351565b6000821161043c5760405162461bcd60e51b8152602060048201526014602482015273526f6f6d732063616e6e6f74206265207a65726f60601b6044820152606401610351565b600081116104835760405162461bcd60e51b815260206004820152601460248201527350726963652063616e6e6f74206265207a65726f60601b6044820152606401610351565b6104e660405180610140016040528060008152602001606081526020016060815260200160608152602001600081526020016000815260200160006001600160a01b03168152602001600015158152602001600015158152602001600081525090565b6000805490806104f583611406565b909155508152602080820187815260408301879052606083018690526080830185905260a083018490523360c08401524261012084015260018054808201825560009190915283517fb10e2d527612073b26eecdfd717e6a320cf44b4afac2b0732d9fcbe2b7fa0cf6600890920291820190815591518051859461059d937fb10e2d527612073b26eecdfd717e6a320cf44b4afac2b0732d9fcbe2b7fa0cf701920190610f66565b50604082015180516105b9916002840191602090910190610f66565b50606082015180516105d5916003840191602090910190610f66565b506080820151600482015560a0820151600582015560c082015160068201805460e08501516101008601511515600160a81b0260ff60a81b19911515600160a01b026001600160a81b03199093166001600160a01b0390951694909417919091171691909117905561012090910151600790910155516000908152600260205260409020805460ff191660011790555050505050565b60606001805480602002602001604051908101604052809291908181526020016000905b828210156108dc578382906000526020600020906008020160405180610140016040529081600082015481526020016001820180546106cd906113cb565b80601f01602080910402602001604051908101604052809291908181526020018280546106f9906113cb565b80156107465780601f1061071b57610100808354040283529160200191610746565b820191906000526020600020905b81548152906001019060200180831161072957829003601f168201915b5050505050815260200160028201805461075f906113cb565b80601f016020809104026020016040519081016040528092919081815260200182805461078b906113cb565b80156107d85780601f106107ad576101008083540402835291602001916107d8565b820191906000526020600020905b8154815290600101906020018083116107bb57829003601f168201915b505050505081526020016003820180546107f1906113cb565b80601f016020809104026020016040519081016040528092919081815260200182805461081d906113cb565b801561086a5780601f1061083f5761010080835404028352916020019161086a565b820191906000526020600020905b81548152906001019060200180831161084d57829003601f168201915b505050918352505060048201546020808301919091526005830154604083015260068301546001600160a01b038116606084015260ff600160a01b8204811615156080850152600160a81b90910416151560a083015260079092015460c090910152908252600192909201910161068f565b50505050905090565b60008681526002602052604090205460ff1661093a5760405162461bcd60e51b8152602060048201526014602482015273105c1c185c9d1b595b9d081b9bdd08199bdd5b9960621b6044820152606401610351565b336001600160a01b0316600187815481106109575761095761142f565b60009182526020909120600660089092020101546001600160a01b0316146109915760405162461bcd60e51b815260040161035190611445565b60008551116109d95760405162461bcd60e51b81526020600482015260146024820152734e616d652063616e6e6f7420626520656d70747960601b6044820152606401610351565b6000845111610a2a5760405162461bcd60e51b815260206004820152601b60248201527f4465736372697074696f6e2063616e6e6f7420626520656d70747900000000006044820152606401610351565b6000835111610a745760405162461bcd60e51b8152602060048201526016602482015275496d616765732063616e6e6f7420626520656d70747960501b6044820152606401610351565b60008211610abb5760405162461bcd60e51b8152602060048201526014602482015273526f6f6d732063616e6e6f74206265207a65726f60601b6044820152606401610351565b60008111610b025760405162461bcd60e51b815260206004820152601460248201527350726963652063616e6e6f74206265207a65726f60601b6044820152606401610351565b600060018781548110610b1757610b1761142f565b90600052602060002090600802016040518061014001604052908160008201548152602001600182018054610b4b906113cb565b80601f0160208091040260200160405190810160405280929190818152602001828054610b77906113cb565b8015610bc45780601f10610b9957610100808354040283529160200191610bc4565b820191906000526020600020905b815481529060010190602001808311610ba757829003601f168201915b50505050508152602001600282018054610bdd906113cb565b80601f0160208091040260200160405190810160405280929190818152602001828054610c09906113cb565b8015610c565780601f10610c2b57610100808354040283529160200191610c56565b820191906000526020600020905b815481529060010190602001808311610c3957829003601f168201915b50505050508152602001600382018054610c6f906113cb565b80601f0160208091040260200160405190810160405280929190818152602001828054610c9b906113cb565b8015610ce85780601f10610cbd57610100808354040283529160200191610ce8565b820191906000526020600020905b815481529060010190602001808311610ccb57829003601f168201915b50505091835250506004820154602080830191909152600583015460408084019190915260068401546001600160a01b03811660608086019190915260ff600160a01b830481161515608080880191909152600160a81b90930416151560a08087019190915260079096015460c0909501949094529185018b905284018990529083018790528201859052810183905260018054919250829189908110610d9157610d9161142f565b9060005260206000209060080201600082015181600001556020820151816001019080519060200190610dc5929190610f66565b5060408201518051610de1916002840191602090910190610f66565b5060608201518051610dfd916003840191602090910190610f66565b506080820151600482015560a0820151600582015560c082015160068201805460e08501516101008601511515600160a81b0260ff60a81b19911515600160a01b026001600160a81b03199093166001600160a01b039095169490941791909117169190911790556101209091015160079091015550505050505050565b60008181526002602052604090205460ff16610ed05760405162461bcd60e51b8152602060048201526014602482015273105c1c185c9d1b595b9d081b9bdd08199bdd5b9960621b6044820152606401610351565b336001600160a01b031660018281548110610eed57610eed61142f565b60009182526020909120600660089092020101546001600160a01b031614610f275760405162461bcd60e51b815260040161035190611445565b6001808281548110610f3b57610f3b61142f565b906000526020600020906008020160060160156101000a81548160ff02191690831515021790555050565b828054610f72906113cb565b90600052602060002090601f016020900481019282610f945760008555610fda565b82601f10610fad57805160ff1916838001178555610fda565b82800160010185558215610fda579182015b82811115610fda578251825591602001919060010190610fbf565b50610fe6929150610fea565b5090565b5b80821115610fe65760008155600101610feb565b60006020828403121561101157600080fd5b5035919050565b6000815180845260005b8181101561103e57602081850181015186830182015201611022565b81811115611050576000602083870101525b50601f01601f19169290920160200192915050565b60006101408c835280602084015261107f8184018d611018565b90508281036040840152611093818c611018565b905082810360608401526110a7818b611018565b6080840199909952505060a08101959095526001600160a01b039390931660c085015290151560e0840152151561010083015261012090910152949350505050565b634e487b7160e01b600052604160045260246000fd5b600082601f83011261111057600080fd5b813567ffffffffffffffff8082111561112b5761112b6110e9565b604051601f8301601f19908116603f01168101908282118183101715611153576111536110e9565b8160405283815286602085880101111561116c57600080fd5b836020870160208301376000602085830101528094505050505092915050565b600080600080600060a086880312156111a457600080fd5b853567ffffffffffffffff808211156111bc57600080fd5b6111c889838a016110ff565b965060208801359150808211156111de57600080fd5b6111ea89838a016110ff565b9550604088013591508082111561120057600080fd5b5061120d888289016110ff565b9598949750949560608101359550608001359392505050565b60006020808301818452808551808352604092508286019150828160051b87010184880160005b8381101561131957603f1989840301855281516101408151855288820151818a87015261127c82870182611018565b91505087820151858203898701526112948282611018565b915050606080830151868303828801526112ae8382611018565b92505050608080830151818701525060a080830151818701525060c0808301516112e2828801826001600160a01b03169052565b505060e08281015115159086015261010080830151151590860152610120918201519190940152938601939086019060010161124d565b509098975050505050505050565b60008060008060008060c0878903121561134057600080fd5b86359550602087013567ffffffffffffffff8082111561135f57600080fd5b61136b8a838b016110ff565b9650604089013591508082111561138157600080fd5b61138d8a838b016110ff565b955060608901359150808211156113a357600080fd5b506113b089828a016110ff565b9350506080870135915060a087013590509295509295509295565b600181811c908216806113df57607f821691505b6020821081141561140057634e487b7160e01b600052602260045260246000fd5b50919050565b600060001982141561142857634e487b7160e01b600052601160045260246000fd5b5060010190565b634e487b7160e01b600052603260045260246000fd5b60208082526022908201527f556e617574686f72697a656420706572736f6e6e656c2c206f776e6572206f6e6040820152616c7960f01b60608201526080019056fea26469706673582212207687e370d990100c30f740ac078ed1c5ad1dc8f94b4c06b101496af759151d5b64736f6c634300080b0033",
  "linkReferences": {},
  "deployedLinkReferences": {}
}