{
  "_format": "hh-sol-artifact-1",
  "contractName": "DappBnb",
  "sourceName": "src/contracts/DappBnb.sol",
  "abi": [
    {
      "inputs": [
        {
          "internalType": "uint256",
          "name": "_taxPercent",
          "type": "uint256"
        },
        {
          "internalType": "uint256",
          "name": "_securityFee",
          "type": "uint256"
        }
      ],
      "stateMutability": "nonpayable",
      "type": "constructor"
    },
    {
      "anonymous": false,
      "inputs": [
        {
          "indexed": false,
          "internalType": "uint256",
          "name": "newFee",
          "type": "uint256"
        }
      ],
      "name": "SecurityFeeUpdated",
      "type": "event"
    },
    {
      "inputs": [
        {
          "internalType": "uint256",
          "name": "appartmentId",
          "type": "uint256"
        },
        {
          "internalType": "string",
          "name": "reviewText",
          "type": "string"
        }
      ],
      "name": "addReview",
      "outputs": [
        {
          "internalType": "bool",
          "name": "",
          "type": "bool"
        }
      ],
      "stateMutability": "nonpayable",
      "type": "function"
    },
    {
      "inputs": [
        {
          "internalType": "uint256",
          "name": "id",
          "type": "uint256"
        },
        {
          "internalType": "uint256[]",
          "name": "selected_dates",
          "type": "uint256[]"
        },
        {
          "internalType": "uint256",
          "name": "start_date",
          "type": "uint256"
        }
      ],
      "name": "bookApartment",
      "outputs": [
        {
          "internalType": "bool",
          "name": "",
          "type": "bool"
        }
      ],
      "stateMutability": "payable",
      "type": "function"
    },
    {
      "inputs": [
        {
          "internalType": "uint256",
          "name": "",
          "type": "uint256"
        },
        {
          "internalType": "uint256",
          "name": "",
          "type": "uint256"
        }
      ],
      "name": "bookingsByDate",
      "outputs": [
        {
          "internalType": "uint256",
          "name": "id",
          "type": "uint256"
        },
        {
          "internalType": "address",
          "name": "tenant",
          "type": "address"
        },
        {
          "internalType": "uint256",
          "name": "selected_date",
          "type": "uint256"
        },
        {
          "internalType": "uint256",
          "name": "price",
          "type": "uint256"
        },
        {
          "internalType": "bool",
          "name": "checked",
          "type": "bool"
        },
        {
          "internalType": "uint256",
          "name": "start_date",
          "type": "uint256"
        },
        {
          "internalType": "bool",
          "name": "cancelled",
          "type": "bool"
        }
      ],
      "stateMutability": "view",
      "type": "function"
    },
    {
      "inputs": [
        {
          "internalType": "uint256",
          "name": "id",
          "type": "uint256"
        },
        {
          "internalType": "uint256",
          "name": "bookingId",
          "type": "uint256"
        }
      ],
      "name": "checkInApartment",
      "outputs": [
        {
          "internalType": "bool",
          "name": "",
          "type": "bool"
        }
      ],
      "stateMutability": "nonpayable",
      "type": "function"
    },
    {
      "inputs": [
        {
          "internalType": "string",
          "name": "name",
          "type": "string"
        },
        {
          "internalType": "string",
          "name": "description",
          "type": "string"
        },
        {
          "internalType": "string",
          "name": "image",
          "type": "string"
        },
        {
          "internalType": "uint256",
          "name": "rooms",
          "type": "uint256"
        },
        {
          "internalType": "uint256",
          "name": "price",
          "type": "uint256"
        }
      ],
      "name": "createAppartment",
      "outputs": [],
      "stateMutability": "nonpayable",
      "type": "function"
    },
    {
      "inputs": [
        {
          "internalType": "uint256",
          "name": "",
          "type": "uint256"
        },
        {
          "internalType": "uint256",
          "name": "",
          "type": "uint256"
        }
      ],
      "name": "dateAvailability",
      "outputs": [
        {
          "internalType": "bool",
          "name": "",
          "type": "bool"
        }
      ],
      "stateMutability": "view",
      "type": "function"
    },
    {
      "inputs": [
        {
          "internalType": "uint256",
          "name": "id",
          "type": "uint256"
        }
      ],
      "name": "deleteAppartment",
      "outputs": [
        {
          "internalType": "bool",
          "name": "",
          "type": "bool"
        }
      ],
      "stateMutability": "nonpayable",
      "type": "function"
    },
    {
      "inputs": [],
      "name": "getApartments",
      "outputs": [
        {
          "components": [
            {
              "internalType": "uint256",
              "name": "id",
              "type": "uint256"
            },
            {
              "internalType": "string",
              "name": "name",
              "type": "string"
            },
            {
              "internalType": "string",
              "name": "description",
              "type": "string"
            },
            {
              "internalType": "string",
              "name": "image",
              "type": "string"
            },
            {
              "internalType": "uint256",
              "name": "rooms",
              "type": "uint256"
            },
            {
              "internalType": "uint256",
              "name": "price",
              "type": "uint256"
            },
            {
              "internalType": "address",
              "name": "owner",
              "type": "address"
            },
            {
              "internalType": "bool",
              "name": "booked",
              "type": "bool"
            },
            {
              "internalType": "bool",
              "name": "deleted",
              "type": "bool"
            },
            {
              "internalType": "bool",
              "name": "availablity",
              "type": "bool"
            },
            {
              "internalType": "uint256",
              "name": "timestamp",
              "type": "uint256"
            }
          ],
          "internalType": "struct DappBnb.ApartmentStruct[]",
          "name": "appartments",
          "type": "tuple[]"
        }
      ],
      "stateMutability": "view",
      "type": "function"
    },
    {
      "inputs": [
        {
          "internalType": "uint256",
          "name": "id",
          "type": "uint256"
        }
      ],
      "name": "getAppartment",
      "outputs": [
        {
          "components": [
            {
              "internalType": "uint256",
              "name": "id",
              "type": "uint256"
            },
            {
              "internalType": "string",
              "name": "name",
              "type": "string"
            },
            {
              "internalType": "string",
              "name": "description",
              "type": "string"
            },
            {
              "internalType": "string",
              "name": "image",
              "type": "string"
            },
            {
              "internalType": "uint256",
              "name": "rooms",
              "type": "uint256"
            },
            {
              "internalType": "uint256",
              "name": "price",
              "type": "uint256"
            },
            {
              "internalType": "address",
              "name": "owner",
              "type": "address"
            },
            {
              "internalType": "bool",
              "name": "booked",
              "type": "bool"
            },
            {
              "internalType": "bool",
              "name": "deleted",
              "type": "bool"
            },
            {
              "internalType": "bool",
              "name": "availablity",
              "type": "bool"
            },
            {
              "internalType": "uint256",
              "name": "timestamp",
              "type": "uint256"
            }
          ],
          "internalType": "struct DappBnb.ApartmentStruct",
          "name": "",
          "type": "tuple"
        }
      ],
      "stateMutability": "view",
      "type": "function"
    },
    {
      "inputs": [
        {
          "internalType": "uint256",
          "name": "id",
          "type": "uint256"
        }
      ],
      "name": "getBookings",
      "outputs": [
        {
          "components": [
            {
              "internalType": "uint256",
              "name": "id",
              "type": "uint256"
            },
            {
              "internalType": "address",
              "name": "tenant",
              "type": "address"
            },
            {
              "internalType": "uint256",
              "name": "selected_date",
              "type": "uint256"
            },
            {
              "internalType": "uint256",
              "name": "price",
              "type": "uint256"
            },
            {
              "internalType": "bool",
              "name": "checked",
              "type": "bool"
            },
            {
              "internalType": "uint256",
              "name": "start_date",
              "type": "uint256"
            },
            {
              "internalType": "bool",
              "name": "cancelled",
              "type": "bool"
            }
          ],
          "internalType": "struct DappBnb.BookingStruct[]",
          "name": "",
          "type": "tuple[]"
        }
      ],
      "stateMutability": "view",
      "type": "function"
    },
    {
      "inputs": [
        {
          "internalType": "uint256",
          "name": "appartmentId",
          "type": "uint256"
        }
      ],
      "name": "getReviews",
      "outputs": [
        {
          "components": [
            {
              "internalType": "uint256",
              "name": "id",
              "type": "uint256"
            },
            {
              "internalType": "uint256",
              "name": "appartmentId",
              "type": "uint256"
            },
            {
              "internalType": "string",
              "name": "reviewText",
              "type": "string"
            },
            {
              "internalType": "uint256",
              "name": "timestamp",
              "type": "uint256"
            },
            {
              "internalType": "address",
              "name": "owner",
              "type": "address"
            }
          ],
          "internalType": "struct DappBnb.ReviewStruct[]",
          "name": "",
          "type": "tuple[]"
        }
      ],
      "stateMutability": "view",
      "type": "function"
    },
    {
      "inputs": [
        {
          "internalType": "uint256",
          "name": "id",
          "type": "uint256"
        }
      ],
      "name": "getUnavailableDates",
      "outputs": [
        {
          "internalType": "uint256[]",
          "name": "unavailableDates",
          "type": "uint256[]"
        }
      ],
      "stateMutability": "view",
      "type": "function"
    },
    {
      "inputs": [],
      "name": "owner",
      "outputs": [
        {
          "internalType": "address",
          "name": "",
          "type": "address"
        }
      ],
      "stateMutability": "view",
      "type": "function"
    },
    {
      "inputs": [
        {
          "internalType": "uint256",
          "name": "id",
          "type": "uint256"
        },
        {
          "internalType": "uint256",
          "name": "bookingId",
          "type": "uint256"
        },
        {
          "internalType": "uint256",
          "name": "selected_date",
          "type": "uint256"
        }
      ],
      "name": "refundBooking",
      "outputs": [
        {
          "internalType": "bool",
          "name": "",
          "type": "bool"
        }
      ],
      "stateMutability": "nonpayable",
      "type": "function"
    },
    {
      "inputs": [],
      "name": "securityFee",
      "outputs": [
        {
          "internalType": "uint256",
          "name": "",
          "type": "uint256"
        }
      ],
      "stateMutability": "view",
      "type": "function"
    },
    {
      "inputs": [],
      "name": "taxPercent",
      "outputs": [
        {
          "internalType": "uint256",
          "name": "",
          "type": "uint256"
        }
      ],
      "stateMutability": "view",
      "type": "function"
    },
    {
      "inputs": [],
      "name": "totalAppartments",
      "outputs": [
        {
          "internalType": "uint256",
          "name": "",
          "type": "uint256"
        }
      ],
      "stateMutability": "view",
      "type": "function"
    },
    {
      "inputs": [
        {
          "internalType": "uint256",
          "name": "id",
          "type": "uint256"
        },
        {
          "internalType": "string",
          "name": "name",
          "type": "string"
        },
        {
          "internalType": "string",
          "name": "description",
          "type": "string"
        },
        {
          "internalType": "string",
          "name": "image",
          "type": "string"
        },
        {
          "internalType": "uint256",
          "name": "rooms",
          "type": "uint256"
        },
        {
          "internalType": "uint256",
          "name": "price",
          "type": "uint256"
        }
      ],
      "name": "updateAppartment",
      "outputs": [
        {
          "internalType": "bool",
          "name": "",
          "type": "bool"
        }
      ],
      "stateMutability": "nonpayable",
      "type": "function"
    },
    {
      "inputs": [
        {
          "internalType": "uint256",
          "name": "newFee",
          "type": "uint256"
        }
      ],
      "name": "updateSecurityFee",
      "outputs": [],
      "stateMutability": "nonpayable",
      "type": "function"
    },
    {
      "inputs": [
        {
          "internalType": "uint256",
          "name": "newTaxPercent",
          "type": "uint256"
        }
      ],
      "name": "updateTaxPercent",
      "outputs": [],
      "stateMutability": "nonpayable",
      "type": "function"
    }
  ],
  "bytecode": "0x608060405234801561001057600080fd5b5060405162002aba38038062002aba83398101604081905261003191610051565b600380546001600160a01b03191633179055600191909155600055610075565b6000806040838503121561006457600080fd5b505080516020909101519092909150565b612a3580620000856000396000f3fe60806040526004361061011f5760003560e01c8063ade652db116100a0578063dec30d3911610064578063dec30d39146103fb578063e16ca8d11461041b578063e629ca511461043b578063eb46144514610451578063f40109951461047157600080fd5b8063ade652db14610356578063b1c9809914610376578063d5ea1cb814610398578063d68e1302146103b8578063db2f80b7146103ce57600080fd5b806378419f61116100e757806378419f611461020b5780638da5cb5b1461022b5780639707c405146102635780639c9564dc146103165780639d4a22551461032957600080fd5b806313683cae1461012457806325a5bcb71461015a5780635bb0c5d6146101a557806361591149146101c55780637541f41c146101e7575b600080fd5b34801561013057600080fd5b5061014461013f366004612268565b61049e565b6040516101519190612395565b60405180910390f35b34801561016657600080fd5b506101956101753660046123af565b600660209081526000928352604080842090915290825290205460ff1681565b6040519015158152602001610151565b3480156101b157600080fd5b506101956101c0366004612488565b6106f0565b3480156101d157600080fd5b506101e56101e0366004612268565b610889565b005b3480156101f357600080fd5b506101fd60015481565b604051908152602001610151565b34801561021757600080fd5b506101956102263660046123af565b61092b565b34801561023757600080fd5b5060035461024b906001600160a01b031681565b6040516001600160a01b039091168152602001610151565b34801561026f57600080fd5b506102d561027e3660046123af565b6007602090815260009283526040808420909152908252902080546001820154600283015460038401546004850154600586015460069096015494956001600160a01b03909416949293919260ff91821692911687565b604080519788526001600160a01b0390961660208801529486019390935260608501919091521515608084015260a0830152151560c082015260e001610151565b6101956103243660046124cf565b610b53565b34801561033557600080fd5b50610349610344366004612268565b610eff565b6040516101519190612589565b34801561036257600080fd5b506101e5610371366004612627565b61103a565b34801561038257600080fd5b5061038b611318565b60405161015191906126c1565b3480156103a457600080fd5b506101956103b3366004612723565b611618565b3480156103c457600080fd5b506101fd60005481565b3480156103da57600080fd5b506103ee6103e9366004612268565b611bdb565b60405161015191906127c7565b34801561040757600080fd5b50610195610416366004612268565b611dbb565b34801561042757600080fd5b5061019561043636600461280b565b611e4f565b34801561044757600080fd5b506101fd60025481565b34801561045d57600080fd5b506101e561046c366004612268565b612032565b34801561047d57600080fd5b5061049161048c366004612268565b61204e565b6040516101519190612837565b6104a661216f565b6004600083815260200190815260200160002060405180610160016040529081600082015481526020016001820180546104df906128c6565b80601f016020809104026020016040519081016040528092919081815260200182805461050b906128c6565b80156105585780601f1061052d57610100808354040283529160200191610558565b820191906000526020600020905b81548152906001019060200180831161053b57829003601f168201915b50505050508152602001600282018054610571906128c6565b80601f016020809104026020016040519081016040528092919081815260200182805461059d906128c6565b80156105ea5780601f106105bf576101008083540402835291602001916105ea565b820191906000526020600020905b8154815290600101906020018083116105cd57829003601f168201915b50505050508152602001600382018054610603906128c6565b80601f016020809104026020016040519081016040528092919081815260200182805461062f906128c6565b801561067c5780601f106106515761010080835404028352916020019161067c565b820191906000526020600020905b81548152906001019060200180831161065f57829003601f168201915b5050509183525050600482015460208201526005820154604082015260068201546001600160a01b038116606083015260ff600160a01b8204811615156080840152600160a81b82048116151560a0840152600160b01b90910416151560c082015260079091015460e09091015292915050565b60008281526009602052604081205460ff1615156001146107585760405162461bcd60e51b815260206004820152601860248201527f4170706172746d656e74206e6f7420617661696c61626c65000000000000000060448201526064015b60405180910390fd5b60008251116107a95760405162461bcd60e51b815260206004820152601b60248201527f52657669657720746578742063616e6e6f7420626520656d7074790000000000604482015260640161074f565b6107e46040518060a001604052806000815260200160008152602001606081526020016000815260200160006001600160a01b031681525090565b600084815260086020818152604080842080548087528684018a8152928701898152426060890152336080890152948452600180820183559186529483902086516005909602019485559051908401559051805184939261084c9260028501929101906121d8565b5060608201516003820155608090910151600490910180546001600160a01b0319166001600160a01b039092169190911790555060019392505050565b6003546001600160a01b031633146108e35760405162461bcd60e51b815260206004820152601860248201527f526573657276656420666f72206f776e6572206f6e6c79210000000000000000604482015260640161074f565b600081116108f057600080fd5b60008190556040518181527f3790aeee57809af98fad1b89b9266c7934e03ed46702b541f2fef6f1e89d68279060200160405180910390a150565b600082815260056020526040812080548390811061094b5761094b612901565b60009182526020909120600790910201600101546001600160a01b031633146109ad5760405162461bcd60e51b8152602060048201526014602482015273556e617574686f72697a65642074656e616e742160601b604482015260640161074f565b60008381526005602052604090208054839081106109cd576109cd612901565b600091825260209091206004600790920201015460ff1615610a015760405162461bcd60e51b815260040161074f90612917565b600083815260056020526040902080546001919084908110610a2557610a25612901565b60009182526020808320600792909202909101600401805460ff191693151593909317909255848152600590915260408120805484908110610a6957610a69612901565b90600052602060002090600702016003015490506000606460015483610a8f9190612974565b610a999190612993565b90506000600a6000600560008981526020019081526020016000208781548110610ac557610ac5612901565b600091825260208083206007929092029091016005015483528281019390935260409182018120805460ff1916941515949094179093558783526004909152902060060154610b26906001600160a01b0316610b2183856129b5565b61210a565b600354610b3c906001600160a01b03168261210a565b610b483360005461210a565b506001949350505050565b60008381526009602052604081205460ff16610ba85760405162461bcd60e51b815260206004820152601460248201527341706172746d656e74206e6f7420666f756e642160601b604482015260640161074f565b600080548582526004602052604090912060050154610bc791906129cc565b341015610c0b5760405162461bcd60e51b8152602060048201526012602482015271496e73756666696369656e742066756e642160701b604482015260640161074f565b60005b8351811015610b4857600660008681526020019081526020016000206000858381518110610c3e57610c3e612901565b60209081029190910181015182528101919091526040016000205460ff1615610ca95760405162461bcd60e51b815260206004820152601e60248201527f53656c65637465642064617465206973206e6f7420617661696c61626c650000604482015260640161074f565b610cf66040518060e001604052806000815260200160006001600160a01b031681526020016000815260200160008152602001600015158152602001600081526020016000151581525090565b600086815260056020908152604090912054825233908201528451859083908110610d2357610d23612901565b6020908102919091018101516040808401918252600089815260048085528282206005908101546060880190815260a088018b81528d85528288528585208054600181810183559187528987208b516007909202019081558a8a015181830180546001600160a01b039092166001600160a01b031990921691909117905597516002890155915160038801556080890151938701805494151560ff19958616179055519186019190915560c08701516006958601805491151591909316179091558a8252929093528220875191929091889086908110610e0557610e05612901565b6020026020010151815260200190815260200160002060006101000a81548160ff02191690831515021790555080600760008881526020019081526020016000206000878581518110610e5a57610e5a612901565b602090810291909101810151825281810192909252604090810160002083518155918301516001830180546001600160a01b039092166001600160a01b0319909216919091179055820151600282015560608201516003820155608082015160048201805491151560ff1992831617905560a0830151600583015560c09092015160069091018054911515919092161790555080610ef7816129e4565b915050610c0e565b606060086000838152602001908152602001600020805480602002602001604051908101604052809291908181526020016000905b8282101561102f57838290600052602060002090600502016040518060a00160405290816000820154815260200160018201548152602001600282018054610f7b906128c6565b80601f0160208091040260200160405190810160405280929190818152602001828054610fa7906128c6565b8015610ff45780601f10610fc957610100808354040283529160200191610ff4565b820191906000526020600020905b815481529060010190602001808311610fd757829003601f168201915b505050918352505060038201546020808301919091526004909201546001600160a01b03166040909101529082526001929092019101610f34565b505050509050919050565b60008551116110825760405162461bcd60e51b81526020600482015260146024820152734e616d652063616e6e6f7420626520656d70747960601b604482015260640161074f565b60008451116110d35760405162461bcd60e51b815260206004820152601b60248201527f4465736372697074696f6e2063616e6e6f7420626520656d7074790000000000604482015260640161074f565b600083511161111d5760405162461bcd60e51b8152602060048201526016602482015275496d616765732063616e6e6f7420626520656d70747960501b604482015260640161074f565b600082116111645760405162461bcd60e51b8152602060048201526014602482015273526f6f6d732063616e6e6f74206265207a65726f60601b604482015260640161074f565b600081116111ab5760405162461bcd60e51b815260206004820152601460248201527350726963652063616e6e6f74206265207a65726f60601b604482015260640161074f565b6111b361216f565b60028054808352602080840189815260408086018a9052606086018990526080860188905260a086018790523360c08701526001610120870181905242610140880152600094855260098452818520805460ff191682179055945484526004835290922084518155915180518594611230939085019201906121d8565b506040820151805161124c9160028401916020909101906121d8565b50606082015180516112689160038401916020909101906121d8565b506080820151600482015560a0820151600582015560c082015160068201805460e08501516101008601516101208701511515600160b01b0260ff60b01b19911515600160a81b029190911661ffff60a81b19921515600160a01b026001600160a81b03199094166001600160a01b0390961695909517929092171692909217919091179055610140909101516007909101556002805490600061130b836129e4565b9190505550505050505050565b606060025467ffffffffffffffff811115611335576113356123d1565b60405190808252806020026020018201604052801561136e57816020015b61135b61216f565b8152602001906001900390816113535790505b50905060005b60025481101561161457600081815260046020526040902060060154600160a81b900460ff16611602576004600082815260200190815260200160002060405180610160016040529081600082015481526020016001820180546113d7906128c6565b80601f0160208091040260200160405190810160405280929190818152602001828054611403906128c6565b80156114505780601f1061142557610100808354040283529160200191611450565b820191906000526020600020905b81548152906001019060200180831161143357829003601f168201915b50505050508152602001600282018054611469906128c6565b80601f0160208091040260200160405190810160405280929190818152602001828054611495906128c6565b80156114e25780601f106114b7576101008083540402835291602001916114e2565b820191906000526020600020905b8154815290600101906020018083116114c557829003601f168201915b505050505081526020016003820180546114fb906128c6565b80601f0160208091040260200160405190810160405280929190818152602001828054611527906128c6565b80156115745780601f1061154957610100808354040283529160200191611574565b820191906000526020600020905b81548152906001019060200180831161155757829003601f168201915b5050509183525050600482015460208201526005820154604082015260068201546001600160a01b038116606083015260ff600160a01b8204811615156080840152600160a81b82048116151560a0840152600160b01b90910416151560c082015260079091015460e09091015282518390839081106115f6576115f6612901565b60200260200101819052505b8061160c816129e4565b915050611374565b5090565b60008681526009602052604081205460ff1615156001146116725760405162461bcd60e51b8152602060048201526014602482015273105c1c185c9d1b595b9d081b9bdd08199bdd5b9960621b604482015260640161074f565b6000878152600460205260409020600601546001600160a01b031633146116e65760405162461bcd60e51b815260206004820152602260248201527f556e617574686f72697a656420706572736f6e6e656c2c206f776e6572206f6e6044820152616c7960f01b606482015260840161074f565b600086511161172e5760405162461bcd60e51b81526020600482015260146024820152734e616d652063616e6e6f7420626520656d70747960601b604482015260640161074f565b600085511161177f5760405162461bcd60e51b815260206004820152601b60248201527f4465736372697074696f6e2063616e6e6f7420626520656d7074790000000000604482015260640161074f565b60008451116117c95760405162461bcd60e51b8152602060048201526016602482015275496d616765732063616e6e6f7420626520656d70747960501b604482015260640161074f565b600083116118105760405162461bcd60e51b8152602060048201526014602482015273526f6f6d732063616e6e6f74206265207a65726f60601b604482015260640161074f565b600082116118575760405162461bcd60e51b815260206004820152601460248201527350726963652063616e6e6f74206265207a65726f60601b604482015260640161074f565b6000600460008981526020019081526020016000206040518061016001604052908160008201548152602001600182018054611892906128c6565b80601f01602080910402602001604051908101604052809291908181526020018280546118be906128c6565b801561190b5780601f106118e05761010080835404028352916020019161190b565b820191906000526020600020905b8154815290600101906020018083116118ee57829003601f168201915b50505050508152602001600282018054611924906128c6565b80601f0160208091040260200160405190810160405280929190818152602001828054611950906128c6565b801561199d5780601f106119725761010080835404028352916020019161199d565b820191906000526020600020905b81548152906001019060200180831161198057829003601f168201915b505050505081526020016003820180546119b6906128c6565b80601f01602080910402602001604051908101604052809291908181526020018280546119e2906128c6565b8015611a2f5780601f10611a0457610100808354040283529160200191611a2f565b820191906000526020600020905b815481529060010190602001808311611a1257829003601f168201915b5050509183525050600482810154602080840191909152600584015460408085019190915260068501546001600160a01b03811660608087019190915260ff600160a01b830481161515608080890191909152600160a81b84048216151560a0808a0191909152600160b01b909404909116151560c088015260079097015460e0909601959095528683018e81528783018e90529487018c90529486018a905293850188905260008d8152918152929020835181559051805193945084939192611b01926001850192909101906121d8565b5060408201518051611b1d9160028401916020909101906121d8565b5060608201518051611b399160038401916020909101906121d8565b506080820151600482015560a0820151600582015560c082015160068201805460e08501516101008601516101208701511515600160b01b0260ff60b01b19911515600160a81b029190911661ffff60a81b19921515600160a01b026001600160a81b03199094166001600160a01b03909616959095179290921716929092179190911790556101409091015160079091015550600190509695505050505050565b6000818152600560209081526040808320805482518185028101850190935280835260609493849084015b82821015611c8d5760008481526020908190206040805160e08101825260078602909201805483526001808201546001600160a01b03168486015260028201549284019290925260038101546060840152600481015460ff90811615156080850152600582015460a085015260069091015416151560c08301529083529092019101611c06565b5050505090506000805b8251811015611ce257828181518110611cb257611cb2612901565b602002602001015160c00151611cd05781611ccc816129e4565b9250505b80611cda816129e4565b915050611c97565b508067ffffffffffffffff811115611cfc57611cfc6123d1565b604051908082528060200260200182016040528015611d25578160200160208202803683370190505b5092506000805b8351811015611db257838181518110611d4757611d47612901565b602002602001015160c00151611da057838181518110611d6957611d69612901565b602002602001015160400151858381518110611d8757611d87612901565b602090810291909101015281611d9c816129e4565b9250505b80611daa816129e4565b915050611d2c565b50505050919050565b60008181526009602052604081205460ff161515600114611e155760405162461bcd60e51b8152602060048201526014602482015273105c1c185c9d1b595b9d081b9bdd08199bdd5b9960621b604482015260640161074f565b506000908152600960209081526040808320805460ff1916905560049091529020600601805460ff60a81b1916600160a81b179055600190565b6000838152600560205260408120805484908110611e6f57611e6f612901565b60009182526020909120600790910201600101546001600160a01b03163314611ed15760405162461bcd60e51b8152602060048201526014602482015273556e617574686f72697a65642074656e616e742160601b604482015260640161074f565b6000848152600560205260409020805484908110611ef157611ef1612901565b600091825260209091206004600790920201015460ff1615611f255760405162461bcd60e51b815260040161074f90612917565b600084815260056020526040902080546001919085908110611f4957611f49612901565b6000918252602080832060066007909302018201805494151560ff1995861617905587835290815260408083208684528252808320805490941690935586825260059052908120805485908110611fa257611fa2612901565b906000526020600020906007020160030154905060006064600154600054611fca9190612974565b611fd49190612993565b6000878152600460205260408120600601549054919250612006916001600160a01b0390911690610b219084906129b5565b60035461201c906001600160a01b03168261210a565b612026338361210a565b50600195945050505050565b6003546001600160a01b0316331461204957600080fd5b600155565b606060056000838152602001908152602001600020805480602002602001604051908101604052809291908181526020016000905b8282101561102f5760008481526020908190206040805160e08101825260078602909201805483526001808201546001600160a01b03168486015260028201549284019290925260038101546060840152600481015460ff90811615156080850152600582015460a085015260069091015416151560c08301529083529092019101612083565b6000826001600160a01b03168260405160006040518083038185875af1925050503d8060008114612157576040519150601f19603f3d011682016040523d82523d6000602084013e61215c565b606091505b505090508061216a57600080fd5b505050565b60405180610160016040528060008152602001606081526020016060815260200160608152602001600081526020016000815260200160006001600160a01b03168152602001600015158152602001600015158152602001600015158152602001600081525090565b8280546121e4906128c6565b90600052602060002090601f016020900481019282612206576000855561224c565b82601f1061221f57805160ff191683800117855561224c565b8280016001018555821561224c579182015b8281111561224c578251825591602001919060010190612231565b506116149291505b808211156116145760008155600101612254565b60006020828403121561227a57600080fd5b5035919050565b6000815180845260005b818110156122a75760208185018101518683018201520161228b565b818111156122b9576000602083870101525b50601f01601f19169290920160200192915050565b60006101608251845260208301518160208601526122ee82860182612281565b915050604083015184820360408601526123088282612281565b915050606083015184820360608601526123228282612281565b9150506080830151608085015260a083015160a085015260c083015161235360c08601826001600160a01b03169052565b5060e083015161236760e086018215159052565b5061010083810151151590850152610120808401511515908501526101409283015192909301919091525090565b6020815260006123a860208301846122ce565b9392505050565b600080604083850312156123c257600080fd5b50508035926020909101359150565b634e487b7160e01b600052604160045260246000fd5b604051601f8201601f1916810167ffffffffffffffff81118282101715612410576124106123d1565b604052919050565b600082601f83011261242957600080fd5b813567ffffffffffffffff811115612443576124436123d1565b612456601f8201601f19166020016123e7565b81815284602083860101111561246b57600080fd5b816020850160208301376000918101602001919091529392505050565b6000806040838503121561249b57600080fd5b82359150602083013567ffffffffffffffff8111156124b957600080fd5b6124c585828601612418565b9150509250929050565b6000806000606084860312156124e457600080fd5b8335925060208085013567ffffffffffffffff8082111561250457600080fd5b818701915087601f83011261251857600080fd5b81358181111561252a5761252a6123d1565b8060051b915061253b8483016123e7565b818152918301840191848101908a84111561255557600080fd5b938501935b838510156125735784358252938501939085019061255a565b979a979950505050604095909501359450505050565b60006020808301818452808551808352604092508286019150828160051b87010184880160005b8381101561261957603f19898403018552815160a08151855288820151898601528782015181898701526125e682870182612281565b606084810151908801526080938401516001600160a01b03169390960192909252505093860193908601906001016125b0565b509098975050505050505050565b600080600080600060a0868803121561263f57600080fd5b853567ffffffffffffffff8082111561265757600080fd5b61266389838a01612418565b9650602088013591508082111561267957600080fd5b61268589838a01612418565b9550604088013591508082111561269b57600080fd5b506126a888828901612418565b9598949750949560608101359550608001359392505050565b6000602080830181845280855180835260408601915060408160051b870101925083870160005b8281101561271657603f198886030184526127048583516122ce565b945092850192908501906001016126e8565b5092979650505050505050565b60008060008060008060c0878903121561273c57600080fd5b86359550602087013567ffffffffffffffff8082111561275b57600080fd5b6127678a838b01612418565b9650604089013591508082111561277d57600080fd5b6127898a838b01612418565b9550606089013591508082111561279f57600080fd5b506127ac89828a01612418565b9350506080870135915060a087013590509295509295509295565b6020808252825182820181905260009190848201906040850190845b818110156127ff578351835292840192918401916001016127e3565b50909695505050505050565b60008060006060848603121561282057600080fd5b505081359360208301359350604090920135919050565b602080825282518282018190526000919060409081850190868401855b828110156128b957815180518552868101516001600160a01b03168786015285810151868601526060808201519086015260808082015115159086015260a0808201519086015260c09081015115159085015260e09093019290850190600101612854565b5091979650505050505050565b600181811c908216806128da57607f821691505b602082108114156128fb57634e487b7160e01b600052602260045260246000fd5b50919050565b634e487b7160e01b600052603260045260246000fd5b60208082526027908201527f41706172746d656e7420616c726561647920636865636b6564206f6e207468696040820152667320646174652160c81b606082015260800190565b634e487b7160e01b600052601160045260246000fd5b600081600019048311821515161561298e5761298e61295e565b500290565b6000826129b057634e487b7160e01b600052601260045260246000fd5b500490565b6000828210156129c7576129c761295e565b500390565b600082198211156129df576129df61295e565b500190565b60006000198214156129f8576129f861295e565b506001019056fea2646970667358221220ebf6e5d9ce4433f7dfabe4c945afea9dba36dd5d52caedb54dcf0de3a2b5b7e264736f6c634300080b0033",
  "linkReferences": {},
  "deployedLinkReferences": {}
}