{
  "_format": "hh-sol-artifact-1",
  "contractName": "DappBnb",
  "sourceName": "src/contracts/DappBnb.sol",
  "abi": [
    {
      "inputs": [
        {
          "internalType": "uint256",
          "name": "_taxPercent",
          "type": "uint256"
        },
        {
          "internalType": "uint256",
          "name": "_securityFee",
          "type": "uint256"
        }
      ],
      "stateMutability": "nonpayable",
      "type": "constructor"
    },
    {
      "anonymous": false,
      "inputs": [
        {
          "indexed": true,
          "internalType": "address",
          "name": "previousOwner",
          "type": "address"
        },
        {
          "indexed": true,
          "internalType": "address",
          "name": "newOwner",
          "type": "address"
        }
      ],
      "name": "OwnershipTransferred",
      "type": "event"
    },
    {
      "anonymous": false,
      "inputs": [
        {
          "indexed": false,
          "internalType": "uint256",
          "name": "newFee",
          "type": "uint256"
        }
      ],
      "name": "SecurityFeeUpdated",
      "type": "event"
    },
    {
      "inputs": [
        {
          "internalType": "uint256",
          "name": "appartmentId",
          "type": "uint256"
        },
        {
          "internalType": "string",
          "name": "reviewText",
          "type": "string"
        }
      ],
      "name": "addReview",
      "outputs": [],
      "stateMutability": "nonpayable",
      "type": "function"
    },
    {
      "inputs": [
        {
          "internalType": "uint256",
          "name": "id",
          "type": "uint256"
        },
        {
          "internalType": "uint256[]",
          "name": "dates",
          "type": "uint256[]"
        }
      ],
      "name": "bookApartment",
      "outputs": [],
      "stateMutability": "payable",
      "type": "function"
    },
    {
      "inputs": [
        {
          "internalType": "uint256",
          "name": "id",
          "type": "uint256"
        },
        {
          "internalType": "uint256",
          "name": "bookingId",
          "type": "uint256"
        }
      ],
      "name": "checkInApartment",
      "outputs": [],
      "stateMutability": "nonpayable",
      "type": "function"
    },
    {
      "inputs": [
        {
          "internalType": "string",
          "name": "name",
          "type": "string"
        },
        {
          "internalType": "string",
          "name": "description",
          "type": "string"
        },
        {
          "internalType": "string",
          "name": "images",
          "type": "string"
        },
        {
          "internalType": "uint256",
          "name": "rooms",
          "type": "uint256"
        },
        {
          "internalType": "uint256",
          "name": "price",
          "type": "uint256"
        }
      ],
      "name": "createAppartment",
      "outputs": [],
      "stateMutability": "nonpayable",
      "type": "function"
    },
    {
      "inputs": [
        {
          "internalType": "uint256",
          "name": "id",
          "type": "uint256"
        }
      ],
      "name": "deleteAppartment",
      "outputs": [],
      "stateMutability": "nonpayable",
      "type": "function"
    },
    {
      "inputs": [
        {
          "internalType": "uint256",
          "name": "id",
          "type": "uint256"
        }
      ],
      "name": "getApartment",
      "outputs": [
        {
          "components": [
            {
              "internalType": "uint256",
              "name": "id",
              "type": "uint256"
            },
            {
              "internalType": "string",
              "name": "name",
              "type": "string"
            },
            {
              "internalType": "string",
              "name": "description",
              "type": "string"
            },
            {
              "internalType": "string",
              "name": "images",
              "type": "string"
            },
            {
              "internalType": "uint256",
              "name": "rooms",
              "type": "uint256"
            },
            {
              "internalType": "uint256",
              "name": "price",
              "type": "uint256"
            },
            {
              "internalType": "address",
              "name": "owner",
              "type": "address"
            },
            {
              "internalType": "bool",
              "name": "booked",
              "type": "bool"
            },
            {
              "internalType": "bool",
              "name": "deleted",
              "type": "bool"
            },
            {
              "internalType": "bool",
              "name": "availablity",
              "type": "bool"
            },
            {
              "internalType": "uint256",
              "name": "timestamp",
              "type": "uint256"
            }
          ],
          "internalType": "struct DappBnb.ApartmentStruct",
          "name": "",
          "type": "tuple"
        }
      ],
      "stateMutability": "view",
      "type": "function"
    },
    {
      "inputs": [],
      "name": "getApartments",
      "outputs": [
        {
          "components": [
            {
              "internalType": "uint256",
              "name": "id",
              "type": "uint256"
            },
            {
              "internalType": "string",
              "name": "name",
              "type": "string"
            },
            {
              "internalType": "string",
              "name": "description",
              "type": "string"
            },
            {
              "internalType": "string",
              "name": "images",
              "type": "string"
            },
            {
              "internalType": "uint256",
              "name": "rooms",
              "type": "uint256"
            },
            {
              "internalType": "uint256",
              "name": "price",
              "type": "uint256"
            },
            {
              "internalType": "address",
              "name": "owner",
              "type": "address"
            },
            {
              "internalType": "bool",
              "name": "booked",
              "type": "bool"
            },
            {
              "internalType": "bool",
              "name": "deleted",
              "type": "bool"
            },
            {
              "internalType": "bool",
              "name": "availablity",
              "type": "bool"
            },
            {
              "internalType": "uint256",
              "name": "timestamp",
              "type": "uint256"
            }
          ],
          "internalType": "struct DappBnb.ApartmentStruct[]",
          "name": "Apartments",
          "type": "tuple[]"
        }
      ],
      "stateMutability": "view",
      "type": "function"
    },
    {
      "inputs": [
        {
          "internalType": "uint256",
          "name": "id",
          "type": "uint256"
        },
        {
          "internalType": "uint256",
          "name": "bookingId",
          "type": "uint256"
        }
      ],
      "name": "getBooking",
      "outputs": [
        {
          "components": [
            {
              "internalType": "uint256",
              "name": "id",
              "type": "uint256"
            },
            {
              "internalType": "address",
              "name": "tenant",
              "type": "address"
            },
            {
              "internalType": "uint256",
              "name": "date",
              "type": "uint256"
            },
            {
              "internalType": "uint256",
              "name": "price",
              "type": "uint256"
            },
            {
              "internalType": "bool",
              "name": "checked",
              "type": "bool"
            },
            {
              "internalType": "bool",
              "name": "cancelled",
              "type": "bool"
            }
          ],
          "internalType": "struct DappBnb.BookingStruct",
          "name": "",
          "type": "tuple"
        }
      ],
      "stateMutability": "view",
      "type": "function"
    },
    {
      "inputs": [
        {
          "internalType": "uint256",
          "name": "id",
          "type": "uint256"
        }
      ],
      "name": "getBookings",
      "outputs": [
        {
          "components": [
            {
              "internalType": "uint256",
              "name": "id",
              "type": "uint256"
            },
            {
              "internalType": "address",
              "name": "tenant",
              "type": "address"
            },
            {
              "internalType": "uint256",
              "name": "date",
              "type": "uint256"
            },
            {
              "internalType": "uint256",
              "name": "price",
              "type": "uint256"
            },
            {
              "internalType": "bool",
              "name": "checked",
              "type": "bool"
            },
            {
              "internalType": "bool",
              "name": "cancelled",
              "type": "bool"
            }
          ],
          "internalType": "struct DappBnb.BookingStruct[]",
          "name": "",
          "type": "tuple[]"
        }
      ],
      "stateMutability": "view",
      "type": "function"
    },
    {
      "inputs": [
        {
          "internalType": "uint256",
          "name": "appartmentId",
          "type": "uint256"
        }
      ],
      "name": "getReviews",
      "outputs": [
        {
          "components": [
            {
              "internalType": "uint256",
              "name": "id",
              "type": "uint256"
            },
            {
              "internalType": "uint256",
              "name": "appartmentId",
              "type": "uint256"
            },
            {
              "internalType": "string",
              "name": "reviewText",
              "type": "string"
            },
            {
              "internalType": "uint256",
              "name": "timestamp",
              "type": "uint256"
            },
            {
              "internalType": "address",
              "name": "owner",
              "type": "address"
            }
          ],
          "internalType": "struct DappBnb.ReviewStruct[]",
          "name": "",
          "type": "tuple[]"
        }
      ],
      "stateMutability": "view",
      "type": "function"
    },
    {
      "inputs": [
        {
          "internalType": "uint256",
          "name": "id",
          "type": "uint256"
        }
      ],
      "name": "getUnavailableDates",
      "outputs": [
        {
          "internalType": "uint256[]",
          "name": "",
          "type": "uint256[]"
        }
      ],
      "stateMutability": "view",
      "type": "function"
    },
    {
      "inputs": [],
      "name": "owner",
      "outputs": [
        {
          "internalType": "address",
          "name": "",
          "type": "address"
        }
      ],
      "stateMutability": "view",
      "type": "function"
    },
    {
      "inputs": [
        {
          "internalType": "uint256",
          "name": "id",
          "type": "uint256"
        },
        {
          "internalType": "uint256",
          "name": "bookingId",
          "type": "uint256"
        },
        {
          "internalType": "uint256",
          "name": "date",
          "type": "uint256"
        }
      ],
      "name": "refundBooking",
      "outputs": [],
      "stateMutability": "nonpayable",
      "type": "function"
    },
    {
      "inputs": [],
      "name": "renounceOwnership",
      "outputs": [],
      "stateMutability": "nonpayable",
      "type": "function"
    },
    {
      "inputs": [],
      "name": "securityFee",
      "outputs": [
        {
          "internalType": "uint256",
          "name": "",
          "type": "uint256"
        }
      ],
      "stateMutability": "view",
      "type": "function"
    },
    {
      "inputs": [],
      "name": "taxPercent",
      "outputs": [
        {
          "internalType": "uint256",
          "name": "",
          "type": "uint256"
        }
      ],
      "stateMutability": "view",
      "type": "function"
    },
    {
      "inputs": [
        {
          "internalType": "address",
          "name": "newOwner",
          "type": "address"
        }
      ],
      "name": "transferOwnership",
      "outputs": [],
      "stateMutability": "nonpayable",
      "type": "function"
    },
    {
      "inputs": [
        {
          "internalType": "uint256",
          "name": "id",
          "type": "uint256"
        },
        {
          "internalType": "string",
          "name": "name",
          "type": "string"
        },
        {
          "internalType": "string",
          "name": "description",
          "type": "string"
        },
        {
          "internalType": "string",
          "name": "images",
          "type": "string"
        },
        {
          "internalType": "uint256",
          "name": "rooms",
          "type": "uint256"
        },
        {
          "internalType": "uint256",
          "name": "price",
          "type": "uint256"
        }
      ],
      "name": "updateAppartment",
      "outputs": [],
      "stateMutability": "nonpayable",
      "type": "function"
    },
    {
      "inputs": [
        {
          "internalType": "uint256",
          "name": "newFee",
          "type": "uint256"
        }
      ],
      "name": "updateSecurityFee",
      "outputs": [],
      "stateMutability": "nonpayable",
      "type": "function"
    },
    {
      "inputs": [
        {
          "internalType": "uint256",
          "name": "newTaxPercent",
          "type": "uint256"
        }
      ],
      "name": "updateTaxPercent",
      "outputs": [],
      "stateMutability": "nonpayable",
      "type": "function"
    }
  ],
  "bytecode": "0x60806040523480156200001157600080fd5b5060405162002c7a38038062002c7a8339810160408190526200003491620000a2565b6200003f3362000052565b60018055600491909155600355620000c7565b600080546001600160a01b038381166001600160a01b0319831681178455604051919092169283917f8be0079c531659141344cd1fd0a4f28419497f9722a3daafe3b4186f6b6457e09190a35050565b60008060408385031215620000b657600080fd5b505080516020909101519092909150565b612ba380620000d76000396000f3fe60806040526004361061011f5760003560e01c8063c4452e06116100a0578063df6e022211610064578063df6e02221461033c578063e16ca8d11461034f578063eb4614451461036f578063f2fde38b1461038f578063f4010995146103af57600080fd5b8063c4452e061461028c578063d5ea1cb8146102b9578063d68e1302146102d9578063db2f80b7146102ef578063dec30d391461031c57600080fd5b806378419f61116100e757806378419f61146101d55780638da5cb5b146101f55780639d4a22551461021d578063ade652db1461024a578063b1c980991461026a57600080fd5b8063455b3070146101245780635bb0c5d61461015a578063615911491461017c578063715018a61461019c5780637541f41c146101b1575b600080fd5b34801561013057600080fd5b5061014461013f36600461239a565b6103dc565b6040516101519190612400565b60405180910390f35b34801561016657600080fd5b5061017a6101753660046124c5565b610476565b005b34801561018857600080fd5b5061017a61019736600461250c565b61060a565b3480156101a857600080fd5b5061017a61065a565b3480156101bd57600080fd5b506101c760045481565b604051908152602001610151565b3480156101e157600080fd5b5061017a6101f036600461239a565b61066e565b34801561020157600080fd5b506000546040516001600160a01b039091168152602001610151565b34801561022957600080fd5b5061023d61023836600461250c565b61083a565b6040516101519190612572565b34801561025657600080fd5b5061017a610265366004612610565b610975565b34801561027657600080fd5b5061027f610c4c565b6040516101519190612771565b34801561029857600080fd5b506102ac6102a736600461250c565b610fa1565b60405161015191906127d3565b3480156102c557600080fd5b5061017a6102d43660046127ed565b6111f3565b3480156102e557600080fd5b506101c760035481565b3480156102fb57600080fd5b5061030f61030a36600461250c565b6117b1565b6040516101519190612891565b34801561032857600080fd5b5061017a61033736600461250c565b611813565b61017a61034a3660046128d5565b611902565b34801561035b57600080fd5b5061017a61036a366004612987565b611bbc565b34801561037b57600080fd5b5061017a61038a36600461250c565b611f54565b34801561039b57600080fd5b5061017a6103aa3660046129b3565b611f61565b3480156103bb57600080fd5b506103cf6103ca36600461250c565b611fda565b60405161015191906129dc565b6103e4612255565b600083815260066020526040902080548390811061040457610404612a1e565b60009182526020918290206040805160c08101825260059093029091018054835260018101546001600160a01b0316938301939093526002830154908201526003820154606082015260049091015460ff8082161515608084015261010090910416151560a082015290505b92915050565b60008281526008602052604090205460ff1615156001146104de5760405162461bcd60e51b815260206004820152601860248201527f4170706172746d656e74206e6f7420617661696c61626c65000000000000000060448201526064015b60405180910390fd5b600081511161052f5760405162461bcd60e51b815260206004820152601b60248201527f52657669657720746578742063616e6e6f7420626520656d707479000000000060448201526064016104d5565b61056a6040518060a001604052806000815260200160008152602001606081526020016000815260200160006001600160a01b031681525090565b6000838152600760208181526040808420805480875286840189815292870188815242606089015233608089015294845260018082018355918652948390208651600590960201948555905190840155905180518493926105d2926002850192910190612298565b5060608201516003820155608090910151600490910180546001600160a01b0319166001600160a01b03909216919091179055505050565b61061261208b565b6000811161061f57600080fd5b60038190556040518181527f3790aeee57809af98fad1b89b9266c7934e03ed46702b541f2fef6f1e89d68279060200160405180910390a150565b61066261208b565b61066c60006120e5565b565b600082815260066020526040902080548290811061068e5761068e612a1e565b60009182526020909120600590910201600101546001600160a01b031633146106f05760405162461bcd60e51b8152602060048201526014602482015273556e617574686f72697a65642074656e616e742160601b60448201526064016104d5565b600082815260066020526040902080548290811061071057610710612a1e565b600091825260209091206004600590920201015460ff16156107445760405162461bcd60e51b81526004016104d590612a34565b60008281526006602052604090208054600191908390811061076857610768612a1e565b60009182526020808320600592909202909101600401805460ff1916931515939093179092558381526006909152604081208054839081106107ac576107ac612a1e565b906000526020600020906005020160030154905060006064600454836107d29190612a91565b6107dc9190612ab0565b60008581526005602052604090206006015490915061080d906001600160a01b03166108088385612ad2565b612135565b6108286108226000546001600160a01b031690565b82612135565b61083433600354612135565b50505050565b606060076000838152602001908152602001600020805480602002602001604051908101604052809291908181526020016000905b8282101561096a57838290600052602060002090600502016040518060a001604052908160008201548152602001600182015481526020016002820180546108b690612ae9565b80601f01602080910402602001604051908101604052809291908181526020018280546108e290612ae9565b801561092f5780601f106109045761010080835404028352916020019161092f565b820191906000526020600020905b81548152906001019060200180831161091257829003601f168201915b505050918352505060038201546020808301919091526004909201546001600160a01b0316604090910152908252600192909201910161086f565b505050509050919050565b60008551116109bd5760405162461bcd60e51b81526020600482015260146024820152734e616d652063616e6e6f7420626520656d70747960601b60448201526064016104d5565b6000845111610a0e5760405162461bcd60e51b815260206004820152601b60248201527f4465736372697074696f6e2063616e6e6f7420626520656d707479000000000060448201526064016104d5565b6000835111610a585760405162461bcd60e51b8152602060048201526016602482015275496d616765732063616e6e6f7420626520656d70747960501b60448201526064016104d5565b60008211610a9f5760405162461bcd60e51b8152602060048201526014602482015273526f6f6d732063616e6e6f74206265207a65726f60601b60448201526064016104d5565b60008111610ae65760405162461bcd60e51b815260206004820152601460248201527350726963652063616e6e6f74206265207a65726f60601b60448201526064016104d5565b610af4600280546001019055565b610afc61231c565b60028054808352602080840189815260408086018a9052606086018990526080860188905260a086018790523360c08701526001610120870181905242610140880152600094855260088452818520805460ff191682179055945484526005835290922084518155915180518594610b7993908501920190612298565b5060408201518051610b95916002840191602090910190612298565b5060608201518051610bb1916003840191602090910190612298565b506080820151600482015560a0820151600582015560c082015160068201805460e08501516101008601516101208701511515600160b01b0260ff60b01b19911515600160a81b029190911661ffff60a81b19921515600160a01b026001600160a81b03199094166001600160a01b039096169590951792909217169290921791909117905561014090910151600790910155505050505050565b6060600060015b6002548111610c9c57600081815260056020526040902060060154600160a81b900460ff16610c8a5781610c8681612b24565b9250505b80610c9481612b24565b915050610c53565b508067ffffffffffffffff811115610cb657610cb661240e565b604051908082528060200260200182016040528015610cef57816020015b610cdc61231c565b815260200190600190039081610cd45790505b50915060015b6002548111610f9c57600081815260056020526040902060060154600160a81b900460ff16610f8a57600560008281526020019081526020016000206040518061016001604052908160008201548152602001600182018054610d5790612ae9565b80601f0160208091040260200160405190810160405280929190818152602001828054610d8390612ae9565b8015610dd05780601f10610da557610100808354040283529160200191610dd0565b820191906000526020600020905b815481529060010190602001808311610db357829003601f168201915b50505050508152602001600282018054610de990612ae9565b80601f0160208091040260200160405190810160405280929190818152602001828054610e1590612ae9565b8015610e625780601f10610e3757610100808354040283529160200191610e62565b820191906000526020600020905b815481529060010190602001808311610e4557829003601f168201915b50505050508152602001600382018054610e7b90612ae9565b80601f0160208091040260200160405190810160405280929190818152602001828054610ea790612ae9565b8015610ef45780601f10610ec957610100808354040283529160200191610ef4565b820191906000526020600020905b815481529060010190602001808311610ed757829003601f168201915b5050509183525050600482015460208201526005820154604082015260068201546001600160a01b038116606083015260ff600160a01b8204811615156080840152600160a81b82048116151560a0840152600160b01b90910416151560c082015260079091015460e09091015283610f6e600184612ad2565b81518110610f7e57610f7e612a1e565b60200260200101819052505b80610f9481612b24565b915050610cf5565b505090565b610fa961231c565b600560008381526020019081526020016000206040518061016001604052908160008201548152602001600182018054610fe290612ae9565b80601f016020809104026020016040519081016040528092919081815260200182805461100e90612ae9565b801561105b5780601f106110305761010080835404028352916020019161105b565b820191906000526020600020905b81548152906001019060200180831161103e57829003601f168201915b5050505050815260200160028201805461107490612ae9565b80601f01602080910402602001604051908101604052809291908181526020018280546110a090612ae9565b80156110ed5780601f106110c2576101008083540402835291602001916110ed565b820191906000526020600020905b8154815290600101906020018083116110d057829003601f168201915b5050505050815260200160038201805461110690612ae9565b80601f016020809104026020016040519081016040528092919081815260200182805461113290612ae9565b801561117f5780601f106111545761010080835404028352916020019161117f565b820191906000526020600020905b81548152906001019060200180831161116257829003601f168201915b5050509183525050600482015460208201526005820154604082015260068201546001600160a01b038116606083015260ff600160a01b8204811615156080840152600160a81b82048116151560a0840152600160b01b90910416151560c082015260079091015460e09091015292915050565b60008681526008602052604090205460ff16151560011461124d5760405162461bcd60e51b8152602060048201526014602482015273105c1c185c9d1b595b9d081b9bdd08199bdd5b9960621b60448201526064016104d5565b6000868152600560205260409020600601546001600160a01b031633146112c15760405162461bcd60e51b815260206004820152602260248201527f556e617574686f72697a656420706572736f6e6e656c2c206f776e6572206f6e6044820152616c7960f01b60648201526084016104d5565b60008551116113095760405162461bcd60e51b81526020600482015260146024820152734e616d652063616e6e6f7420626520656d70747960601b60448201526064016104d5565b600084511161135a5760405162461bcd60e51b815260206004820152601b60248201527f4465736372697074696f6e2063616e6e6f7420626520656d707479000000000060448201526064016104d5565b60008351116113a45760405162461bcd60e51b8152602060048201526016602482015275496d616765732063616e6e6f7420626520656d70747960501b60448201526064016104d5565b600082116113eb5760405162461bcd60e51b8152602060048201526014602482015273526f6f6d732063616e6e6f74206265207a65726f60601b60448201526064016104d5565b600081116114325760405162461bcd60e51b815260206004820152601460248201527350726963652063616e6e6f74206265207a65726f60601b60448201526064016104d5565b600060056000888152602001908152602001600020604051806101600160405290816000820154815260200160018201805461146d90612ae9565b80601f016020809104026020016040519081016040528092919081815260200182805461149990612ae9565b80156114e65780601f106114bb576101008083540402835291602001916114e6565b820191906000526020600020905b8154815290600101906020018083116114c957829003601f168201915b505050505081526020016002820180546114ff90612ae9565b80601f016020809104026020016040519081016040528092919081815260200182805461152b90612ae9565b80156115785780601f1061154d57610100808354040283529160200191611578565b820191906000526020600020905b81548152906001019060200180831161155b57829003601f168201915b5050505050815260200160038201805461159190612ae9565b80601f01602080910402602001604051908101604052809291908181526020018280546115bd90612ae9565b801561160a5780601f106115df5761010080835404028352916020019161160a565b820191906000526020600020905b8154815290600101906020018083116115ed57829003601f168201915b5050509183525050600482015460208083019190915260058084015460408085019190915260068501546001600160a01b03811660608087019190915260ff600160a01b830481161515608080890191909152600160a81b84048216151560a0808a0191909152600160b01b909404909116151560c088015260079097015460e0909601959095528684018d81528783018d90529487018b905294860189905293850187905260008c8152908252929092208351815590518051939450849391926116dd92600185019290910190612298565b50604082015180516116f9916002840191602090910190612298565b5060608201518051611715916003840191602090910190612298565b506080820151600482015560a0820151600582015560c082015160068201805460e08501516101008601516101208701511515600160b01b0260ff60b01b19911515600160a81b029190911661ffff60a81b19921515600160a01b026001600160a81b03199094166001600160a01b03909616959095179290921716929092179190911790556101409091015160079091015550505050505050565b60008181526009602090815260409182902080548351818402810184019094528084526060939283018282801561180757602002820191906000526020600020905b8154815260200190600101908083116117f3575b50505050509050919050565b60008181526008602052604090205460ff16151560011461186d5760405162461bcd60e51b8152602060048201526014602482015273105c1c185c9d1b595b9d081b9bdd08199bdd5b9960621b60448201526064016104d5565b6000818152600560205260409020600601546001600160a01b031633146118cc5760405162461bcd60e51b8152602060048201526013602482015272556e617574686f72697a656420656e7469747960681b60448201526064016104d5565b6000908152600860209081526040808320805460ff1916905560059091529020600601805460ff60a81b1916600160a81b179055565b60008281526008602052604090205460ff166119575760405162461bcd60e51b815260206004820152601460248201527341706172746d656e74206e6f7420666f756e642160601b60448201526064016104d5565b6003548151600084815260056020819052604090912001546119799190612a91565b6119839190612b3f565b3410156119c75760405162461bcd60e51b8152602060048201526012602482015271496e73756666696369656e742066756e642160701b60448201526064016104d5565b6119d18282612195565b611a1d5760405162461bcd60e51b815260206004820152601e60248201527f426f6f6b6564206461746520666f756e6420616d6f6e6720646174657321000060448201526064016104d5565b60005b8151811015611bb757611a31612255565b600084815260066020908152604090912054825233908201528251839083908110611a5e57611a5e612a1e565b60209081029190910181015160408084019182526000878152600580855282822081015460608701908152898352600686528383208054600181810183559185528785208951919094029093019283558787015183820180546001600160a01b039092166001600160a01b03199092169190911790559451600283015551600382015560808601516004909101805460a088015115156101000261ff00199315159390931661ffff1990911617919091179055878152600a9093528220855191929091869086908110611b3357611b33612a1e565b6020026020010151815260200190815260200160002060006101000a81548160ff02191690831515021790555060096000858152602001908152602001600020838381518110611b8557611b85612a1e565b602090810291909101810151825460018101845560009384529190922001555080611baf81612b24565b915050611a20565b505050565b60026001541415611c0f5760405162461bcd60e51b815260206004820152601f60248201527f5265656e7472616e637947756172643a207265656e7472616e742063616c6c0060448201526064016104d5565b60026001556000838152600660205260409020805483908110611c3457611c34612a1e565b600091825260209091206004600590920201015460ff1615611c685760405162461bcd60e51b81526004016104d590612a34565b6000546001600160a01b03163314611d96576000838152600660205260409020805483908110611c9a57611c9a612a1e565b60009182526020909120600590910201600101546001600160a01b03163314611cfc5760405162461bcd60e51b8152602060048201526014602482015273556e617574686f72697a65642074656e616e742160601b60448201526064016104d5565b611d0461223a565b6000848152600660205260409020805484908110611d2457611d24612a1e565b90600052602060002090600502016002015411611d965760405162461bcd60e51b815260206004820152602a60248201527f43616e206e6f206c6f6e67657220726566756e642c20626f6f6b696e672064616044820152691d19481cdd185c9d195960b21b60648201526084016104d5565b600083815260066020526040902080546001919084908110611dba57611dba612a1e565b6000918252602080832060046005909302019190910180549315156101000261ff001990941693909317909255848152600a825260408082208483528352808220805460ff191690558582526009909252208054611e1a90600190612ad2565b81548110611e2a57611e2a612a1e565b9060005260206000200154600960008581526020019081526020016000208381548110611e5957611e59612a1e565b906000526020600020018190555060096000848152602001908152602001600020805480611e8957611e89612b57565b600190038181906000526020600020016000905590556000600660008581526020019081526020016000208381548110611ec557611ec5612a1e565b906000526020600020906005020160030154905060006064600454600354611eed9190612a91565b611ef79190612ab0565b600086815260056020526040902060060154600354919250611f2a916001600160a01b0390911690610808908490612ad2565b611f3f6108226000546001600160a01b031690565b611f493383612135565b505060018055505050565b611f5c61208b565b600455565b611f6961208b565b6001600160a01b038116611fce5760405162461bcd60e51b815260206004820152602660248201527f4f776e61626c653a206e6577206f776e657220697320746865207a65726f206160448201526564647265737360d01b60648201526084016104d5565b611fd7816120e5565b50565b606060066000838152602001908152602001600020805480602002602001604051908101604052809291908181526020016000905b8282101561096a5760008481526020908190206040805160c08101825260058602909201805483526001808201546001600160a01b031684860152600282015492840192909252600381015460608401526004015460ff8082161515608085015261010090910416151560a0830152908352909201910161200f565b6000546001600160a01b0316331461066c5760405162461bcd60e51b815260206004820181905260248201527f4f776e61626c653a2063616c6c6572206973206e6f7420746865206f776e657260448201526064016104d5565b600080546001600160a01b038381166001600160a01b0319831681178455604051919092169283917f8be0079c531659141344cd1fd0a4f28419497f9722a3daafe3b4186f6b6457e09190a35050565b6000826001600160a01b03168260405160006040518083038185875af1925050503d8060008114612182576040519150601f19603f3d011682016040523d82523d6000602084013e612187565b606091505b5050905080611bb757600080fd5b60006001815b83518110156122325760005b60008681526009602052604090205481101561221f5760008681526009602052604090208054829081106121dd576121dd612a1e565b90600052602060002001548583815181106121fa576121fa612a1e565b6020026020010151141561220d57600092505b8061221781612b24565b9150506121a7565b508061222a81612b24565b91505061219b565b509392505050565b600080612249426103e8612a91565b610470906103e8612b3f565b6040518060c001604052806000815260200160006001600160a01b0316815260200160008152602001600081526020016000151581526020016000151581525090565b8280546122a490612ae9565b90600052602060002090601f0160209004810192826122c6576000855561230c565b82601f106122df57805160ff191683800117855561230c565b8280016001018555821561230c579182015b8281111561230c5782518255916020019190600101906122f1565b50612318929150612385565b5090565b60405180610160016040528060008152602001606081526020016060815260200160608152602001600081526020016000815260200160006001600160a01b03168152602001600015158152602001600015158152602001600015158152602001600081525090565b5b808211156123185760008155600101612386565b600080604083850312156123ad57600080fd5b50508035926020909101359150565b805182526020808201516001600160a01b031690830152604080820151908301526060808201519083015260808082015115159083015260a0908101511515910152565b60c0810161047082846123bc565b634e487b7160e01b600052604160045260246000fd5b604051601f8201601f1916810167ffffffffffffffff8111828210171561244d5761244d61240e565b604052919050565b600082601f83011261246657600080fd5b813567ffffffffffffffff8111156124805761248061240e565b612493601f8201601f1916602001612424565b8181528460208386010111156124a857600080fd5b816020850160208301376000918101602001919091529392505050565b600080604083850312156124d857600080fd5b82359150602083013567ffffffffffffffff8111156124f657600080fd5b61250285828601612455565b9150509250929050565b60006020828403121561251e57600080fd5b5035919050565b6000815180845260005b8181101561254b5760208185018101518683018201520161252f565b8181111561255d576000602083870101525b50601f01601f19169290920160200192915050565b60006020808301818452808551808352604092508286019150828160051b87010184880160005b8381101561260257603f19898403018552815160a08151855288820151898601528782015181898701526125cf82870182612525565b606084810151908801526080938401516001600160a01b0316939096019290925250509386019390860190600101612599565b509098975050505050505050565b600080600080600060a0868803121561262857600080fd5b853567ffffffffffffffff8082111561264057600080fd5b61264c89838a01612455565b9650602088013591508082111561266257600080fd5b61266e89838a01612455565b9550604088013591508082111561268457600080fd5b5061269188828901612455565b9598949750949560608101359550608001359392505050565b60006101608251845260208301518160208601526126ca82860182612525565b915050604083015184820360408601526126e48282612525565b915050606083015184820360608601526126fe8282612525565b9150506080830151608085015260a083015160a085015260c083015161272f60c08601826001600160a01b03169052565b5060e083015161274360e086018215159052565b5061010083810151151590850152610120808401511515908501526101409283015192909301919091525090565b6000602080830181845280855180835260408601915060408160051b870101925083870160005b828110156127c657603f198886030184526127b48583516126aa565b94509285019290850190600101612798565b5092979650505050505050565b6020815260006127e660208301846126aa565b9392505050565b60008060008060008060c0878903121561280657600080fd5b86359550602087013567ffffffffffffffff8082111561282557600080fd5b6128318a838b01612455565b9650604089013591508082111561284757600080fd5b6128538a838b01612455565b9550606089013591508082111561286957600080fd5b5061287689828a01612455565b9350506080870135915060a087013590509295509295509295565b6020808252825182820181905260009190848201906040850190845b818110156128c9578351835292840192918401916001016128ad565b50909695505050505050565b600080604083850312156128e857600080fd5b8235915060208084013567ffffffffffffffff8082111561290857600080fd5b818601915086601f83011261291c57600080fd5b81358181111561292e5761292e61240e565b8060051b915061293f848301612424565b818152918301840191848101908984111561295957600080fd5b938501935b838510156129775784358252938501939085019061295e565b8096505050505050509250929050565b60008060006060848603121561299c57600080fd5b505081359360208301359350604090920135919050565b6000602082840312156129c557600080fd5b81356001600160a01b03811681146127e657600080fd5b6020808252825182820181905260009190848201906040850190845b818110156128c957612a0b8385516123bc565b9284019260c092909201916001016129f8565b634e487b7160e01b600052603260045260246000fd5b60208082526027908201527f41706172746d656e7420616c726561647920636865636b6564206f6e207468696040820152667320646174652160c81b606082015260800190565b634e487b7160e01b600052601160045260246000fd5b6000816000190483118215151615612aab57612aab612a7b565b500290565b600082612acd57634e487b7160e01b600052601260045260246000fd5b500490565b600082821015612ae457612ae4612a7b565b500390565b600181811c90821680612afd57607f821691505b60208210811415612b1e57634e487b7160e01b600052602260045260246000fd5b50919050565b6000600019821415612b3857612b38612a7b565b5060010190565b60008219821115612b5257612b52612a7b565b500190565b634e487b7160e01b600052603160045260246000fdfea26469706673582212207b79676246549518535763b9b10491bd88bbbdacecb2121f450ee13849995e6764736f6c634300080b0033",
  "linkReferences": {},
  "deployedLinkReferences": {}
}