{
  "_format": "hh-sol-artifact-1",
  "contractName": "DappBnb",
  "sourceName": "src/contracts/DappBnb.sol",
  "abi": [
    {
      "inputs": [
        {
          "internalType": "uint256",
          "name": "_taxPercent",
          "type": "uint256"
        },
        {
          "internalType": "uint256",
          "name": "_securityFee",
          "type": "uint256"
        }
      ],
      "stateMutability": "nonpayable",
      "type": "constructor"
    },
    {
      "anonymous": false,
      "inputs": [
        {
          "indexed": true,
          "internalType": "address",
          "name": "previousOwner",
          "type": "address"
        },
        {
          "indexed": true,
          "internalType": "address",
          "name": "newOwner",
          "type": "address"
        }
      ],
      "name": "OwnershipTransferred",
      "type": "event"
    },
    {
      "anonymous": false,
      "inputs": [
        {
          "indexed": false,
          "internalType": "uint256",
          "name": "newFee",
          "type": "uint256"
        }
      ],
      "name": "SecurityFeeUpdated",
      "type": "event"
    },
    {
      "inputs": [
        {
          "internalType": "uint256",
          "name": "appartmentId",
          "type": "uint256"
        },
        {
          "internalType": "string",
          "name": "reviewText",
          "type": "string"
        }
      ],
      "name": "addReview",
      "outputs": [],
      "stateMutability": "nonpayable",
      "type": "function"
    },
    {
      "inputs": [
        {
          "internalType": "uint256",
          "name": "id",
          "type": "uint256"
        },
        {
          "internalType": "uint256[]",
          "name": "dates",
          "type": "uint256[]"
        }
      ],
      "name": "bookApartment",
      "outputs": [],
      "stateMutability": "payable",
      "type": "function"
    },
    {
      "inputs": [
        {
          "internalType": "uint256",
          "name": "id",
          "type": "uint256"
        },
        {
          "internalType": "uint256",
          "name": "bookingId",
          "type": "uint256"
        }
      ],
      "name": "checkInApartment",
      "outputs": [],
      "stateMutability": "nonpayable",
      "type": "function"
    },
    {
      "inputs": [
        {
          "internalType": "string",
          "name": "name",
          "type": "string"
        },
        {
          "internalType": "string",
          "name": "description",
          "type": "string"
        },
        {
          "internalType": "string",
          "name": "images",
          "type": "string"
        },
        {
          "internalType": "uint256",
          "name": "rooms",
          "type": "uint256"
        },
        {
          "internalType": "uint256",
          "name": "price",
          "type": "uint256"
        }
      ],
      "name": "createAppartment",
      "outputs": [],
      "stateMutability": "nonpayable",
      "type": "function"
    },
    {
      "inputs": [
        {
          "internalType": "uint256",
          "name": "id",
          "type": "uint256"
        }
      ],
      "name": "deleteAppartment",
      "outputs": [],
      "stateMutability": "nonpayable",
      "type": "function"
    },
    {
      "inputs": [
        {
          "internalType": "uint256",
          "name": "id",
          "type": "uint256"
        }
      ],
      "name": "getApartment",
      "outputs": [
        {
          "components": [
            {
              "internalType": "uint256",
              "name": "id",
              "type": "uint256"
            },
            {
              "internalType": "string",
              "name": "name",
              "type": "string"
            },
            {
              "internalType": "string",
              "name": "description",
              "type": "string"
            },
            {
              "internalType": "string",
              "name": "images",
              "type": "string"
            },
            {
              "internalType": "uint256",
              "name": "rooms",
              "type": "uint256"
            },
            {
              "internalType": "uint256",
              "name": "price",
              "type": "uint256"
            },
            {
              "internalType": "address",
              "name": "owner",
              "type": "address"
            },
            {
              "internalType": "bool",
              "name": "booked",
              "type": "bool"
            },
            {
              "internalType": "bool",
              "name": "deleted",
              "type": "bool"
            },
            {
              "internalType": "bool",
              "name": "availablity",
              "type": "bool"
            },
            {
              "internalType": "uint256",
              "name": "timestamp",
              "type": "uint256"
            }
          ],
          "internalType": "struct DappBnb.ApartmentStruct",
          "name": "",
          "type": "tuple"
        }
      ],
      "stateMutability": "view",
      "type": "function"
    },
    {
      "inputs": [],
      "name": "getApartments",
      "outputs": [
        {
          "components": [
            {
              "internalType": "uint256",
              "name": "id",
              "type": "uint256"
            },
            {
              "internalType": "string",
              "name": "name",
              "type": "string"
            },
            {
              "internalType": "string",
              "name": "description",
              "type": "string"
            },
            {
              "internalType": "string",
              "name": "images",
              "type": "string"
            },
            {
              "internalType": "uint256",
              "name": "rooms",
              "type": "uint256"
            },
            {
              "internalType": "uint256",
              "name": "price",
              "type": "uint256"
            },
            {
              "internalType": "address",
              "name": "owner",
              "type": "address"
            },
            {
              "internalType": "bool",
              "name": "booked",
              "type": "bool"
            },
            {
              "internalType": "bool",
              "name": "deleted",
              "type": "bool"
            },
            {
              "internalType": "bool",
              "name": "availablity",
              "type": "bool"
            },
            {
              "internalType": "uint256",
              "name": "timestamp",
              "type": "uint256"
            }
          ],
          "internalType": "struct DappBnb.ApartmentStruct[]",
          "name": "Apartments",
          "type": "tuple[]"
        }
      ],
      "stateMutability": "view",
      "type": "function"
    },
    {
      "inputs": [
        {
          "internalType": "uint256",
          "name": "id",
          "type": "uint256"
        },
        {
          "internalType": "uint256",
          "name": "bookingId",
          "type": "uint256"
        }
      ],
      "name": "getBooking",
      "outputs": [
        {
          "components": [
            {
              "internalType": "uint256",
              "name": "id",
              "type": "uint256"
            },
            {
              "internalType": "address",
              "name": "tenant",
              "type": "address"
            },
            {
              "internalType": "uint256",
              "name": "date",
              "type": "uint256"
            },
            {
              "internalType": "uint256",
              "name": "price",
              "type": "uint256"
            },
            {
              "internalType": "bool",
              "name": "checked",
              "type": "bool"
            },
            {
              "internalType": "bool",
              "name": "cancelled",
              "type": "bool"
            }
          ],
          "internalType": "struct DappBnb.BookingStruct",
          "name": "",
          "type": "tuple"
        }
      ],
      "stateMutability": "view",
      "type": "function"
    },
    {
      "inputs": [
        {
          "internalType": "uint256",
          "name": "id",
          "type": "uint256"
        }
      ],
      "name": "getBookings",
      "outputs": [
        {
          "components": [
            {
              "internalType": "uint256",
              "name": "id",
              "type": "uint256"
            },
            {
              "internalType": "address",
              "name": "tenant",
              "type": "address"
            },
            {
              "internalType": "uint256",
              "name": "date",
              "type": "uint256"
            },
            {
              "internalType": "uint256",
              "name": "price",
              "type": "uint256"
            },
            {
              "internalType": "bool",
              "name": "checked",
              "type": "bool"
            },
            {
              "internalType": "bool",
              "name": "cancelled",
              "type": "bool"
            }
          ],
          "internalType": "struct DappBnb.BookingStruct[]",
          "name": "",
          "type": "tuple[]"
        }
      ],
      "stateMutability": "view",
      "type": "function"
    },
    {
      "inputs": [
        {
          "internalType": "uint256",
          "name": "appartmentId",
          "type": "uint256"
        }
      ],
      "name": "getReviews",
      "outputs": [
        {
          "components": [
            {
              "internalType": "uint256",
              "name": "id",
              "type": "uint256"
            },
            {
              "internalType": "uint256",
              "name": "appartmentId",
              "type": "uint256"
            },
            {
              "internalType": "string",
              "name": "reviewText",
              "type": "string"
            },
            {
              "internalType": "uint256",
              "name": "timestamp",
              "type": "uint256"
            },
            {
              "internalType": "address",
              "name": "owner",
              "type": "address"
            }
          ],
          "internalType": "struct DappBnb.ReviewStruct[]",
          "name": "",
          "type": "tuple[]"
        }
      ],
      "stateMutability": "view",
      "type": "function"
    },
    {
      "inputs": [
        {
          "internalType": "uint256",
          "name": "id",
          "type": "uint256"
        }
      ],
      "name": "getUnavailableDates",
      "outputs": [
        {
          "internalType": "uint256[]",
          "name": "",
          "type": "uint256[]"
        }
      ],
      "stateMutability": "view",
      "type": "function"
    },
    {
      "inputs": [],
      "name": "owner",
      "outputs": [
        {
          "internalType": "address",
          "name": "",
          "type": "address"
        }
      ],
      "stateMutability": "view",
      "type": "function"
    },
    {
      "inputs": [
        {
          "internalType": "uint256",
          "name": "id",
          "type": "uint256"
        },
        {
          "internalType": "uint256",
          "name": "bookingId",
          "type": "uint256"
        },
        {
          "internalType": "uint256",
          "name": "date",
          "type": "uint256"
        }
      ],
      "name": "refundBooking",
      "outputs": [],
      "stateMutability": "nonpayable",
      "type": "function"
    },
    {
      "inputs": [],
      "name": "renounceOwnership",
      "outputs": [],
      "stateMutability": "nonpayable",
      "type": "function"
    },
    {
      "inputs": [],
      "name": "returnSecurityFee",
      "outputs": [
        {
          "internalType": "uint256",
          "name": "",
          "type": "uint256"
        }
      ],
      "stateMutability": "view",
      "type": "function"
    },
    {
      "inputs": [],
      "name": "returnTaxPercent",
      "outputs": [
        {
          "internalType": "uint256",
          "name": "",
          "type": "uint256"
        }
      ],
      "stateMutability": "view",
      "type": "function"
    },
    {
      "inputs": [],
      "name": "securityFee",
      "outputs": [
        {
          "internalType": "uint256",
          "name": "",
          "type": "uint256"
        }
      ],
      "stateMutability": "view",
      "type": "function"
    },
    {
      "inputs": [],
      "name": "taxPercent",
      "outputs": [
        {
          "internalType": "uint256",
          "name": "",
          "type": "uint256"
        }
      ],
      "stateMutability": "view",
      "type": "function"
    },
    {
      "inputs": [
        {
          "internalType": "address",
          "name": "newOwner",
          "type": "address"
        }
      ],
      "name": "transferOwnership",
      "outputs": [],
      "stateMutability": "nonpayable",
      "type": "function"
    },
    {
      "inputs": [
        {
          "internalType": "uint256",
          "name": "id",
          "type": "uint256"
        },
        {
          "internalType": "string",
          "name": "name",
          "type": "string"
        },
        {
          "internalType": "string",
          "name": "description",
          "type": "string"
        },
        {
          "internalType": "string",
          "name": "images",
          "type": "string"
        },
        {
          "internalType": "uint256",
          "name": "rooms",
          "type": "uint256"
        },
        {
          "internalType": "uint256",
          "name": "price",
          "type": "uint256"
        }
      ],
      "name": "updateAppartment",
      "outputs": [],
      "stateMutability": "nonpayable",
      "type": "function"
    },
    {
      "inputs": [
        {
          "internalType": "uint256",
          "name": "newFee",
          "type": "uint256"
        }
      ],
      "name": "updateSecurityFee",
      "outputs": [],
      "stateMutability": "nonpayable",
      "type": "function"
    },
    {
      "inputs": [
        {
          "internalType": "uint256",
          "name": "newTaxPercent",
          "type": "uint256"
        }
      ],
      "name": "updateTaxPercent",
      "outputs": [],
      "stateMutability": "nonpayable",
      "type": "function"
    }
  ],
  "bytecode": "0x60806040523480156200001157600080fd5b5060405162002cbf38038062002cbf8339810160408190526200003491620000a2565b6200003f3362000052565b60018055600491909155600355620000c7565b600080546001600160a01b038381166001600160a01b0319831681178455604051919092169283917f8be0079c531659141344cd1fd0a4f28419497f9722a3daafe3b4186f6b6457e09190a35050565b60008060408385031215620000b657600080fd5b505080516020909101519092909150565b612be880620000d76000396000f3fe6080604052600436106101355760003560e01c8063c4452e06116100ab578063df6e02221161006f578063df6e022214610363578063e16ca8d114610376578063e204945b14610396578063eb461445146103ab578063f2fde38b146103cb578063f4010995146103eb57600080fd5b8063c4452e06146102b3578063d5ea1cb8146102e0578063d68e130214610300578063db2f80b714610316578063dec30d391461034357600080fd5b80637541f41c116100fd5780637541f41c146101e657806378419f61146101fc5780638da5cb5b1461021c5780639d4a225514610244578063ade652db14610271578063b1c980991461029157600080fd5b8063455b30701461013a57806345df58c6146101705780635bb0c5d61461018f57806361591149146101b1578063715018a6146101d1575b600080fd5b34801561014657600080fd5b5061015a6101553660046123df565b610418565b6040516101679190612445565b60405180910390f35b34801561017c57600080fd5b506003545b604051908152602001610167565b34801561019b57600080fd5b506101af6101aa36600461250a565b6104b2565b005b3480156101bd57600080fd5b506101af6101cc366004612551565b610646565b3480156101dd57600080fd5b506101af610696565b3480156101f257600080fd5b5061018160045481565b34801561020857600080fd5b506101af6102173660046123df565b6106aa565b34801561022857600080fd5b506000546040516001600160a01b039091168152602001610167565b34801561025057600080fd5b5061026461025f366004612551565b610876565b60405161016791906125b7565b34801561027d57600080fd5b506101af61028c366004612655565b6109b1565b34801561029d57600080fd5b506102a6610c88565b60405161016791906127b6565b3480156102bf57600080fd5b506102d36102ce366004612551565b610fe6565b6040516101679190612818565b3480156102ec57600080fd5b506101af6102fb366004612832565b611238565b34801561030c57600080fd5b5061018160035481565b34801561032257600080fd5b50610336610331366004612551565b6117f6565b60405161016791906128d6565b34801561034f57600080fd5b506101af61035e366004612551565b611858565b6101af61037136600461291a565b611947565b34801561038257600080fd5b506101af6103913660046129cc565b611c01565b3480156103a257600080fd5b50600454610181565b3480156103b757600080fd5b506101af6103c6366004612551565b611f99565b3480156103d757600080fd5b506101af6103e63660046129f8565b611fa6565b3480156103f757600080fd5b5061040b610406366004612551565b61201f565b6040516101679190612a21565b61042061229a565b600083815260066020526040902080548390811061044057610440612a63565b60009182526020918290206040805160c08101825260059093029091018054835260018101546001600160a01b0316938301939093526002830154908201526003820154606082015260049091015460ff8082161515608084015261010090910416151560a082015290505b92915050565b60008281526008602052604090205460ff16151560011461051a5760405162461bcd60e51b815260206004820152601860248201527f4170706172746d656e74206e6f7420617661696c61626c65000000000000000060448201526064015b60405180910390fd5b600081511161056b5760405162461bcd60e51b815260206004820152601b60248201527f52657669657720746578742063616e6e6f7420626520656d70747900000000006044820152606401610511565b6105a66040518060a001604052806000815260200160008152602001606081526020016000815260200160006001600160a01b031681525090565b60008381526007602081815260408084208054808752868401898152928701888152426060890152336080890152948452600180820183559186529483902086516005909602019485559051908401559051805184939261060e9260028501929101906122dd565b5060608201516003820155608090910151600490910180546001600160a01b0319166001600160a01b03909216919091179055505050565b61064e6120d0565b6000811161065b57600080fd5b60038190556040518181527f3790aeee57809af98fad1b89b9266c7934e03ed46702b541f2fef6f1e89d68279060200160405180910390a150565b61069e6120d0565b6106a8600061212a565b565b60008281526006602052604090208054829081106106ca576106ca612a63565b60009182526020909120600590910201600101546001600160a01b0316331461072c5760405162461bcd60e51b8152602060048201526014602482015273556e617574686f72697a65642074656e616e742160601b6044820152606401610511565b600082815260066020526040902080548290811061074c5761074c612a63565b600091825260209091206004600590920201015460ff16156107805760405162461bcd60e51b815260040161051190612a79565b6000828152600660205260409020805460019190839081106107a4576107a4612a63565b60009182526020808320600592909202909101600401805460ff1916931515939093179092558381526006909152604081208054839081106107e8576107e8612a63565b9060005260206000209060050201600301549050600060646004548361080e9190612ad6565b6108189190612af5565b600085815260056020526040902060060154909150610849906001600160a01b03166108448385612b17565b61217a565b61086461085e6000546001600160a01b031690565b8261217a565b6108703360035461217a565b50505050565b606060076000838152602001908152602001600020805480602002602001604051908101604052809291908181526020016000905b828210156109a657838290600052602060002090600502016040518060a001604052908160008201548152602001600182015481526020016002820180546108f290612b2e565b80601f016020809104026020016040519081016040528092919081815260200182805461091e90612b2e565b801561096b5780601f106109405761010080835404028352916020019161096b565b820191906000526020600020905b81548152906001019060200180831161094e57829003601f168201915b505050918352505060038201546020808301919091526004909201546001600160a01b031660409091015290825260019290920191016108ab565b505050509050919050565b60008551116109f95760405162461bcd60e51b81526020600482015260146024820152734e616d652063616e6e6f7420626520656d70747960601b6044820152606401610511565b6000845111610a4a5760405162461bcd60e51b815260206004820152601b60248201527f4465736372697074696f6e2063616e6e6f7420626520656d70747900000000006044820152606401610511565b6000835111610a945760405162461bcd60e51b8152602060048201526016602482015275496d616765732063616e6e6f7420626520656d70747960501b6044820152606401610511565b60008211610adb5760405162461bcd60e51b8152602060048201526014602482015273526f6f6d732063616e6e6f74206265207a65726f60601b6044820152606401610511565b60008111610b225760405162461bcd60e51b815260206004820152601460248201527350726963652063616e6e6f74206265207a65726f60601b6044820152606401610511565b610b30600280546001019055565b610b38612361565b60028054808352602080840189815260408086018a9052606086018990526080860188905260a086018790523360c08701526001610120870181905242610140880152600094855260088452818520805460ff191682179055945484526005835290922084518155915180518594610bb5939085019201906122dd565b5060408201518051610bd19160028401916020909101906122dd565b5060608201518051610bed9160038401916020909101906122dd565b506080820151600482015560a0820151600582015560c082015160068201805460e08501516101008601516101208701511515600160b01b0260ff60b01b19911515600160a81b029190911661ffff60a81b19921515600160a01b026001600160a81b03199094166001600160a01b039096169590951792909217169290921791909117905561014090910151600790910155505050505050565b6060600060015b6002548111610cd857600081815260056020526040902060060154600160a81b900460ff16610cc65781610cc281612b69565b9250505b80610cd081612b69565b915050610c8f565b508067ffffffffffffffff811115610cf257610cf2612453565b604051908082528060200260200182016040528015610d2b57816020015b610d18612361565b815260200190600190039081610d105790505b509150600060015b6002548111610fe057600081815260056020526040902060060154600160a81b900460ff16610fce57600560008281526020019081526020016000206040518061016001604052908160008201548152602001600182018054610d9590612b2e565b80601f0160208091040260200160405190810160405280929190818152602001828054610dc190612b2e565b8015610e0e5780601f10610de357610100808354040283529160200191610e0e565b820191906000526020600020905b815481529060010190602001808311610df157829003601f168201915b50505050508152602001600282018054610e2790612b2e565b80601f0160208091040260200160405190810160405280929190818152602001828054610e5390612b2e565b8015610ea05780601f10610e7557610100808354040283529160200191610ea0565b820191906000526020600020905b815481529060010190602001808311610e8357829003601f168201915b50505050508152602001600382018054610eb990612b2e565b80601f0160208091040260200160405190810160405280929190818152602001828054610ee590612b2e565b8015610f325780601f10610f0757610100808354040283529160200191610f32565b820191906000526020600020905b815481529060010190602001808311610f1557829003601f168201915b5050509183525050600482015460208201526005820154604082015260068201546001600160a01b038116606083015260ff600160a01b8204811615156080840152600160a81b82048116151560a0840152600160b01b90910416151560c082015260079091015460e0909101528451859084908110610fb457610fb4612a63565b60200260200101819052508180610fca90612b69565b9250505b80610fd881612b69565b915050610d33565b50505090565b610fee612361565b60056000838152602001908152602001600020604051806101600160405290816000820154815260200160018201805461102790612b2e565b80601f016020809104026020016040519081016040528092919081815260200182805461105390612b2e565b80156110a05780601f10611075576101008083540402835291602001916110a0565b820191906000526020600020905b81548152906001019060200180831161108357829003601f168201915b505050505081526020016002820180546110b990612b2e565b80601f01602080910402602001604051908101604052809291908181526020018280546110e590612b2e565b80156111325780601f1061110757610100808354040283529160200191611132565b820191906000526020600020905b81548152906001019060200180831161111557829003601f168201915b5050505050815260200160038201805461114b90612b2e565b80601f016020809104026020016040519081016040528092919081815260200182805461117790612b2e565b80156111c45780601f10611199576101008083540402835291602001916111c4565b820191906000526020600020905b8154815290600101906020018083116111a757829003601f168201915b5050509183525050600482015460208201526005820154604082015260068201546001600160a01b038116606083015260ff600160a01b8204811615156080840152600160a81b82048116151560a0840152600160b01b90910416151560c082015260079091015460e09091015292915050565b60008681526008602052604090205460ff1615156001146112925760405162461bcd60e51b8152602060048201526014602482015273105c1c185c9d1b595b9d081b9bdd08199bdd5b9960621b6044820152606401610511565b6000868152600560205260409020600601546001600160a01b031633146113065760405162461bcd60e51b815260206004820152602260248201527f556e617574686f72697a656420706572736f6e6e656c2c206f776e6572206f6e6044820152616c7960f01b6064820152608401610511565b600085511161134e5760405162461bcd60e51b81526020600482015260146024820152734e616d652063616e6e6f7420626520656d70747960601b6044820152606401610511565b600084511161139f5760405162461bcd60e51b815260206004820152601b60248201527f4465736372697074696f6e2063616e6e6f7420626520656d70747900000000006044820152606401610511565b60008351116113e95760405162461bcd60e51b8152602060048201526016602482015275496d616765732063616e6e6f7420626520656d70747960501b6044820152606401610511565b600082116114305760405162461bcd60e51b8152602060048201526014602482015273526f6f6d732063616e6e6f74206265207a65726f60601b6044820152606401610511565b600081116114775760405162461bcd60e51b815260206004820152601460248201527350726963652063616e6e6f74206265207a65726f60601b6044820152606401610511565b60006005600088815260200190815260200160002060405180610160016040529081600082015481526020016001820180546114b290612b2e565b80601f01602080910402602001604051908101604052809291908181526020018280546114de90612b2e565b801561152b5780601f106115005761010080835404028352916020019161152b565b820191906000526020600020905b81548152906001019060200180831161150e57829003601f168201915b5050505050815260200160028201805461154490612b2e565b80601f016020809104026020016040519081016040528092919081815260200182805461157090612b2e565b80156115bd5780601f10611592576101008083540402835291602001916115bd565b820191906000526020600020905b8154815290600101906020018083116115a057829003601f168201915b505050505081526020016003820180546115d690612b2e565b80601f016020809104026020016040519081016040528092919081815260200182805461160290612b2e565b801561164f5780601f106116245761010080835404028352916020019161164f565b820191906000526020600020905b81548152906001019060200180831161163257829003601f168201915b5050509183525050600482015460208083019190915260058084015460408085019190915260068501546001600160a01b03811660608087019190915260ff600160a01b830481161515608080890191909152600160a81b84048216151560a0808a0191909152600160b01b909404909116151560c088015260079097015460e0909601959095528684018d81528783018d90529487018b905294860189905293850187905260008c815290825292909220835181559051805193945084939192611722926001850192909101906122dd565b506040820151805161173e9160028401916020909101906122dd565b506060820151805161175a9160038401916020909101906122dd565b506080820151600482015560a0820151600582015560c082015160068201805460e08501516101008601516101208701511515600160b01b0260ff60b01b19911515600160a81b029190911661ffff60a81b19921515600160a01b026001600160a81b03199094166001600160a01b03909616959095179290921716929092179190911790556101409091015160079091015550505050505050565b60008181526009602090815260409182902080548351818402810184019094528084526060939283018282801561184c57602002820191906000526020600020905b815481526020019060010190808311611838575b50505050509050919050565b60008181526008602052604090205460ff1615156001146118b25760405162461bcd60e51b8152602060048201526014602482015273105c1c185c9d1b595b9d081b9bdd08199bdd5b9960621b6044820152606401610511565b6000818152600560205260409020600601546001600160a01b031633146119115760405162461bcd60e51b8152602060048201526013602482015272556e617574686f72697a656420656e7469747960681b6044820152606401610511565b6000908152600860209081526040808320805460ff1916905560059091529020600601805460ff60a81b1916600160a81b179055565b60008281526008602052604090205460ff1661199c5760405162461bcd60e51b815260206004820152601460248201527341706172746d656e74206e6f7420666f756e642160601b6044820152606401610511565b6003548151600084815260056020819052604090912001546119be9190612ad6565b6119c89190612b84565b341015611a0c5760405162461bcd60e51b8152602060048201526012602482015271496e73756666696369656e742066756e642160701b6044820152606401610511565b611a1682826121da565b611a625760405162461bcd60e51b815260206004820152601e60248201527f426f6f6b6564206461746520666f756e6420616d6f6e672064617465732100006044820152606401610511565b60005b8151811015611bfc57611a7661229a565b600084815260066020908152604090912054825233908201528251839083908110611aa357611aa3612a63565b60209081029190910181015160408084019182526000878152600580855282822081015460608701908152898352600686528383208054600181810183559185528785208951919094029093019283558787015183820180546001600160a01b039092166001600160a01b03199092169190911790559451600283015551600382015560808601516004909101805460a088015115156101000261ff00199315159390931661ffff1990911617919091179055878152600a9093528220855191929091869086908110611b7857611b78612a63565b6020026020010151815260200190815260200160002060006101000a81548160ff02191690831515021790555060096000858152602001908152602001600020838381518110611bca57611bca612a63565b602090810291909101810151825460018101845560009384529190922001555080611bf481612b69565b915050611a65565b505050565b60026001541415611c545760405162461bcd60e51b815260206004820152601f60248201527f5265656e7472616e637947756172643a207265656e7472616e742063616c6c006044820152606401610511565b60026001556000838152600660205260409020805483908110611c7957611c79612a63565b600091825260209091206004600590920201015460ff1615611cad5760405162461bcd60e51b815260040161051190612a79565b6000546001600160a01b03163314611ddb576000838152600660205260409020805483908110611cdf57611cdf612a63565b60009182526020909120600590910201600101546001600160a01b03163314611d415760405162461bcd60e51b8152602060048201526014602482015273556e617574686f72697a65642074656e616e742160601b6044820152606401610511565b611d4961227f565b6000848152600660205260409020805484908110611d6957611d69612a63565b90600052602060002090600502016002015411611ddb5760405162461bcd60e51b815260206004820152602a60248201527f43616e206e6f206c6f6e67657220726566756e642c20626f6f6b696e672064616044820152691d19481cdd185c9d195960b21b6064820152608401610511565b600083815260066020526040902080546001919084908110611dff57611dff612a63565b6000918252602080832060046005909302019190910180549315156101000261ff001990941693909317909255848152600a825260408082208483528352808220805460ff191690558582526009909252208054611e5f90600190612b17565b81548110611e6f57611e6f612a63565b9060005260206000200154600960008581526020019081526020016000208381548110611e9e57611e9e612a63565b906000526020600020018190555060096000848152602001908152602001600020805480611ece57611ece612b9c565b600190038181906000526020600020016000905590556000600660008581526020019081526020016000208381548110611f0a57611f0a612a63565b906000526020600020906005020160030154905060006064600454600354611f329190612ad6565b611f3c9190612af5565b600086815260056020526040902060060154600354919250611f6f916001600160a01b0390911690610844908490612b17565b611f8461085e6000546001600160a01b031690565b611f8e338361217a565b505060018055505050565b611fa16120d0565b600455565b611fae6120d0565b6001600160a01b0381166120135760405162461bcd60e51b815260206004820152602660248201527f4f776e61626c653a206e6577206f776e657220697320746865207a65726f206160448201526564647265737360d01b6064820152608401610511565b61201c8161212a565b50565b606060066000838152602001908152602001600020805480602002602001604051908101604052809291908181526020016000905b828210156109a65760008481526020908190206040805160c08101825260058602909201805483526001808201546001600160a01b031684860152600282015492840192909252600381015460608401526004015460ff8082161515608085015261010090910416151560a08301529083529092019101612054565b6000546001600160a01b031633146106a85760405162461bcd60e51b815260206004820181905260248201527f4f776e61626c653a2063616c6c6572206973206e6f7420746865206f776e65726044820152606401610511565b600080546001600160a01b038381166001600160a01b0319831681178455604051919092169283917f8be0079c531659141344cd1fd0a4f28419497f9722a3daafe3b4186f6b6457e09190a35050565b6000826001600160a01b03168260405160006040518083038185875af1925050503d80600081146121c7576040519150601f19603f3d011682016040523d82523d6000602084013e6121cc565b606091505b5050905080611bfc57600080fd5b60006001815b83518110156122775760005b60008681526009602052604090205481101561226457600086815260096020526040902080548290811061222257612222612a63565b906000526020600020015485838151811061223f5761223f612a63565b6020026020010151141561225257600092505b8061225c81612b69565b9150506121ec565b508061226f81612b69565b9150506121e0565b509392505050565b60008061228e426103e8612ad6565b6104ac906103e8612b84565b6040518060c001604052806000815260200160006001600160a01b0316815260200160008152602001600081526020016000151581526020016000151581525090565b8280546122e990612b2e565b90600052602060002090601f01602090048101928261230b5760008555612351565b82601f1061232457805160ff1916838001178555612351565b82800160010185558215612351579182015b82811115612351578251825591602001919060010190612336565b5061235d9291506123ca565b5090565b60405180610160016040528060008152602001606081526020016060815260200160608152602001600081526020016000815260200160006001600160a01b03168152602001600015158152602001600015158152602001600015158152602001600081525090565b5b8082111561235d57600081556001016123cb565b600080604083850312156123f257600080fd5b50508035926020909101359150565b805182526020808201516001600160a01b031690830152604080820151908301526060808201519083015260808082015115159083015260a0908101511515910152565b60c081016104ac8284612401565b634e487b7160e01b600052604160045260246000fd5b604051601f8201601f1916810167ffffffffffffffff8111828210171561249257612492612453565b604052919050565b600082601f8301126124ab57600080fd5b813567ffffffffffffffff8111156124c5576124c5612453565b6124d8601f8201601f1916602001612469565b8181528460208386010111156124ed57600080fd5b816020850160208301376000918101602001919091529392505050565b6000806040838503121561251d57600080fd5b82359150602083013567ffffffffffffffff81111561253b57600080fd5b6125478582860161249a565b9150509250929050565b60006020828403121561256357600080fd5b5035919050565b6000815180845260005b8181101561259057602081850181015186830182015201612574565b818111156125a2576000602083870101525b50601f01601f19169290920160200192915050565b60006020808301818452808551808352604092508286019150828160051b87010184880160005b8381101561264757603f19898403018552815160a08151855288820151898601528782015181898701526126148287018261256a565b606084810151908801526080938401516001600160a01b03169390960192909252505093860193908601906001016125de565b509098975050505050505050565b600080600080600060a0868803121561266d57600080fd5b853567ffffffffffffffff8082111561268557600080fd5b61269189838a0161249a565b965060208801359150808211156126a757600080fd5b6126b389838a0161249a565b955060408801359150808211156126c957600080fd5b506126d68882890161249a565b9598949750949560608101359550608001359392505050565b600061016082518452602083015181602086015261270f8286018261256a565b91505060408301518482036040860152612729828261256a565b91505060608301518482036060860152612743828261256a565b9150506080830151608085015260a083015160a085015260c083015161277460c08601826001600160a01b03169052565b5060e083015161278860e086018215159052565b5061010083810151151590850152610120808401511515908501526101409283015192909301919091525090565b6000602080830181845280855180835260408601915060408160051b870101925083870160005b8281101561280b57603f198886030184526127f98583516126ef565b945092850192908501906001016127dd565b5092979650505050505050565b60208152600061282b60208301846126ef565b9392505050565b60008060008060008060c0878903121561284b57600080fd5b86359550602087013567ffffffffffffffff8082111561286a57600080fd5b6128768a838b0161249a565b9650604089013591508082111561288c57600080fd5b6128988a838b0161249a565b955060608901359150808211156128ae57600080fd5b506128bb89828a0161249a565b9350506080870135915060a087013590509295509295509295565b6020808252825182820181905260009190848201906040850190845b8181101561290e578351835292840192918401916001016128f2565b50909695505050505050565b6000806040838503121561292d57600080fd5b8235915060208084013567ffffffffffffffff8082111561294d57600080fd5b818601915086601f83011261296157600080fd5b81358181111561297357612973612453565b8060051b9150612984848301612469565b818152918301840191848101908984111561299e57600080fd5b938501935b838510156129bc578435825293850193908501906129a3565b8096505050505050509250929050565b6000806000606084860312156129e157600080fd5b505081359360208301359350604090920135919050565b600060208284031215612a0a57600080fd5b81356001600160a01b038116811461282b57600080fd5b6020808252825182820181905260009190848201906040850190845b8181101561290e57612a50838551612401565b9284019260c09290920191600101612a3d565b634e487b7160e01b600052603260045260246000fd5b60208082526027908201527f41706172746d656e7420616c726561647920636865636b6564206f6e207468696040820152667320646174652160c81b606082015260800190565b634e487b7160e01b600052601160045260246000fd5b6000816000190483118215151615612af057612af0612ac0565b500290565b600082612b1257634e487b7160e01b600052601260045260246000fd5b500490565b600082821015612b2957612b29612ac0565b500390565b600181811c90821680612b4257607f821691505b60208210811415612b6357634e487b7160e01b600052602260045260246000fd5b50919050565b6000600019821415612b7d57612b7d612ac0565b5060010190565b60008219821115612b9757612b97612ac0565b500190565b634e487b7160e01b600052603160045260246000fdfea2646970667358221220f1c0895f40e083614c743714d1a24c4c88c0e365f981aac9bca955af7c8f6bb064736f6c634300080b0033",
  "linkReferences": {},
  "deployedLinkReferences": {}
}