{
  "_format": "hh-sol-artifact-1",
  "contractName": "DappBnb",
  "sourceName": "src/contracts/DappBnb.sol",
  "abi": [
    {
      "inputs": [
        {
          "internalType": "uint256",
          "name": "_taxPercent",
          "type": "uint256"
        },
        {
          "internalType": "uint256",
          "name": "_securityFee",
          "type": "uint256"
        }
      ],
      "stateMutability": "nonpayable",
      "type": "constructor"
    },
    {
      "anonymous": false,
      "inputs": [
        {
          "indexed": false,
          "internalType": "uint256",
          "name": "newFee",
          "type": "uint256"
        }
      ],
      "name": "SecurityFeeUpdated",
      "type": "event"
    },
    {
      "inputs": [
        {
          "internalType": "uint256",
          "name": "id",
          "type": "uint256"
        },
        {
          "internalType": "uint256[]",
          "name": "selected_dates",
          "type": "uint256[]"
        }
      ],
      "name": "bookApartment",
      "outputs": [
        {
          "internalType": "bool",
          "name": "",
          "type": "bool"
        }
      ],
      "stateMutability": "payable",
      "type": "function"
    },
    {
      "inputs": [
        {
          "internalType": "uint256",
          "name": "id",
          "type": "uint256"
        },
        {
          "internalType": "uint256",
          "name": "bookingId",
          "type": "uint256"
        }
      ],
      "name": "checkInApartment",
      "outputs": [
        {
          "internalType": "bool",
          "name": "",
          "type": "bool"
        }
      ],
      "stateMutability": "nonpayable",
      "type": "function"
    },
    {
      "inputs": [
        {
          "internalType": "string",
          "name": "name",
          "type": "string"
        },
        {
          "internalType": "string",
          "name": "description",
          "type": "string"
        },
        {
          "internalType": "string",
          "name": "image",
          "type": "string"
        },
        {
          "internalType": "uint256",
          "name": "rooms",
          "type": "uint256"
        },
        {
          "internalType": "uint256",
          "name": "price",
          "type": "uint256"
        }
      ],
      "name": "createAppartment",
      "outputs": [],
      "stateMutability": "nonpayable",
      "type": "function"
    },
    {
      "inputs": [
        {
          "internalType": "uint256",
          "name": "id",
          "type": "uint256"
        }
      ],
      "name": "deleteAppartment",
      "outputs": [],
      "stateMutability": "nonpayable",
      "type": "function"
    },
    {
      "inputs": [],
      "name": "getApartments",
      "outputs": [
        {
          "components": [
            {
              "internalType": "uint256",
              "name": "id",
              "type": "uint256"
            },
            {
              "internalType": "string",
              "name": "name",
              "type": "string"
            },
            {
              "internalType": "string",
              "name": "description",
              "type": "string"
            },
            {
              "internalType": "string",
              "name": "image",
              "type": "string"
            },
            {
              "internalType": "uint256",
              "name": "rooms",
              "type": "uint256"
            },
            {
              "internalType": "uint256",
              "name": "price",
              "type": "uint256"
            },
            {
              "internalType": "address",
              "name": "owner",
              "type": "address"
            },
            {
              "internalType": "bool",
              "name": "booked",
              "type": "bool"
            },
            {
              "internalType": "bool",
              "name": "deleted",
              "type": "bool"
            },
            {
              "internalType": "bool",
              "name": "availablity",
              "type": "bool"
            },
            {
              "internalType": "uint256",
              "name": "timestamp",
              "type": "uint256"
            }
          ],
          "internalType": "struct DappBnb.ApartmentStruct[]",
          "name": "Apartments",
          "type": "tuple[]"
        }
      ],
      "stateMutability": "view",
      "type": "function"
    },
    {
      "inputs": [
        {
          "internalType": "uint256",
          "name": "id",
          "type": "uint256"
        }
      ],
      "name": "getAppartment",
      "outputs": [
        {
          "components": [
            {
              "internalType": "uint256",
              "name": "id",
              "type": "uint256"
            },
            {
              "internalType": "string",
              "name": "name",
              "type": "string"
            },
            {
              "internalType": "string",
              "name": "description",
              "type": "string"
            },
            {
              "internalType": "string",
              "name": "image",
              "type": "string"
            },
            {
              "internalType": "uint256",
              "name": "rooms",
              "type": "uint256"
            },
            {
              "internalType": "uint256",
              "name": "price",
              "type": "uint256"
            },
            {
              "internalType": "address",
              "name": "owner",
              "type": "address"
            },
            {
              "internalType": "bool",
              "name": "booked",
              "type": "bool"
            },
            {
              "internalType": "bool",
              "name": "deleted",
              "type": "bool"
            },
            {
              "internalType": "bool",
              "name": "availablity",
              "type": "bool"
            },
            {
              "internalType": "uint256",
              "name": "timestamp",
              "type": "uint256"
            }
          ],
          "internalType": "struct DappBnb.ApartmentStruct",
          "name": "",
          "type": "tuple"
        }
      ],
      "stateMutability": "view",
      "type": "function"
    },
    {
      "inputs": [
        {
          "internalType": "uint256",
          "name": "id",
          "type": "uint256"
        }
      ],
      "name": "getBookings",
      "outputs": [
        {
          "components": [
            {
              "internalType": "uint256",
              "name": "id",
              "type": "uint256"
            },
            {
              "internalType": "address",
              "name": "tenant",
              "type": "address"
            },
            {
              "internalType": "uint256",
              "name": "selected_date",
              "type": "uint256"
            },
            {
              "internalType": "uint256",
              "name": "price",
              "type": "uint256"
            },
            {
              "internalType": "bool",
              "name": "checked",
              "type": "bool"
            }
          ],
          "internalType": "struct DappBnb.BookingStruct[]",
          "name": "",
          "type": "tuple[]"
        }
      ],
      "stateMutability": "view",
      "type": "function"
    },
    {
      "inputs": [],
      "name": "owner",
      "outputs": [
        {
          "internalType": "address",
          "name": "",
          "type": "address"
        }
      ],
      "stateMutability": "view",
      "type": "function"
    },
    {
      "inputs": [
        {
          "internalType": "uint256",
          "name": "id",
          "type": "uint256"
        },
        {
          "internalType": "uint256",
          "name": "bookingId",
          "type": "uint256"
        }
      ],
      "name": "refundBooking",
      "outputs": [
        {
          "internalType": "bool",
          "name": "",
          "type": "bool"
        }
      ],
      "stateMutability": "nonpayable",
      "type": "function"
    },
    {
      "inputs": [],
      "name": "securityFee",
      "outputs": [
        {
          "internalType": "uint256",
          "name": "",
          "type": "uint256"
        }
      ],
      "stateMutability": "view",
      "type": "function"
    },
    {
      "inputs": [],
      "name": "taxPercent",
      "outputs": [
        {
          "internalType": "uint256",
          "name": "",
          "type": "uint256"
        }
      ],
      "stateMutability": "view",
      "type": "function"
    },
    {
      "inputs": [],
      "name": "totalAppartments",
      "outputs": [
        {
          "internalType": "uint256",
          "name": "",
          "type": "uint256"
        }
      ],
      "stateMutability": "view",
      "type": "function"
    },
    {
      "inputs": [
        {
          "internalType": "uint256",
          "name": "id",
          "type": "uint256"
        },
        {
          "internalType": "string",
          "name": "name",
          "type": "string"
        },
        {
          "internalType": "string",
          "name": "description",
          "type": "string"
        },
        {
          "internalType": "string",
          "name": "image",
          "type": "string"
        },
        {
          "internalType": "uint256",
          "name": "rooms",
          "type": "uint256"
        },
        {
          "internalType": "uint256",
          "name": "price",
          "type": "uint256"
        }
      ],
      "name": "updateAppartment",
      "outputs": [],
      "stateMutability": "nonpayable",
      "type": "function"
    },
    {
      "inputs": [
        {
          "internalType": "uint256",
          "name": "newFee",
          "type": "uint256"
        }
      ],
      "name": "updateSecurityFee",
      "outputs": [],
      "stateMutability": "nonpayable",
      "type": "function"
    },
    {
      "inputs": [
        {
          "internalType": "uint256",
          "name": "newTaxPercent",
          "type": "uint256"
        }
      ],
      "name": "updateTaxPercent",
      "outputs": [],
      "stateMutability": "nonpayable",
      "type": "function"
    }
  ],
  "bytecode": "0x608060405234801561001057600080fd5b5060405161200338038061200383398101604081905261002f9161004f565b600380546001600160a01b03191633179055600191909155600055610073565b6000806040838503121561006257600080fd5b505080516020909101519092909150565b611f81806100826000396000f3fe6080604052600436106100e85760003560e01c8063b1c980991161008a578063df6e022211610059578063df6e022214610289578063e629ca511461029c578063eb461445146102b2578063f4010995146102d257600080fd5b8063b1c9809914610211578063d5ea1cb814610233578063d68e130214610253578063dec30d391461026957600080fd5b80637541f41c116100c65780637541f41c1461017557806378419f61146101995780638da5cb5b146101b9578063ade652db146101f157600080fd5b806313683cae146100ed578063615911491461012357806367626e5d14610145575b600080fd5b3480156100f957600080fd5b5061010d610108366004611910565b6102ff565b60405161011a9190611a3d565b60405180910390f35b34801561012f57600080fd5b5061014361013e366004611910565b610551565b005b34801561015157600080fd5b50610165610160366004611a57565b6105f8565b604051901515815260200161011a565b34801561018157600080fd5b5061018b60015481565b60405190815260200161011a565b3480156101a557600080fd5b506101656101b4366004611a57565b610782565b3480156101c557600080fd5b506003546101d9906001600160a01b031681565b6040516001600160a01b03909116815260200161011a565b3480156101fd57600080fd5b5061014361020c366004611b30565b610939565b34801561021d57600080fd5b50610226610c1d565b60405161011a9190611bca565b34801561023f57600080fd5b5061014361024e366004611c2c565b610f1d565b34801561025f57600080fd5b5061018b60005481565b34801561027557600080fd5b50610143610284366004611910565b6114d5565b610165610297366004611cd0565b611574565b3480156102a857600080fd5b5061018b60025481565b3480156102be57600080fd5b506101436102cd366004611910565b6116ea565b3480156102de57600080fd5b506102f26102ed366004611910565b611706565b60405161011a9190611d82565b610307611817565b60046000838152602001908152602001600020604051806101600160405290816000820154815260200160018201805461034090611dfb565b80601f016020809104026020016040519081016040528092919081815260200182805461036c90611dfb565b80156103b95780601f1061038e576101008083540402835291602001916103b9565b820191906000526020600020905b81548152906001019060200180831161039c57829003601f168201915b505050505081526020016002820180546103d290611dfb565b80601f01602080910402602001604051908101604052809291908181526020018280546103fe90611dfb565b801561044b5780601f106104205761010080835404028352916020019161044b565b820191906000526020600020905b81548152906001019060200180831161042e57829003601f168201915b5050505050815260200160038201805461046490611dfb565b80601f016020809104026020016040519081016040528092919081815260200182805461049090611dfb565b80156104dd5780601f106104b2576101008083540402835291602001916104dd565b820191906000526020600020905b8154815290600101906020018083116104c057829003601f168201915b5050509183525050600482015460208201526005820154604082015260068201546001600160a01b038116606083015260ff600160a01b8204811615156080840152600160a81b82048116151560a0840152600160b01b90910416151560c082015260079091015460e09091015292915050565b6003546001600160a01b031633146105b05760405162461bcd60e51b815260206004820152601860248201527f526573657276656420666f72206f776e6572206f6e6c7921000000000000000060448201526064015b60405180910390fd5b600081116105bd57600080fd5b60008190556040518181527f3790aeee57809af98fad1b89b9266c7934e03ed46702b541f2fef6f1e89d68279060200160405180910390a150565b600082815260056020526040812080548390811061061857610618611e36565b60009182526020909120600590910201600101546001600160a01b0316331461067a5760405162461bcd60e51b8152602060048201526014602482015273556e617574686f72697a65642074656e616e742160601b60448201526064016105a7565b600083815260056020526040902080548390811061069a5761069a611e36565b600091825260209091206004600590920201015460ff16156106ce5760405162461bcd60e51b81526004016105a790611e4c565b60008381526005602052604081208054849081106106ee576106ee611e36565b9060005260206000209060050201600301549050600060646001546000546107169190611ea9565b6107209190611ec8565b6000868152600460205260408120600601549054919250610757916001600160a01b0390911690610752908490611eea565b6117b2565b60035461076d906001600160a01b0316826117b2565b61077733836117b2565b506001949350505050565b60008281526005602052604081208054839081106107a2576107a2611e36565b60009182526020909120600590910201600101546001600160a01b031633146108045760405162461bcd60e51b8152602060048201526014602482015273556e617574686f72697a65642074656e616e742160601b60448201526064016105a7565b600083815260056020526040902080548390811061082457610824611e36565b600091825260209091206004600590920201015460ff16156108585760405162461bcd60e51b81526004016105a790611e4c565b60008381526005602052604090208054600191908490811061087c5761087c611e36565b60009182526020808320600592830201600401805460ff191694151594909417909355858252909152604081208054849081106108bb576108bb611e36565b906000526020600020906005020160030154905060006064600154836108e19190611ea9565b6108eb9190611ec8565b600086815260046020526040902060060154909150610917906001600160a01b03166107528385611eea565b60035461092d906001600160a01b0316826117b2565b610777336000546117b2565b60008551116109815760405162461bcd60e51b81526020600482015260146024820152734e616d652063616e6e6f7420626520656d70747960601b60448201526064016105a7565b60008451116109d25760405162461bcd60e51b815260206004820152601b60248201527f4465736372697074696f6e2063616e6e6f7420626520656d707479000000000060448201526064016105a7565b6000835111610a1c5760405162461bcd60e51b8152602060048201526016602482015275496d616765732063616e6e6f7420626520656d70747960501b60448201526064016105a7565b60008211610a635760405162461bcd60e51b8152602060048201526014602482015273526f6f6d732063616e6e6f74206265207a65726f60601b60448201526064016105a7565b60008111610aaa5760405162461bcd60e51b815260206004820152601460248201527350726963652063616e6e6f74206265207a65726f60601b60448201526064016105a7565b6002546000908152600660205260409020805460ff19166001179055610ace611817565b60025480825260208083018881526040808501899052606085018890526080850187905260a085018690523360c086015260016101208601819052426101408701526000948552600484529320845181559051805185949293610b35938501920190611880565b5060408201518051610b51916002840191602090910190611880565b5060608201518051610b6d916003840191602090910190611880565b506080820151600482015560a0820151600582015560c082015160068201805460e08501516101008601516101208701511515600160b01b0260ff60b01b19911515600160a81b029190911661ffff60a81b19921515600160a01b026001600160a81b03199094166001600160a01b03909616959095179290921716929092179190911790556101409091015160079091015560028054906000610c1083611f01565b9190505550505050505050565b606060025467ffffffffffffffff811115610c3a57610c3a611a79565b604051908082528060200260200182016040528015610c7357816020015b610c60611817565b815260200190600190039081610c585790505b50905060005b600254811015610f1957600081815260046020526040902060060154600160a81b900460ff16610f0757600460008281526020019081526020016000206040518061016001604052908160008201548152602001600182018054610cdc90611dfb565b80601f0160208091040260200160405190810160405280929190818152602001828054610d0890611dfb565b8015610d555780601f10610d2a57610100808354040283529160200191610d55565b820191906000526020600020905b815481529060010190602001808311610d3857829003601f168201915b50505050508152602001600282018054610d6e90611dfb565b80601f0160208091040260200160405190810160405280929190818152602001828054610d9a90611dfb565b8015610de75780601f10610dbc57610100808354040283529160200191610de7565b820191906000526020600020905b815481529060010190602001808311610dca57829003601f168201915b50505050508152602001600382018054610e0090611dfb565b80601f0160208091040260200160405190810160405280929190818152602001828054610e2c90611dfb565b8015610e795780601f10610e4e57610100808354040283529160200191610e79565b820191906000526020600020905b815481529060010190602001808311610e5c57829003601f168201915b5050509183525050600482015460208201526005820154604082015260068201546001600160a01b038116606083015260ff600160a01b8204811615156080840152600160a81b82048116151560a0840152600160b01b90910416151560c082015260079091015460e0909101528251839083908110610efb57610efb611e36565b60200260200101819052505b80610f1181611f01565b915050610c79565b5090565b60008681526006602052604090205460ff16610f725760405162461bcd60e51b8152602060048201526014602482015273105c1c185c9d1b595b9d081b9bdd08199bdd5b9960621b60448201526064016105a7565b6000868152600460205260409020600601546001600160a01b03163314610fe65760405162461bcd60e51b815260206004820152602260248201527f556e617574686f72697a656420706572736f6e6e656c2c206f776e6572206f6e6044820152616c7960f01b60648201526084016105a7565b600085511161102e5760405162461bcd60e51b81526020600482015260146024820152734e616d652063616e6e6f7420626520656d70747960601b60448201526064016105a7565b600084511161107f5760405162461bcd60e51b815260206004820152601b60248201527f4465736372697074696f6e2063616e6e6f7420626520656d707479000000000060448201526064016105a7565b60008351116110c95760405162461bcd60e51b8152602060048201526016602482015275496d616765732063616e6e6f7420626520656d70747960501b60448201526064016105a7565b600082116111105760405162461bcd60e51b8152602060048201526014602482015273526f6f6d732063616e6e6f74206265207a65726f60601b60448201526064016105a7565b600081116111575760405162461bcd60e51b815260206004820152601460248201527350726963652063616e6e6f74206265207a65726f60601b60448201526064016105a7565b600060046000888152602001908152602001600020604051806101600160405290816000820154815260200160018201805461119290611dfb565b80601f01602080910402602001604051908101604052809291908181526020018280546111be90611dfb565b801561120b5780601f106111e05761010080835404028352916020019161120b565b820191906000526020600020905b8154815290600101906020018083116111ee57829003601f168201915b5050505050815260200160028201805461122490611dfb565b80601f016020809104026020016040519081016040528092919081815260200182805461125090611dfb565b801561129d5780601f106112725761010080835404028352916020019161129d565b820191906000526020600020905b81548152906001019060200180831161128057829003601f168201915b505050505081526020016003820180546112b690611dfb565b80601f01602080910402602001604051908101604052809291908181526020018280546112e290611dfb565b801561132f5780601f106113045761010080835404028352916020019161132f565b820191906000526020600020905b81548152906001019060200180831161131257829003601f168201915b5050509183525050600482810154602080840191909152600584015460408085019190915260068501546001600160a01b03811660608087019190915260ff600160a01b830481161515608080890191909152600160a81b84048216151560a0808a0191909152600160b01b909404909116151560c088015260079097015460e0909601959095528683018d81528783018d90529487018b905294860189905293850187905260008c815291815292902083518155905180519394508493919261140192600185019290910190611880565b506040820151805161141d916002840191602090910190611880565b5060608201518051611439916003840191602090910190611880565b506080820151600482015560a0820151600582015560c082015160068201805460e08501516101008601516101208701511515600160b01b0260ff60b01b19911515600160a81b029190911661ffff60a81b19921515600160a01b026001600160a81b03199094166001600160a01b03909616959095179290921716929092179190911790556101409091015160079091015550505050505050565b60008181526006602052604090205460ff1661152a5760405162461bcd60e51b8152602060048201526014602482015273105c1c185c9d1b595b9d081b9bdd08199bdd5b9960621b60448201526064016105a7565b6002805490600061153a83611f1c565b90915550506000908152600660208181526040808420805460ff19169055600490915290912001805460ff60a81b1916600160a81b179055565b60008281526006602052604081205460ff166115ca5760405162461bcd60e51b81526020600482015260156024820152744170706172746d656e74206e6f7420666f756e642160581b60448201526064016105a7565b6000805484825260046020526040909120600501546115e99190611f33565b34101561162d5760405162461bcd60e51b8152602060048201526012602482015271496e73756666696369656e742066756e642160701b60448201526064016105a7565b60005b82518110156116e0576116766040518060a001604052806000815260200160006001600160a01b0316815260200160008152602001600081526020016000151581525090565b6000858152600560209081526040909120548252339082015283518490839081106116a3576116a3611e36565b60209081029190910181015160408084019190915260008781526004909252902060050154606090910152806116d881611f01565b915050611630565b5060019392505050565b6003546001600160a01b0316331461170157600080fd5b600155565b606060056000838152602001908152602001600020805480602002602001604051908101604052809291908181526020016000905b828210156117a75760008481526020908190206040805160a08101825260058602909201805483526001808201546001600160a01b031684860152600282015492840192909252600381015460608401526004015460ff1615156080830152908352909201910161173b565b505050509050919050565b6000826001600160a01b03168260405160006040518083038185875af1925050503d80600081146117ff576040519150601f19603f3d011682016040523d82523d6000602084013e611804565b606091505b505090508061181257600080fd5b505050565b60405180610160016040528060008152602001606081526020016060815260200160608152602001600081526020016000815260200160006001600160a01b03168152602001600015158152602001600015158152602001600015158152602001600081525090565b82805461188c90611dfb565b90600052602060002090601f0160209004810192826118ae57600085556118f4565b82601f106118c757805160ff19168380011785556118f4565b828001600101855582156118f4579182015b828111156118f45782518255916020019190600101906118d9565b50610f199291505b80821115610f1957600081556001016118fc565b60006020828403121561192257600080fd5b5035919050565b6000815180845260005b8181101561194f57602081850181015186830182015201611933565b81811115611961576000602083870101525b50601f01601f19169290920160200192915050565b600061016082518452602083015181602086015261199682860182611929565b915050604083015184820360408601526119b08282611929565b915050606083015184820360608601526119ca8282611929565b9150506080830151608085015260a083015160a085015260c08301516119fb60c08601826001600160a01b03169052565b5060e0830151611a0f60e086018215159052565b5061010083810151151590850152610120808401511515908501526101409283015192909301919091525090565b602081526000611a506020830184611976565b9392505050565b60008060408385031215611a6a57600080fd5b50508035926020909101359150565b634e487b7160e01b600052604160045260246000fd5b604051601f8201601f1916810167ffffffffffffffff81118282101715611ab857611ab8611a79565b604052919050565b600082601f830112611ad157600080fd5b813567ffffffffffffffff811115611aeb57611aeb611a79565b611afe601f8201601f1916602001611a8f565b818152846020838601011115611b1357600080fd5b816020850160208301376000918101602001919091529392505050565b600080600080600060a08688031215611b4857600080fd5b853567ffffffffffffffff80821115611b6057600080fd5b611b6c89838a01611ac0565b96506020880135915080821115611b8257600080fd5b611b8e89838a01611ac0565b95506040880135915080821115611ba457600080fd5b50611bb188828901611ac0565b9598949750949560608101359550608001359392505050565b6000602080830181845280855180835260408601915060408160051b870101925083870160005b82811015611c1f57603f19888603018452611c0d858351611976565b94509285019290850190600101611bf1565b5092979650505050505050565b60008060008060008060c08789031215611c4557600080fd5b86359550602087013567ffffffffffffffff80821115611c6457600080fd5b611c708a838b01611ac0565b96506040890135915080821115611c8657600080fd5b611c928a838b01611ac0565b95506060890135915080821115611ca857600080fd5b50611cb589828a01611ac0565b9350506080870135915060a087013590509295509295509295565b60008060408385031215611ce357600080fd5b8235915060208084013567ffffffffffffffff80821115611d0357600080fd5b818601915086601f830112611d1757600080fd5b813581811115611d2957611d29611a79565b8060051b9150611d3a848301611a8f565b8181529183018401918481019089841115611d5457600080fd5b938501935b83851015611d7257843582529385019390850190611d59565b8096505050505050509250929050565b602080825282518282018190526000919060409081850190868401855b82811015611dee57815180518552868101516001600160a01b03168786015285810151868601526060808201519086015260809081015115159085015260a09093019290850190600101611d9f565b5091979650505050505050565b600181811c90821680611e0f57607f821691505b60208210811415611e3057634e487b7160e01b600052602260045260246000fd5b50919050565b634e487b7160e01b600052603260045260246000fd5b60208082526027908201527f41706172746d656e7420616c726561647920636865636b6564206f6e207468696040820152667320646174652160c81b606082015260800190565b634e487b7160e01b600052601160045260246000fd5b6000816000190483118215151615611ec357611ec3611e93565b500290565b600082611ee557634e487b7160e01b600052601260045260246000fd5b500490565b600082821015611efc57611efc611e93565b500390565b6000600019821415611f1557611f15611e93565b5060010190565b600081611f2b57611f2b611e93565b506000190190565b60008219821115611f4657611f46611e93565b50019056fea2646970667358221220b13520c81e5661d34d038e0fd4e863a6d7274c05603694edd3f62de0a9c6870364736f6c634300080b0033",
  "linkReferences": {},
  "deployedLinkReferences": {}
}