{
  "_format": "hh-sol-artifact-1",
  "contractName": "DappBnb",
  "sourceName": "src/contracts/DappBnb.sol",
  "abi": [
    {
      "inputs": [
        {
          "internalType": "uint256",
          "name": "_taxPercent",
          "type": "uint256"
        },
        {
          "internalType": "uint256",
          "name": "_securityFee",
          "type": "uint256"
        }
      ],
      "stateMutability": "nonpayable",
      "type": "constructor"
    },
    {
      "anonymous": false,
      "inputs": [
        {
          "indexed": true,
          "internalType": "address",
          "name": "previousOwner",
          "type": "address"
        },
        {
          "indexed": true,
          "internalType": "address",
          "name": "newOwner",
          "type": "address"
        }
      ],
      "name": "OwnershipTransferred",
      "type": "event"
    },
    {
      "anonymous": false,
      "inputs": [
        {
          "indexed": false,
          "internalType": "uint256",
          "name": "newFee",
          "type": "uint256"
        }
      ],
      "name": "SecurityFeeUpdated",
      "type": "event"
    },
    {
      "inputs": [
        {
          "internalType": "uint256",
          "name": "appartmentId",
          "type": "uint256"
        },
        {
          "internalType": "string",
          "name": "reviewText",
          "type": "string"
        }
      ],
      "name": "addReview",
      "outputs": [],
      "stateMutability": "nonpayable",
      "type": "function"
    },
    {
      "inputs": [
        {
          "internalType": "uint256",
          "name": "id",
          "type": "uint256"
        },
        {
          "internalType": "uint256[]",
          "name": "dates",
          "type": "uint256[]"
        }
      ],
      "name": "bookApartment",
      "outputs": [],
      "stateMutability": "payable",
      "type": "function"
    },
    {
      "inputs": [
        {
          "internalType": "uint256",
          "name": "id",
          "type": "uint256"
        },
        {
          "internalType": "uint256",
          "name": "bookingId",
          "type": "uint256"
        }
      ],
      "name": "checkInApartment",
      "outputs": [],
      "stateMutability": "nonpayable",
      "type": "function"
    },
    {
      "inputs": [
        {
          "internalType": "uint256",
          "name": "id",
          "type": "uint256"
        },
        {
          "internalType": "uint256",
          "name": "bookingId",
          "type": "uint256"
        }
      ],
      "name": "claimFunds",
      "outputs": [],
      "stateMutability": "nonpayable",
      "type": "function"
    },
    {
      "inputs": [
        {
          "internalType": "string",
          "name": "name",
          "type": "string"
        },
        {
          "internalType": "string",
          "name": "description",
          "type": "string"
        },
        {
          "internalType": "string",
          "name": "images",
          "type": "string"
        },
        {
          "internalType": "uint256",
          "name": "rooms",
          "type": "uint256"
        },
        {
          "internalType": "uint256",
          "name": "price",
          "type": "uint256"
        }
      ],
      "name": "createAppartment",
      "outputs": [],
      "stateMutability": "nonpayable",
      "type": "function"
    },
    {
      "inputs": [
        {
          "internalType": "uint256",
          "name": "id",
          "type": "uint256"
        }
      ],
      "name": "deleteAppartment",
      "outputs": [],
      "stateMutability": "nonpayable",
      "type": "function"
    },
    {
      "inputs": [
        {
          "internalType": "uint256",
          "name": "id",
          "type": "uint256"
        }
      ],
      "name": "getApartment",
      "outputs": [
        {
          "components": [
            {
              "internalType": "uint256",
              "name": "id",
              "type": "uint256"
            },
            {
              "internalType": "string",
              "name": "name",
              "type": "string"
            },
            {
              "internalType": "string",
              "name": "description",
              "type": "string"
            },
            {
              "internalType": "string",
              "name": "images",
              "type": "string"
            },
            {
              "internalType": "uint256",
              "name": "rooms",
              "type": "uint256"
            },
            {
              "internalType": "uint256",
              "name": "price",
              "type": "uint256"
            },
            {
              "internalType": "address",
              "name": "owner",
              "type": "address"
            },
            {
              "internalType": "bool",
              "name": "booked",
              "type": "bool"
            },
            {
              "internalType": "bool",
              "name": "deleted",
              "type": "bool"
            },
            {
              "internalType": "bool",
              "name": "availablity",
              "type": "bool"
            },
            {
              "internalType": "uint256",
              "name": "timestamp",
              "type": "uint256"
            }
          ],
          "internalType": "struct DappBnb.ApartmentStruct",
          "name": "",
          "type": "tuple"
        }
      ],
      "stateMutability": "view",
      "type": "function"
    },
    {
      "inputs": [],
      "name": "getApartments",
      "outputs": [
        {
          "components": [
            {
              "internalType": "uint256",
              "name": "id",
              "type": "uint256"
            },
            {
              "internalType": "string",
              "name": "name",
              "type": "string"
            },
            {
              "internalType": "string",
              "name": "description",
              "type": "string"
            },
            {
              "internalType": "string",
              "name": "images",
              "type": "string"
            },
            {
              "internalType": "uint256",
              "name": "rooms",
              "type": "uint256"
            },
            {
              "internalType": "uint256",
              "name": "price",
              "type": "uint256"
            },
            {
              "internalType": "address",
              "name": "owner",
              "type": "address"
            },
            {
              "internalType": "bool",
              "name": "booked",
              "type": "bool"
            },
            {
              "internalType": "bool",
              "name": "deleted",
              "type": "bool"
            },
            {
              "internalType": "bool",
              "name": "availablity",
              "type": "bool"
            },
            {
              "internalType": "uint256",
              "name": "timestamp",
              "type": "uint256"
            }
          ],
          "internalType": "struct DappBnb.ApartmentStruct[]",
          "name": "Apartments",
          "type": "tuple[]"
        }
      ],
      "stateMutability": "view",
      "type": "function"
    },
    {
      "inputs": [
        {
          "internalType": "uint256",
          "name": "id",
          "type": "uint256"
        },
        {
          "internalType": "uint256",
          "name": "bookingId",
          "type": "uint256"
        }
      ],
      "name": "getBooking",
      "outputs": [
        {
          "components": [
            {
              "internalType": "uint256",
              "name": "id",
              "type": "uint256"
            },
            {
              "internalType": "address",
              "name": "tenant",
              "type": "address"
            },
            {
              "internalType": "uint256",
              "name": "date",
              "type": "uint256"
            },
            {
              "internalType": "uint256",
              "name": "price",
              "type": "uint256"
            },
            {
              "internalType": "bool",
              "name": "checked",
              "type": "bool"
            },
            {
              "internalType": "bool",
              "name": "cancelled",
              "type": "bool"
            }
          ],
          "internalType": "struct DappBnb.BookingStruct",
          "name": "",
          "type": "tuple"
        }
      ],
      "stateMutability": "view",
      "type": "function"
    },
    {
      "inputs": [
        {
          "internalType": "uint256",
          "name": "id",
          "type": "uint256"
        }
      ],
      "name": "getBookings",
      "outputs": [
        {
          "components": [
            {
              "internalType": "uint256",
              "name": "id",
              "type": "uint256"
            },
            {
              "internalType": "address",
              "name": "tenant",
              "type": "address"
            },
            {
              "internalType": "uint256",
              "name": "date",
              "type": "uint256"
            },
            {
              "internalType": "uint256",
              "name": "price",
              "type": "uint256"
            },
            {
              "internalType": "bool",
              "name": "checked",
              "type": "bool"
            },
            {
              "internalType": "bool",
              "name": "cancelled",
              "type": "bool"
            }
          ],
          "internalType": "struct DappBnb.BookingStruct[]",
          "name": "",
          "type": "tuple[]"
        }
      ],
      "stateMutability": "view",
      "type": "function"
    },
    {
      "inputs": [
        {
          "internalType": "uint256",
          "name": "appartmentId",
          "type": "uint256"
        }
      ],
      "name": "getReviews",
      "outputs": [
        {
          "components": [
            {
              "internalType": "uint256",
              "name": "id",
              "type": "uint256"
            },
            {
              "internalType": "uint256",
              "name": "appartmentId",
              "type": "uint256"
            },
            {
              "internalType": "string",
              "name": "reviewText",
              "type": "string"
            },
            {
              "internalType": "uint256",
              "name": "timestamp",
              "type": "uint256"
            },
            {
              "internalType": "address",
              "name": "owner",
              "type": "address"
            }
          ],
          "internalType": "struct DappBnb.ReviewStruct[]",
          "name": "",
          "type": "tuple[]"
        }
      ],
      "stateMutability": "view",
      "type": "function"
    },
    {
      "inputs": [
        {
          "internalType": "uint256",
          "name": "id",
          "type": "uint256"
        }
      ],
      "name": "getUnavailableDates",
      "outputs": [
        {
          "internalType": "uint256[]",
          "name": "",
          "type": "uint256[]"
        }
      ],
      "stateMutability": "view",
      "type": "function"
    },
    {
      "inputs": [
        {
          "internalType": "uint256",
          "name": "id",
          "type": "uint256"
        },
        {
          "internalType": "uint256",
          "name": "bookingId",
          "type": "uint256"
        }
      ],
      "name": "hasBookedDateReached",
      "outputs": [
        {
          "internalType": "bool",
          "name": "",
          "type": "bool"
        }
      ],
      "stateMutability": "view",
      "type": "function"
    },
    {
      "inputs": [],
      "name": "owner",
      "outputs": [
        {
          "internalType": "address",
          "name": "",
          "type": "address"
        }
      ],
      "stateMutability": "view",
      "type": "function"
    },
    {
      "inputs": [
        {
          "internalType": "uint256",
          "name": "id",
          "type": "uint256"
        },
        {
          "internalType": "uint256",
          "name": "bookingId",
          "type": "uint256"
        },
        {
          "internalType": "uint256",
          "name": "date",
          "type": "uint256"
        }
      ],
      "name": "refundBooking",
      "outputs": [],
      "stateMutability": "nonpayable",
      "type": "function"
    },
    {
      "inputs": [],
      "name": "renounceOwnership",
      "outputs": [],
      "stateMutability": "nonpayable",
      "type": "function"
    },
    {
      "inputs": [],
      "name": "returnSecurityFee",
      "outputs": [
        {
          "internalType": "uint256",
          "name": "",
          "type": "uint256"
        }
      ],
      "stateMutability": "view",
      "type": "function"
    },
    {
      "inputs": [],
      "name": "returnTaxPercent",
      "outputs": [
        {
          "internalType": "uint256",
          "name": "",
          "type": "uint256"
        }
      ],
      "stateMutability": "view",
      "type": "function"
    },
    {
      "inputs": [],
      "name": "securityFee",
      "outputs": [
        {
          "internalType": "uint256",
          "name": "",
          "type": "uint256"
        }
      ],
      "stateMutability": "view",
      "type": "function"
    },
    {
      "inputs": [],
      "name": "taxPercent",
      "outputs": [
        {
          "internalType": "uint256",
          "name": "",
          "type": "uint256"
        }
      ],
      "stateMutability": "view",
      "type": "function"
    },
    {
      "inputs": [
        {
          "internalType": "address",
          "name": "newOwner",
          "type": "address"
        }
      ],
      "name": "transferOwnership",
      "outputs": [],
      "stateMutability": "nonpayable",
      "type": "function"
    },
    {
      "inputs": [
        {
          "internalType": "uint256",
          "name": "id",
          "type": "uint256"
        },
        {
          "internalType": "string",
          "name": "name",
          "type": "string"
        },
        {
          "internalType": "string",
          "name": "description",
          "type": "string"
        },
        {
          "internalType": "string",
          "name": "images",
          "type": "string"
        },
        {
          "internalType": "uint256",
          "name": "rooms",
          "type": "uint256"
        },
        {
          "internalType": "uint256",
          "name": "price",
          "type": "uint256"
        }
      ],
      "name": "updateAppartment",
      "outputs": [],
      "stateMutability": "nonpayable",
      "type": "function"
    },
    {
      "inputs": [
        {
          "internalType": "uint256",
          "name": "newFee",
          "type": "uint256"
        }
      ],
      "name": "updateSecurityFee",
      "outputs": [],
      "stateMutability": "nonpayable",
      "type": "function"
    },
    {
      "inputs": [
        {
          "internalType": "uint256",
          "name": "newTaxPercent",
          "type": "uint256"
        }
      ],
      "name": "updateTaxPercent",
      "outputs": [],
      "stateMutability": "nonpayable",
      "type": "function"
    }
  ],
  "bytecode": "0x60806040523480156200001157600080fd5b5060405162002e5838038062002e588339810160408190526200003491620000a2565b6200003f3362000052565b60018055600491909155600355620000c7565b600080546001600160a01b038381166001600160a01b0319831681178455604051919092169283917f8be0079c531659141344cd1fd0a4f28419497f9722a3daafe3b4186f6b6457e09190a35050565b60008060408385031215620000b657600080fd5b505080516020909101519092909150565b612d8180620000d76000396000f3fe60806040526004361061014b5760003560e01c8063c4452e06116100b6578063e16ca8d11161006f578063e16ca8d1146103ac578063e204945b146103cc578063eb461445146103e1578063f2fde38b14610401578063f401099514610421578063f6ab7e3d1461044e57600080fd5b8063c4452e06146102e9578063d5ea1cb814610316578063d68e130214610336578063db2f80b71461034c578063dec30d3914610379578063df6e02221461039957600080fd5b80637541f41c116101085780637541f41c1461021c57806378419f61146102325780638da5cb5b146102525780639d4a22551461027a578063ade652db146102a7578063b1c98099146102c757600080fd5b8063010b58ee14610150578063455b30701461017257806345df58c6146101a85780635bb0c5d6146101c757806361591149146101e7578063715018a614610207575b600080fd5b34801561015c57600080fd5b5061017061016b366004612578565b61047e565b005b34801561017e57600080fd5b5061019261018d366004612578565b6105e4565b60405161019f91906125de565b60405180910390f35b3480156101b457600080fd5b506003545b60405190815260200161019f565b3480156101d357600080fd5b506101706101e23660046126a3565b61067e565b3480156101f357600080fd5b506101706102023660046126ea565b61080d565b34801561021357600080fd5b5061017061085d565b34801561022857600080fd5b506101b960045481565b34801561023e57600080fd5b5061017061024d366004612578565b610871565b34801561025e57600080fd5b506000546040516001600160a01b03909116815260200161019f565b34801561028657600080fd5b5061029a6102953660046126ea565b6109af565b60405161019f9190612750565b3480156102b357600080fd5b506101706102c23660046127ee565b610aea565b3480156102d357600080fd5b506102dc610dc1565b60405161019f919061294f565b3480156102f557600080fd5b506103096103043660046126ea565b61111f565b60405161019f91906129b1565b34801561032257600080fd5b506101706103313660046129cb565b611371565b34801561034257600080fd5b506101b960035481565b34801561035857600080fd5b5061036c6103673660046126ea565b61192f565b60405161019f9190612a6f565b34801561038557600080fd5b506101706103943660046126ea565b611991565b6101706103a7366004612ab3565b611a80565b3480156103b857600080fd5b506101706103c7366004612b65565b611d3a565b3480156103d857600080fd5b506004546101b9565b3480156103ed57600080fd5b506101706103fc3660046126ea565b6120ed565b34801561040d57600080fd5b5061017061041c366004612b91565b6120fa565b34801561042d57600080fd5b5061044161043c3660046126ea565b612173565b60405161019f9190612bba565b34801561045a57600080fd5b5061046e610469366004612578565b612224565b604051901515815260200161019f565b6000828152600560205260409020600601546001600160a01b031633146104e25760405162461bcd60e51b8152602060048201526013602482015272556e617574686f72697a656420656e7469747960681b60448201526064015b60405180910390fd5b600082815260066020526040902080548290811061050257610502612bfc565b600091825260209091206004600590920201015460ff16156105365760405162461bcd60e51b81526004016104d990612c12565b600082815260066020526040812080548390811061055657610556612bfc565b9060005260206000209060050201600301549050600060646004548361057c9190612c6f565b6105869190612c8e565b6000858152600560205260409020600601549091506105b7906001600160a01b03166105b28385612cb0565b612269565b6105d26105cc6000546001600160a01b031690565b82612269565b6105de33600354612269565b50505050565b6105ec612433565b600083815260066020526040902080548390811061060c5761060c612bfc565b60009182526020918290206040805160c08101825260059093029091018054835260018101546001600160a01b0316938301939093526002830154908201526003820154606082015260049091015460ff8082161515608084015261010090910416151560a082015290505b92915050565b60008281526008602052604090205460ff1615156001146106e15760405162461bcd60e51b815260206004820152601860248201527f4170706172746d656e74206e6f7420617661696c61626c65000000000000000060448201526064016104d9565b60008151116107325760405162461bcd60e51b815260206004820152601b60248201527f52657669657720746578742063616e6e6f7420626520656d707479000000000060448201526064016104d9565b61076d6040518060a001604052806000815260200160008152602001606081526020016000815260200160006001600160a01b031681525090565b6000838152600760208181526040808420805480875286840189815292870188815242606089015233608089015294845260018082018355918652948390208651600590960201948555905190840155905180518493926107d5926002850192910190612476565b5060608201516003820155608090910151600490910180546001600160a01b0319166001600160a01b03909216919091179055505050565b6108156122c9565b6000811161082257600080fd5b60038190556040518181527f3790aeee57809af98fad1b89b9266c7934e03ed46702b541f2fef6f1e89d68279060200160405180910390a150565b6108656122c9565b61086f6000612323565b565b600082815260066020526040902080548290811061089157610891612bfc565b60009182526020909120600590910201600101546001600160a01b031633146108f35760405162461bcd60e51b8152602060048201526014602482015273556e617574686f72697a65642074656e616e742160601b60448201526064016104d9565b600082815260066020526040902080548290811061091357610913612bfc565b600091825260209091206004600590920201015460ff16156109475760405162461bcd60e51b81526004016104d990612c12565b60008281526006602052604090208054600191908390811061096b5761096b612bfc565b60009182526020808320600592909202909101600401805460ff19169315159390931790925583815260069091526040812080548390811061055657610556612bfc565b606060076000838152602001908152602001600020805480602002602001604051908101604052809291908181526020016000905b82821015610adf57838290600052602060002090600502016040518060a00160405290816000820154815260200160018201548152602001600282018054610a2b90612cc7565b80601f0160208091040260200160405190810160405280929190818152602001828054610a5790612cc7565b8015610aa45780601f10610a7957610100808354040283529160200191610aa4565b820191906000526020600020905b815481529060010190602001808311610a8757829003601f168201915b505050918352505060038201546020808301919091526004909201546001600160a01b031660409091015290825260019290920191016109e4565b505050509050919050565b6000855111610b325760405162461bcd60e51b81526020600482015260146024820152734e616d652063616e6e6f7420626520656d70747960601b60448201526064016104d9565b6000845111610b835760405162461bcd60e51b815260206004820152601b60248201527f4465736372697074696f6e2063616e6e6f7420626520656d707479000000000060448201526064016104d9565b6000835111610bcd5760405162461bcd60e51b8152602060048201526016602482015275496d616765732063616e6e6f7420626520656d70747960501b60448201526064016104d9565b60008211610c145760405162461bcd60e51b8152602060048201526014602482015273526f6f6d732063616e6e6f74206265207a65726f60601b60448201526064016104d9565b60008111610c5b5760405162461bcd60e51b815260206004820152601460248201527350726963652063616e6e6f74206265207a65726f60601b60448201526064016104d9565b610c69600280546001019055565b610c716124fa565b60028054808352602080840189815260408086018a9052606086018990526080860188905260a086018790523360c08701526001610120870181905242610140880152600094855260088452818520805460ff191682179055945484526005835290922084518155915180518594610cee93908501920190612476565b5060408201518051610d0a916002840191602090910190612476565b5060608201518051610d26916003840191602090910190612476565b506080820151600482015560a0820151600582015560c082015160068201805460e08501516101008601516101208701511515600160b01b0260ff60b01b19911515600160a81b029190911661ffff60a81b19921515600160a01b026001600160a81b03199094166001600160a01b039096169590951792909217169290921791909117905561014090910151600790910155505050505050565b6060600060015b6002548111610e1157600081815260056020526040902060060154600160a81b900460ff16610dff5781610dfb81612d02565b9250505b80610e0981612d02565b915050610dc8565b508067ffffffffffffffff811115610e2b57610e2b6125ec565b604051908082528060200260200182016040528015610e6457816020015b610e516124fa565b815260200190600190039081610e495790505b509150600060015b600254811161111957600081815260056020526040902060060154600160a81b900460ff1661110757600560008281526020019081526020016000206040518061016001604052908160008201548152602001600182018054610ece90612cc7565b80601f0160208091040260200160405190810160405280929190818152602001828054610efa90612cc7565b8015610f475780601f10610f1c57610100808354040283529160200191610f47565b820191906000526020600020905b815481529060010190602001808311610f2a57829003601f168201915b50505050508152602001600282018054610f6090612cc7565b80601f0160208091040260200160405190810160405280929190818152602001828054610f8c90612cc7565b8015610fd95780601f10610fae57610100808354040283529160200191610fd9565b820191906000526020600020905b815481529060010190602001808311610fbc57829003601f168201915b50505050508152602001600382018054610ff290612cc7565b80601f016020809104026020016040519081016040528092919081815260200182805461101e90612cc7565b801561106b5780601f106110405761010080835404028352916020019161106b565b820191906000526020600020905b81548152906001019060200180831161104e57829003601f168201915b5050509183525050600482015460208201526005820154604082015260068201546001600160a01b038116606083015260ff600160a01b8204811615156080840152600160a81b82048116151560a0840152600160b01b90910416151560c082015260079091015460e09091015284518590849081106110ed576110ed612bfc565b6020026020010181905250818061110390612d02565b9250505b8061111181612d02565b915050610e6c565b50505090565b6111276124fa565b60056000838152602001908152602001600020604051806101600160405290816000820154815260200160018201805461116090612cc7565b80601f016020809104026020016040519081016040528092919081815260200182805461118c90612cc7565b80156111d95780601f106111ae576101008083540402835291602001916111d9565b820191906000526020600020905b8154815290600101906020018083116111bc57829003601f168201915b505050505081526020016002820180546111f290612cc7565b80601f016020809104026020016040519081016040528092919081815260200182805461121e90612cc7565b801561126b5780601f106112405761010080835404028352916020019161126b565b820191906000526020600020905b81548152906001019060200180831161124e57829003601f168201915b5050505050815260200160038201805461128490612cc7565b80601f01602080910402602001604051908101604052809291908181526020018280546112b090612cc7565b80156112fd5780601f106112d2576101008083540402835291602001916112fd565b820191906000526020600020905b8154815290600101906020018083116112e057829003601f168201915b5050509183525050600482015460208201526005820154604082015260068201546001600160a01b038116606083015260ff600160a01b8204811615156080840152600160a81b82048116151560a0840152600160b01b90910416151560c082015260079091015460e09091015292915050565b60008681526008602052604090205460ff1615156001146113cb5760405162461bcd60e51b8152602060048201526014602482015273105c1c185c9d1b595b9d081b9bdd08199bdd5b9960621b60448201526064016104d9565b6000868152600560205260409020600601546001600160a01b0316331461143f5760405162461bcd60e51b815260206004820152602260248201527f556e617574686f72697a656420706572736f6e6e656c2c206f776e6572206f6e6044820152616c7960f01b60648201526084016104d9565b60008551116114875760405162461bcd60e51b81526020600482015260146024820152734e616d652063616e6e6f7420626520656d70747960601b60448201526064016104d9565b60008451116114d85760405162461bcd60e51b815260206004820152601b60248201527f4465736372697074696f6e2063616e6e6f7420626520656d707479000000000060448201526064016104d9565b60008351116115225760405162461bcd60e51b8152602060048201526016602482015275496d616765732063616e6e6f7420626520656d70747960501b60448201526064016104d9565b600082116115695760405162461bcd60e51b8152602060048201526014602482015273526f6f6d732063616e6e6f74206265207a65726f60601b60448201526064016104d9565b600081116115b05760405162461bcd60e51b815260206004820152601460248201527350726963652063616e6e6f74206265207a65726f60601b60448201526064016104d9565b60006005600088815260200190815260200160002060405180610160016040529081600082015481526020016001820180546115eb90612cc7565b80601f016020809104026020016040519081016040528092919081815260200182805461161790612cc7565b80156116645780601f1061163957610100808354040283529160200191611664565b820191906000526020600020905b81548152906001019060200180831161164757829003601f168201915b5050505050815260200160028201805461167d90612cc7565b80601f01602080910402602001604051908101604052809291908181526020018280546116a990612cc7565b80156116f65780601f106116cb576101008083540402835291602001916116f6565b820191906000526020600020905b8154815290600101906020018083116116d957829003601f168201915b5050505050815260200160038201805461170f90612cc7565b80601f016020809104026020016040519081016040528092919081815260200182805461173b90612cc7565b80156117885780601f1061175d57610100808354040283529160200191611788565b820191906000526020600020905b81548152906001019060200180831161176b57829003601f168201915b5050509183525050600482015460208083019190915260058084015460408085019190915260068501546001600160a01b03811660608087019190915260ff600160a01b830481161515608080890191909152600160a81b84048216151560a0808a0191909152600160b01b909404909116151560c088015260079097015460e0909601959095528684018d81528783018d90529487018b905294860189905293850187905260008c81529082529290922083518155905180519394508493919261185b92600185019290910190612476565b5060408201518051611877916002840191602090910190612476565b5060608201518051611893916003840191602090910190612476565b506080820151600482015560a0820151600582015560c082015160068201805460e08501516101008601516101208701511515600160b01b0260ff60b01b19911515600160a81b029190911661ffff60a81b19921515600160a01b026001600160a81b03199094166001600160a01b03909616959095179290921716929092179190911790556101409091015160079091015550505050505050565b60008181526009602090815260409182902080548351818402810184019094528084526060939283018282801561198557602002820191906000526020600020905b815481526020019060010190808311611971575b50505050509050919050565b60008181526008602052604090205460ff1615156001146119eb5760405162461bcd60e51b8152602060048201526014602482015273105c1c185c9d1b595b9d081b9bdd08199bdd5b9960621b60448201526064016104d9565b6000818152600560205260409020600601546001600160a01b03163314611a4a5760405162461bcd60e51b8152602060048201526013602482015272556e617574686f72697a656420656e7469747960681b60448201526064016104d9565b6000908152600860209081526040808320805460ff1916905560059091529020600601805460ff60a81b1916600160a81b179055565b60008281526008602052604090205460ff16611ad55760405162461bcd60e51b815260206004820152601460248201527341706172746d656e74206e6f7420666f756e642160601b60448201526064016104d9565b600354815160008481526005602081905260409091200154611af79190612c6f565b611b019190612d1d565b341015611b455760405162461bcd60e51b8152602060048201526012602482015271496e73756666696369656e742066756e642160701b60448201526064016104d9565b611b4f8282612373565b611b9b5760405162461bcd60e51b815260206004820152601e60248201527f426f6f6b6564206461746520666f756e6420616d6f6e6720646174657321000060448201526064016104d9565b60005b8151811015611d3557611baf612433565b600084815260066020908152604090912054825233908201528251839083908110611bdc57611bdc612bfc565b60209081029190910181015160408084019182526000878152600580855282822081015460608701908152898352600686528383208054600181810183559185528785208951919094029093019283558787015183820180546001600160a01b039092166001600160a01b03199092169190911790559451600283015551600382015560808601516004909101805460a088015115156101000261ff00199315159390931661ffff1990911617919091179055878152600a9093528220855191929091869086908110611cb157611cb1612bfc565b6020026020010151815260200190815260200160002060006101000a81548160ff02191690831515021790555060096000858152602001908152602001600020838381518110611d0357611d03612bfc565b602090810291909101810151825460018101845560009384529190922001555080611d2d81612d02565b915050611b9e565b505050565b60026001541415611d8d5760405162461bcd60e51b815260206004820152601f60248201527f5265656e7472616e637947756172643a207265656e7472616e742063616c6c0060448201526064016104d9565b60026001556000838152600660205260409020805483908110611db257611db2612bfc565b600091825260209091206004600590920201015460ff1615611de65760405162461bcd60e51b81526004016104d990612c12565b6000546001600160a01b03163314611f14576000838152600660205260409020805483908110611e1857611e18612bfc565b60009182526020909120600590910201600101546001600160a01b03163314611e7a5760405162461bcd60e51b8152602060048201526014602482015273556e617574686f72697a65642074656e616e742160601b60448201526064016104d9565b611e82612418565b6000848152600660205260409020805484908110611ea257611ea2612bfc565b90600052602060002090600502016002015411611f145760405162461bcd60e51b815260206004820152602a60248201527f43616e206e6f206c6f6e67657220726566756e642c20626f6f6b696e672064616044820152691d19481cdd185c9d195960b21b60648201526084016104d9565b600083815260066020526040902080546001919084908110611f3857611f38612bfc565b6000918252602080832060046005909302019190910180549315156101000261ff001990941693909317909255848152600a825260408082208483528352808220805460ff19169055858252600990925290812054611f9990600190612cb0565b60008581526009602052604081208054929350909183908110611fbe57611fbe612bfc565b9060005260206000200154905080600960008781526020019081526020016000208581548110611ff057611ff0612bfc565b90600052602060002001819055506009600086815260200190815260200160002080548061202057612020612d35565b60019003818190600052602060002001600090559055600060066000878152602001908152602001600020858154811061205c5761205c612bfc565b9060005260206000209060050201600301549050600060646004546003546120849190612c6f565b61208e9190612c8e565b6000888152600560205260409020600601546003549192506120c1916001600160a01b03909116906105b2908490612cb0565b6120d66105cc6000546001600160a01b031690565b6120e03383612269565b5050600180555050505050565b6120f56122c9565b600455565b6121026122c9565b6001600160a01b0381166121675760405162461bcd60e51b815260206004820152602660248201527f4f776e61626c653a206e6577206f776e657220697320746865207a65726f206160448201526564647265737360d01b60648201526084016104d9565b61217081612323565b50565b606060066000838152602001908152602001600020805480602002602001604051908101604052809291908181526020016000905b82821015610adf5760008481526020908190206040805160c08101825260058602909201805483526001808201546001600160a01b031684860152600282015492840192909252600381015460608401526004015460ff8082161515608085015261010090910416151560a083015290835290920191016121a8565b600061222e612418565b600084815260066020526040902080548490811061224e5761224e612bfc565b90600052602060002090600502016002015410905092915050565b6000826001600160a01b03168260405160006040518083038185875af1925050503d80600081146122b6576040519150601f19603f3d011682016040523d82523d6000602084013e6122bb565b606091505b5050905080611d3557600080fd5b6000546001600160a01b0316331461086f5760405162461bcd60e51b815260206004820181905260248201527f4f776e61626c653a2063616c6c6572206973206e6f7420746865206f776e657260448201526064016104d9565b600080546001600160a01b038381166001600160a01b0319831681178455604051919092169283917f8be0079c531659141344cd1fd0a4f28419497f9722a3daafe3b4186f6b6457e09190a35050565b60006001815b83518110156124105760005b6000868152600960205260409020548110156123fd5760008681526009602052604090208054829081106123bb576123bb612bfc565b90600052602060002001548583815181106123d8576123d8612bfc565b602002602001015114156123eb57600092505b806123f581612d02565b915050612385565b508061240881612d02565b915050612379565b509392505050565b600080612427426103e8612c6f565b610678906103e8612d1d565b6040518060c001604052806000815260200160006001600160a01b0316815260200160008152602001600081526020016000151581526020016000151581525090565b82805461248290612cc7565b90600052602060002090601f0160209004810192826124a457600085556124ea565b82601f106124bd57805160ff19168380011785556124ea565b828001600101855582156124ea579182015b828111156124ea5782518255916020019190600101906124cf565b506124f6929150612563565b5090565b60405180610160016040528060008152602001606081526020016060815260200160608152602001600081526020016000815260200160006001600160a01b03168152602001600015158152602001600015158152602001600015158152602001600081525090565b5b808211156124f65760008155600101612564565b6000806040838503121561258b57600080fd5b50508035926020909101359150565b805182526020808201516001600160a01b031690830152604080820151908301526060808201519083015260808082015115159083015260a0908101511515910152565b60c08101610678828461259a565b634e487b7160e01b600052604160045260246000fd5b604051601f8201601f1916810167ffffffffffffffff8111828210171561262b5761262b6125ec565b604052919050565b600082601f83011261264457600080fd5b813567ffffffffffffffff81111561265e5761265e6125ec565b612671601f8201601f1916602001612602565b81815284602083860101111561268657600080fd5b816020850160208301376000918101602001919091529392505050565b600080604083850312156126b657600080fd5b82359150602083013567ffffffffffffffff8111156126d457600080fd5b6126e085828601612633565b9150509250929050565b6000602082840312156126fc57600080fd5b5035919050565b6000815180845260005b818110156127295760208185018101518683018201520161270d565b8181111561273b576000602083870101525b50601f01601f19169290920160200192915050565b60006020808301818452808551808352604092508286019150828160051b87010184880160005b838110156127e057603f19898403018552815160a08151855288820151898601528782015181898701526127ad82870182612703565b606084810151908801526080938401516001600160a01b0316939096019290925250509386019390860190600101612777565b509098975050505050505050565b600080600080600060a0868803121561280657600080fd5b853567ffffffffffffffff8082111561281e57600080fd5b61282a89838a01612633565b9650602088013591508082111561284057600080fd5b61284c89838a01612633565b9550604088013591508082111561286257600080fd5b5061286f88828901612633565b9598949750949560608101359550608001359392505050565b60006101608251845260208301518160208601526128a882860182612703565b915050604083015184820360408601526128c28282612703565b915050606083015184820360608601526128dc8282612703565b9150506080830151608085015260a083015160a085015260c083015161290d60c08601826001600160a01b03169052565b5060e083015161292160e086018215159052565b5061010083810151151590850152610120808401511515908501526101409283015192909301919091525090565b6000602080830181845280855180835260408601915060408160051b870101925083870160005b828110156129a457603f19888603018452612992858351612888565b94509285019290850190600101612976565b5092979650505050505050565b6020815260006129c46020830184612888565b9392505050565b60008060008060008060c087890312156129e457600080fd5b86359550602087013567ffffffffffffffff80821115612a0357600080fd5b612a0f8a838b01612633565b96506040890135915080821115612a2557600080fd5b612a318a838b01612633565b95506060890135915080821115612a4757600080fd5b50612a5489828a01612633565b9350506080870135915060a087013590509295509295509295565b6020808252825182820181905260009190848201906040850190845b81811015612aa757835183529284019291840191600101612a8b565b50909695505050505050565b60008060408385031215612ac657600080fd5b8235915060208084013567ffffffffffffffff80821115612ae657600080fd5b818601915086601f830112612afa57600080fd5b813581811115612b0c57612b0c6125ec565b8060051b9150612b1d848301612602565b8181529183018401918481019089841115612b3757600080fd5b938501935b83851015612b5557843582529385019390850190612b3c565b8096505050505050509250929050565b600080600060608486031215612b7a57600080fd5b505081359360208301359350604090920135919050565b600060208284031215612ba357600080fd5b81356001600160a01b03811681146129c457600080fd5b6020808252825182820181905260009190848201906040850190845b81811015612aa757612be983855161259a565b9284019260c09290920191600101612bd6565b634e487b7160e01b600052603260045260246000fd5b60208082526027908201527f41706172746d656e7420616c726561647920636865636b6564206f6e207468696040820152667320646174652160c81b606082015260800190565b634e487b7160e01b600052601160045260246000fd5b6000816000190483118215151615612c8957612c89612c59565b500290565b600082612cab57634e487b7160e01b600052601260045260246000fd5b500490565b600082821015612cc257612cc2612c59565b500390565b600181811c90821680612cdb57607f821691505b60208210811415612cfc57634e487b7160e01b600052602260045260246000fd5b50919050565b6000600019821415612d1657612d16612c59565b5060010190565b60008219821115612d3057612d30612c59565b500190565b634e487b7160e01b600052603160045260246000fdfea264697066735822122024572709e5ff60d9b8d4b2d8662cc9d3e36d715dc9a1e64074b7bed4cda2bc5b64736f6c634300080b0033",
  "linkReferences": {},
  "deployedLinkReferences": {}
}